{
  "_format": "hh-sol-artifact-1",
  "contractName": "MyNFT",
  "sourceName": "contracts/nft.sol",
  "abi": [
    {
      "inputs": [
        {
          "internalType": "address",
          "name": "_royaltyReceiverAddress",
          "type": "address"
        }
      ],
      "stateMutability": "nonpayable",
      "type": "constructor"
    },
    {
      "anonymous": false,
      "inputs": [
        {
          "indexed": true,
          "internalType": "address",
          "name": "owner",
          "type": "address"
        },
        {
          "indexed": true,
          "internalType": "address",
          "name": "approved",
          "type": "address"
        },
        {
          "indexed": true,
          "internalType": "uint256",
          "name": "tokenId",
          "type": "uint256"
        }
      ],
      "name": "Approval",
      "type": "event"
    },
    {
      "anonymous": false,
      "inputs": [
        {
          "indexed": true,
          "internalType": "address",
          "name": "owner",
          "type": "address"
        },
        {
          "indexed": true,
          "internalType": "address",
          "name": "operator",
          "type": "address"
        },
        {
          "indexed": false,
          "internalType": "bool",
          "name": "approved",
          "type": "bool"
        }
      ],
      "name": "ApprovalForAll",
      "type": "event"
    },
    {
      "anonymous": false,
      "inputs": [
        {
          "indexed": true,
          "internalType": "address",
          "name": "previousOwner",
          "type": "address"
        },
        {
          "indexed": true,
          "internalType": "address",
          "name": "newOwner",
          "type": "address"
        }
      ],
      "name": "OwnershipTransferred",
      "type": "event"
    },
    {
      "anonymous": false,
      "inputs": [
        {
          "indexed": true,
          "internalType": "address",
          "name": "from",
          "type": "address"
        },
        {
          "indexed": true,
          "internalType": "address",
          "name": "to",
          "type": "address"
        },
        {
          "indexed": true,
          "internalType": "uint256",
          "name": "tokenId",
          "type": "uint256"
        }
      ],
      "name": "Transfer",
      "type": "event"
    },
    {
      "inputs": [],
      "name": "MAX_PRE_SALE_MINTS",
      "outputs": [
        {
          "internalType": "uint256",
          "name": "",
          "type": "uint256"
        }
      ],
      "stateMutability": "view",
      "type": "function"
    },
    {
      "inputs": [],
      "name": "MAX_PUBLIC_SALE_MINTS",
      "outputs": [
        {
          "internalType": "uint256",
          "name": "",
          "type": "uint256"
        }
      ],
      "stateMutability": "view",
      "type": "function"
    },
    {
      "inputs": [],
      "name": "MAX_RESERVE_TOKENS",
      "outputs": [
        {
          "internalType": "uint256",
          "name": "",
          "type": "uint256"
        }
      ],
      "stateMutability": "view",
      "type": "function"
    },
    {
      "inputs": [],
      "name": "MAX_TOKENS_PER_WALLET",
      "outputs": [
        {
          "internalType": "uint256",
          "name": "",
          "type": "uint256"
        }
      ],
      "stateMutability": "view",
      "type": "function"
    },
    {
      "inputs": [],
      "name": "MAX_TOTAL_SUPPLY",
      "outputs": [
        {
          "internalType": "uint256",
          "name": "",
          "type": "uint256"
        }
      ],
      "stateMutability": "view",
      "type": "function"
    },
    {
      "inputs": [],
      "name": "PRE_SALE_PRICE",
      "outputs": [
        {
          "internalType": "uint256",
          "name": "",
          "type": "uint256"
        }
      ],
      "stateMutability": "view",
      "type": "function"
    },
    {
      "inputs": [],
      "name": "PUBLIC_SALE_PRICE",
      "outputs": [
        {
          "internalType": "uint256",
          "name": "",
          "type": "uint256"
        }
      ],
      "stateMutability": "view",
      "type": "function"
    },
    {
      "inputs": [],
      "name": "ROYALTY_PERCENTAGE",
      "outputs": [
        {
          "internalType": "uint256",
          "name": "",
          "type": "uint256"
        }
      ],
      "stateMutability": "view",
      "type": "function"
    },
    {
      "inputs": [
        {
          "internalType": "address",
          "name": "to",
          "type": "address"
        },
        {
          "internalType": "uint256",
          "name": "tokenId",
          "type": "uint256"
        }
      ],
      "name": "approve",
      "outputs": [],
      "stateMutability": "nonpayable",
      "type": "function"
    },
    {
      "inputs": [
        {
          "internalType": "address",
          "name": "owner",
          "type": "address"
        }
      ],
      "name": "balanceOf",
      "outputs": [
        {
          "internalType": "uint256",
          "name": "",
          "type": "uint256"
        }
      ],
      "stateMutability": "view",
      "type": "function"
    },
    {
      "inputs": [],
      "name": "contractURI",
      "outputs": [
        {
          "internalType": "string",
          "name": "",
          "type": "string"
        }
      ],
      "stateMutability": "view",
      "type": "function"
    },
    {
      "inputs": [
        {
          "internalType": "uint256",
          "name": "tokenId",
          "type": "uint256"
        }
      ],
      "name": "getApproved",
      "outputs": [
        {
          "internalType": "address",
          "name": "",
          "type": "address"
        }
      ],
      "stateMutability": "view",
      "type": "function"
    },
    {
      "inputs": [],
      "name": "getBaseURI",
      "outputs": [
        {
          "internalType": "string",
          "name": "",
          "type": "string"
        }
      ],
      "stateMutability": "view",
      "type": "function"
    },
    {
      "inputs": [],
      "name": "getContractURI",
      "outputs": [
        {
          "internalType": "string",
          "name": "",
          "type": "string"
        }
      ],
      "stateMutability": "view",
      "type": "function"
    },
    {
      "inputs": [],
      "name": "getLastTokenId",
      "outputs": [
        {
          "internalType": "uint256",
          "name": "",
          "type": "uint256"
        }
      ],
      "stateMutability": "view",
      "type": "function"
    },
    {
      "inputs": [
        {
          "internalType": "address[]",
          "name": "addresses",
          "type": "address[]"
        }
      ],
      "name": "giftTokens",
      "outputs": [],
      "stateMutability": "nonpayable",
      "type": "function"
    },
    {
      "inputs": [
        {
          "internalType": "address",
          "name": "owner",
          "type": "address"
        },
        {
          "internalType": "address",
          "name": "operator",
          "type": "address"
        }
      ],
      "name": "isApprovedForAll",
      "outputs": [
        {
          "internalType": "bool",
          "name": "",
          "type": "bool"
        }
      ],
      "stateMutability": "view",
      "type": "function"
    },
    {
      "inputs": [
        {
          "internalType": "uint8",
          "name": "numberOfTokens",
          "type": "uint8"
        },
        {
          "internalType": "bytes32[]",
          "name": "merkleProof",
          "type": "bytes32[]"
        }
      ],
      "name": "mintPreSale",
      "outputs": [],
      "stateMutability": "payable",
      "type": "function"
    },
    {
      "inputs": [
        {
          "internalType": "uint256",
          "name": "numberOfTokens",
          "type": "uint256"
        }
      ],
      "name": "mintPublicSale",
      "outputs": [],
      "stateMutability": "payable",
      "type": "function"
    },
    {
      "inputs": [],
      "name": "name",
      "outputs": [
        {
          "internalType": "string",
          "name": "",
          "type": "string"
        }
      ],
      "stateMutability": "view",
      "type": "function"
    },
    {
      "inputs": [],
      "name": "numReservedTokens",
      "outputs": [
        {
          "internalType": "uint256",
          "name": "",
          "type": "uint256"
        }
      ],
      "stateMutability": "view",
      "type": "function"
    },
    {
      "inputs": [],
      "name": "owner",
      "outputs": [
        {
          "internalType": "address",
          "name": "",
          "type": "address"
        }
      ],
      "stateMutability": "view",
      "type": "function"
    },
    {
      "inputs": [
        {
          "internalType": "uint256",
          "name": "tokenId",
          "type": "uint256"
        }
      ],
      "name": "ownerOf",
      "outputs": [
        {
          "internalType": "address",
          "name": "",
          "type": "address"
        }
      ],
      "stateMutability": "view",
      "type": "function"
    },
    {
      "inputs": [],
      "name": "preSaleListMerkleRoot",
      "outputs": [
        {
          "internalType": "bytes32",
          "name": "",
          "type": "bytes32"
        }
      ],
      "stateMutability": "view",
      "type": "function"
    },
    {
      "inputs": [
        {
          "internalType": "address",
          "name": "",
          "type": "address"
        }
      ],
      "name": "preSaleMintCounts",
      "outputs": [
        {
          "internalType": "uint256",
          "name": "",
          "type": "uint256"
        }
      ],
      "stateMutability": "view",
      "type": "function"
    },
    {
      "inputs": [],
      "name": "renounceOwnership",
      "outputs": [],
      "stateMutability": "nonpayable",
      "type": "function"
    },
    {
      "inputs": [
        {
          "internalType": "uint256",
          "name": "numToReserve",
          "type": "uint256"
        }
      ],
      "name": "reserveTokens",
      "outputs": [],
      "stateMutability": "nonpayable",
      "type": "function"
    },
    {
      "inputs": [
        {
          "internalType": "uint256",
          "name": "tokenId",
          "type": "uint256"
        },
        {
          "internalType": "uint256",
          "name": "salePrice",
          "type": "uint256"
        }
      ],
      "name": "royaltyInfo",
      "outputs": [
        {
          "internalType": "address",
          "name": "receiver",
          "type": "address"
        },
        {
          "internalType": "uint256",
          "name": "royaltyAmount",
          "type": "uint256"
        }
      ],
      "stateMutability": "view",
      "type": "function"
    },
    {
      "inputs": [],
      "name": "royaltyReceiverAddress",
      "outputs": [
        {
          "internalType": "address",
          "name": "",
          "type": "address"
        }
      ],
      "stateMutability": "view",
      "type": "function"
    },
    {
      "inputs": [
        {
          "internalType": "address",
          "name": "from",
          "type": "address"
        },
        {
          "internalType": "address",
          "name": "to",
          "type": "address"
        },
        {
          "internalType": "uint256",
          "name": "tokenId",
          "type": "uint256"
        }
      ],
      "name": "safeTransferFrom",
      "outputs": [],
      "stateMutability": "nonpayable",
      "type": "function"
    },
    {
      "inputs": [
        {
          "internalType": "address",
          "name": "from",
          "type": "address"
        },
        {
          "internalType": "address",
          "name": "to",
          "type": "address"
        },
        {
          "internalType": "uint256",
          "name": "tokenId",
          "type": "uint256"
        },
        {
          "internalType": "bytes",
          "name": "_data",
          "type": "bytes"
        }
      ],
      "name": "safeTransferFrom",
      "outputs": [],
      "stateMutability": "nonpayable",
      "type": "function"
    },
    {
      "inputs": [],
      "name": "saleState",
      "outputs": [
        {
          "internalType": "enum MyNFT.SaleState",
          "name": "",
          "type": "uint8"
        }
      ],
      "stateMutability": "view",
      "type": "function"
    },
    {
      "inputs": [
        {
          "internalType": "address",
          "name": "operator",
          "type": "address"
        },
        {
          "internalType": "bool",
          "name": "approved",
          "type": "bool"
        }
      ],
      "name": "setApprovalForAll",
      "outputs": [],
      "stateMutability": "nonpayable",
      "type": "function"
    },
    {
      "inputs": [
        {
          "internalType": "string",
          "name": "_baseURI",
          "type": "string"
        }
      ],
      "name": "setBaseURI",
      "outputs": [],
      "stateMutability": "nonpayable",
      "type": "function"
    },
    {
      "inputs": [
        {
          "internalType": "string",
          "name": "_collectionURI",
          "type": "string"
        }
      ],
      "name": "setCollectionURI",
      "outputs": [],
      "stateMutability": "nonpayable",
      "type": "function"
    },
    {
      "inputs": [],
      "name": "setPreSaleActive",
      "outputs": [],
      "stateMutability": "nonpayable",
      "type": "function"
    },
    {
      "inputs": [
        {
          "internalType": "bytes32",
          "name": "merkleRoot",
          "type": "bytes32"
        }
      ],
      "name": "setPreSaleListMerkleRoot",
      "outputs": [],
      "stateMutability": "nonpayable",
      "type": "function"
    },
    {
      "inputs": [],
      "name": "setPublicSaleActive",
      "outputs": [],
      "stateMutability": "nonpayable",
      "type": "function"
    },
    {
      "inputs": [
        {
          "internalType": "address",
          "name": "_royaltyReceiverAddress",
          "type": "address"
        }
      ],
      "name": "setRoyaltyReceiverAddress",
      "outputs": [],
      "stateMutability": "nonpayable",
      "type": "function"
    },
    {
      "inputs": [],
      "name": "setSaleInactive",
      "outputs": [],
      "stateMutability": "nonpayable",
      "type": "function"
    },
    {
      "inputs": [
        {
          "internalType": "bytes4",
          "name": "interfaceId",
          "type": "bytes4"
        }
      ],
      "name": "supportsInterface",
      "outputs": [
        {
          "internalType": "bool",
          "name": "",
          "type": "bool"
        }
      ],
      "stateMutability": "view",
      "type": "function"
    },
    {
      "inputs": [],
      "name": "symbol",
      "outputs": [
        {
          "internalType": "string",
          "name": "",
          "type": "string"
        }
      ],
      "stateMutability": "view",
      "type": "function"
    },
    {
      "inputs": [
        {
          "internalType": "uint256",
          "name": "tokenId",
          "type": "uint256"
        }
      ],
      "name": "tokenURI",
      "outputs": [
        {
          "internalType": "string",
          "name": "",
          "type": "string"
        }
      ],
      "stateMutability": "view",
      "type": "function"
    },
    {
      "inputs": [
        {
          "internalType": "address",
          "name": "from",
          "type": "address"
        },
        {
          "internalType": "address",
          "name": "to",
          "type": "address"
        },
        {
          "internalType": "uint256",
          "name": "tokenId",
          "type": "uint256"
        }
      ],
      "name": "transferFrom",
      "outputs": [],
      "stateMutability": "nonpayable",
      "type": "function"
    },
    {
      "inputs": [
        {
          "internalType": "address",
          "name": "newOwner",
          "type": "address"
        }
      ],
      "name": "transferOwnership",
      "outputs": [],
      "stateMutability": "nonpayable",
      "type": "function"
    },
    {
      "inputs": [],
      "name": "withdraw",
      "outputs": [],
      "stateMutability": "nonpayable",
      "type": "function"
    },
    {
      "inputs": [
        {
          "internalType": "contract IERC20",
          "name": "token",
          "type": "address"
        }
      ],
      "name": "withdrawTokens",
      "outputs": [],
      "stateMutability": "nonpayable",
      "type": "function"
    },
    {
      "stateMutability": "payable",
      "type": "receive"
    }
  ],
  "bytecode": "0x60806040526000600e60006101000a81548160ff0219169083600281111562000051577f4e487b7100000000000000000000000000000000000000000000000000000000600052602160045260246000fd5b02179055503480156200006357600080fd5b50604051620058b4380380620058b48339818101604052810190620000899190620003a1565b6040518060400160405280601181526020017f4d79204e465420436f6c6c656374696f6e0000000000000000000000000000008152506040518060400160405280600581526020017f4d594e465400000000000000000000000000000000000000000000000000000081525081600090805190602001906200010d929190620002da565b50806001908051906020019062000126929190620002da565b505050620001496200013d6200020c60201b60201c565b6200021460201b60201c565b600160078190555080600e60016101000a81548173ffffffffffffffffffffffffffffffffffffffff021916908373ffffffffffffffffffffffffffffffffffffffff160217905550600360051015620001cc577f4e487b7100000000000000000000000000000000000000000000000000000000600052600160045260246000fd5b600580101562000205577f4e487b7100000000000000000000000000000000000000000000000000000000600052600160045260246000fd5b5062000480565b600033905090565b6000600660009054906101000a900473ffffffffffffffffffffffffffffffffffffffff16905081600660006101000a81548173ffffffffffffffffffffffffffffffffffffffff021916908373ffffffffffffffffffffffffffffffffffffffff1602179055508173ffffffffffffffffffffffffffffffffffffffff168173ffffffffffffffffffffffffffffffffffffffff167f8be0079c531659141344cd1fd0a4f28419497f9722a3daafe3b4186f6b6457e060405160405180910390a35050565b828054620002e89062000401565b90600052602060002090601f0160209004810192826200030c576000855562000358565b82601f106200032757805160ff191683800117855562000358565b8280016001018555821562000358579182015b82811115620003575782518255916020019190600101906200033a565b5b5090506200036791906200036b565b5090565b5b80821115620003865760008160009055506001016200036c565b5090565b6000815190506200039b8162000466565b92915050565b600060208284031215620003b457600080fd5b6000620003c4848285016200038a565b91505092915050565b6000620003da82620003e1565b9050919050565b600073ffffffffffffffffffffffffffffffffffffffff82169050919050565b600060028204905060018216806200041a57607f821691505b6020821081141562000431576200043062000437565b5b50919050565b7f4e487b7100000000000000000000000000000000000000000000000000000000600052602260045260246000fd5b6200047181620003cd565b81146200047d57600080fd5b50565b61542480620004906000396000f3fe60806040526004361061028c5760003560e01c8063603f4d521161015a578063a22cb465116100c1578063d1bdb1d11161007a578063d1bdb1d114610960578063dc7eda7d1461098b578063e8a3d485146109b6578063e985e9c5146109e1578063f2fde38b14610a1e578063fbf62c0614610a4757610293565b8063a22cb46514610863578063a8b3a5271461088c578063af42d82d146108a8578063b88d4fde146108d1578063c87b56dd146108fa578063d031370b1461093757610293565b806383c4c00d1161011357806383c4c00d146107515780638a8fe8191461077c5780638b4f8463146107b95780638da5cb5b146107e257806395d89b411461080d5780639dd85f171461083857610293565b8063603f4d521461063f5780636352211e1461066a57806363ff5e17146106a757806370a08231146106d2578063714c53981461070f578063715018a61461073a57610293565b80632a55205a116101fe578063440754d8116101b7578063440754d814610552578063463b08db1461057b57806349df728c146105a6578063508881c1146105cf57806355f804b3146105fa5780635a5e5d581461062357610293565b80632a55205a1461046757806333039d3d146104a557806337929eb4146104d05780633ccfd60b146104fb5780633e11ab3f1461051257806342842e0e1461052957610293565b80630cd6fba9116102505780630cd6fba91461039157806311e3dbca146103a8578063193402bb146103d357806320fe418a146103fe57806323b872dd146104155780632639f4601461043e57610293565b806301ffc9a71461029857806306fdde03146102d557806307e89ec014610300578063081812fc1461032b578063095ea7b31461036857610293565b3661029357005b600080fd5b3480156102a457600080fd5b506102bf60048036038101906102ba9190613bb4565b610a72565b6040516102cc91906143b6565b60405180910390f35b3480156102e157600080fd5b506102ea610aec565b6040516102f79190614407565b60405180910390f35b34801561030c57600080fd5b50610315610b7e565b6040516103229190614789565b60405180910390f35b34801561033757600080fd5b50610352600480360381019061034d9190613c70565b610b89565b60405161035f9190614326565b60405180910390f35b34801561037457600080fd5b5061038f600480360381019061038a9190613ae1565b610c0e565b005b34801561039d57600080fd5b506103a6610d26565b005b3480156103b457600080fd5b506103bd610df5565b6040516103ca9190614789565b60405180910390f35b3480156103df57600080fd5b506103e8610dfb565b6040516103f59190614789565b60405180910390f35b34801561040a57600080fd5b50610413610e06565b005b34801561042157600080fd5b5061043c600480360381019061043791906139db565b610ed5565b005b34801561044a57600080fd5b5061046560048036038101906104609190613c2f565b610f35565b005b34801561047357600080fd5b5061048e60048036038101906104899190613cc2565b610fcb565b60405161049c92919061438d565b60405180910390f35b3480156104b157600080fd5b506104ba611059565b6040516104c79190614789565b60405180910390f35b3480156104dc57600080fd5b506104e561105f565b6040516104f29190614407565b60405180910390f35b34801561050757600080fd5b506105106110f1565b005b34801561051e57600080fd5b506105276111bc565b005b34801561053557600080fd5b50610550600480360381019061054b91906139db565b61128b565b005b34801561055e57600080fd5b5061057960048036038101906105749190613b1d565b6112ab565b005b34801561058757600080fd5b506105906114cf565b60405161059d9190614789565b60405180910390f35b3480156105b257600080fd5b506105cd60048036038101906105c89190613c06565b6114d4565b005b3480156105db57600080fd5b506105e461166f565b6040516105f19190614789565b60405180910390f35b34801561060657600080fd5b50610621600480360381019061061c9190613c2f565b611674565b005b61063d60048036038101906106389190613c70565b61170a565b005b34801561064b57600080fd5b506106546119bd565b60405161066191906143ec565b60405180910390f35b34801561067657600080fd5b50610691600480360381019061068c9190613c70565b6119d0565b60405161069e9190614326565b60405180910390f35b3480156106b357600080fd5b506106bc611a82565b6040516106c99190614789565b60405180910390f35b3480156106de57600080fd5b506106f960048036038101906106f49190613976565b611a87565b6040516107069190614789565b60405180910390f35b34801561071b57600080fd5b50610724611b3f565b6040516107319190614407565b60405180910390f35b34801561074657600080fd5b5061074f611bd1565b005b34801561075d57600080fd5b50610766611c59565b6040516107739190614789565b60405180910390f35b34801561078857600080fd5b506107a3600480360381019061079e9190613976565b611c6a565b6040516107b09190614789565b60405180910390f35b3480156107c557600080fd5b506107e060048036038101906107db9190613976565b611c82565b005b3480156107ee57600080fd5b506107f7611d42565b6040516108049190614326565b60405180910390f35b34801561081957600080fd5b50610822611d6c565b60405161082f9190614407565b60405180910390f35b34801561084457600080fd5b5061084d611dfe565b60405161085a9190614789565b60405180910390f35b34801561086f57600080fd5b5061088a60048036038101906108859190613aa5565b611e03565b005b6108a660048036038101906108a19190613cfe565b611e19565b005b3480156108b457600080fd5b506108cf60048036038101906108ca9190613b8b565b6121db565b005b3480156108dd57600080fd5b506108f860048036038101906108f39190613a2a565b612261565b005b34801561090657600080fd5b50610921600480360381019061091c9190613c70565b6122c3565b60405161092e9190614407565b60405180910390f35b34801561094357600080fd5b5061095e60048036038101906109599190613c70565b61233f565b005b34801561096c57600080fd5b50610975612509565b6040516109829190614789565b60405180910390f35b34801561099757600080fd5b506109a061250e565b6040516109ad9190614326565b60405180910390f35b3480156109c257600080fd5b506109cb612534565b6040516109d89190614407565b60405180910390f35b3480156109ed57600080fd5b50610a086004803603810190610a03919061399f565b6125c6565b604051610a1591906143b6565b60405180910390f35b348015610a2a57600080fd5b50610a456004803603810190610a409190613976565b61265a565b005b348015610a5357600080fd5b50610a5c612752565b604051610a6991906143d1565b60405180910390f35b60007f2a55205a000000000000000000000000000000000000000000000000000000007bffffffffffffffffffffffffffffffffffffffffffffffffffffffff1916827bffffffffffffffffffffffffffffffffffffffffffffffffffffffff19161480610ae55750610ae482612758565b5b9050919050565b606060008054610afb90614a9c565b80601f0160208091040260200160405190810160405280929190818152602001828054610b2790614a9c565b8015610b745780601f10610b4957610100808354040283529160200191610b74565b820191906000526020600020905b815481529060010190602001808311610b5757829003601f168201915b5050505050905090565b66470de4df82000081565b6000610b948261283a565b610bd3576040517f08c379a0000000000000000000000000000000000000000000000000000000008152600401610bca90614629565b60405180910390fd5b6004600083815260200190815260200160002060009054906101000a900473ffffffffffffffffffffffffffffffffffffffff169050919050565b6000610c19826119d0565b90508073ffffffffffffffffffffffffffffffffffffffff168373ffffffffffffffffffffffffffffffffffffffff161415610c8a576040517f08c379a0000000000000000000000000000000000000000000000000000000008152600401610c81906146a9565b60405180910390fd5b8073ffffffffffffffffffffffffffffffffffffffff16610ca96128a6565b73ffffffffffffffffffffffffffffffffffffffff161480610cd85750610cd781610cd26128a6565b6125c6565b5b610d17576040517f08c379a0000000000000000000000000000000000000000000000000000000008152600401610d0e90614569565b60405180910390fd5b610d2183836128ae565b505050565b610d2e6128a6565b73ffffffffffffffffffffffffffffffffffffffff16610d4c611d42565b73ffffffffffffffffffffffffffffffffffffffff1614610da2576040517f08c379a0000000000000000000000000000000000000000000000000000000008152600401610d9990614669565b60405180910390fd5b6000600e60006101000a81548160ff02191690836002811115610dee577f4e487b7100000000000000000000000000000000000000000000000000000000600052602160045260246000fd5b0217905550565b600b5481565b662386f26fc1000081565b610e0e6128a6565b73ffffffffffffffffffffffffffffffffffffffff16610e2c611d42565b73ffffffffffffffffffffffffffffffffffffffff1614610e82576040517f08c379a0000000000000000000000000000000000000000000000000000000008152600401610e7990614669565b60405180910390fd5b6001600e60006101000a81548160ff02191690836002811115610ece577f4e487b7100000000000000000000000000000000000000000000000000000000600052602160045260246000fd5b0217905550565b610ee6610ee06128a6565b82612967565b610f25576040517f08c379a0000000000000000000000000000000000000000000000000000000008152600401610f1c906146c9565b60405180910390fd5b610f30838383612a45565b505050565b610f3d6128a6565b73ffffffffffffffffffffffffffffffffffffffff16610f5b611d42565b73ffffffffffffffffffffffffffffffffffffffff1614610fb1576040517f08c379a0000000000000000000000000000000000000000000000000000000008152600401610fa890614669565b60405180910390fd5b80600a9080519060200190610fc792919061369d565b5050565b600080610fd78461283a565b611016576040517f08c379a000000000000000000000000000000000000000000000000000000000815260040161100d90614589565b60405180910390fd5b600e60019054906101000a900473ffffffffffffffffffffffffffffffffffffffff1661104e611047856005612cac565b6064612cc2565b915091509250929050565b611f4081565b6060600a805461106e90614a9c565b80601f016020809104026020016040519081016040528092919081815260200182805461109a90614a9c565b80156110e75780601f106110bc576101008083540402835291602001916110e7565b820191906000526020600020905b8154815290600101906020018083116110ca57829003601f168201915b5050505050905090565b6110f96128a6565b73ffffffffffffffffffffffffffffffffffffffff16611117611d42565b73ffffffffffffffffffffffffffffffffffffffff161461116d576040517f08c379a000000000000000000000000000000000000000000000000000000000815260040161116490614669565b60405180910390fd5b60004790503373ffffffffffffffffffffffffffffffffffffffff166108fc829081150290604051600060405180830381858888f193505050501580156111b8573d6000803e3d6000fd5b5050565b6111c46128a6565b73ffffffffffffffffffffffffffffffffffffffff166111e2611d42565b73ffffffffffffffffffffffffffffffffffffffff1614611238576040517f08c379a000000000000000000000000000000000000000000000000000000000815260040161122f90614669565b60405180910390fd5b6002600e60006101000a81548160ff02191690836002811115611284577f4e487b7100000000000000000000000000000000000000000000000000000000600052602160045260246000fd5b0217905550565b6112a683838360405180602001604052806000815250612261565b505050565b600260075414156112f1576040517f08c379a00000000000000000000000000000000000000000000000000000000081526004016112e890614749565b60405180910390fd5b60026007819055506113016128a6565b73ffffffffffffffffffffffffffffffffffffffff1661131f611d42565b73ffffffffffffffffffffffffffffffffffffffff1614611375576040517f08c379a000000000000000000000000000000000000000000000000000000000815260040161136c90614669565b60405180910390fd5b8181905060c881600b546113899190614883565b11156113ca576040517f08c379a00000000000000000000000000000000000000000000000000000000081526004016113c190614729565b60405180910390fd5b611f40816113d86008612cd8565b6113e29190614883565b1115611423576040517f08c379a000000000000000000000000000000000000000000000000000000000815260040161141a90614529565b60405180910390fd5b600083839050905080600b600082825461143d9190614883565b9250508190555060005b818110156114c0576114ad85858381811061148b577f4e487b7100000000000000000000000000000000000000000000000000000000600052603260045260246000fd5b90506020020160208101906114a09190613976565b6114a8612ce6565b612d01565b80806114b890614aff565b915050611447565b50505060016007819055505050565b600581565b6114dc6128a6565b73ffffffffffffffffffffffffffffffffffffffff166114fa611d42565b73ffffffffffffffffffffffffffffffffffffffff1614611550576040517f08c379a000000000000000000000000000000000000000000000000000000000815260040161154790614669565b60405180910390fd5b60008173ffffffffffffffffffffffffffffffffffffffff166370a08231306040518263ffffffff1660e01b815260040161158b9190614326565b60206040518083038186803b1580156115a357600080fd5b505afa1580156115b7573d6000803e3d6000fd5b505050506040513d601f19601f820116820180604052508101906115db9190613c99565b90508173ffffffffffffffffffffffffffffffffffffffff1663a9059cbb33836040518363ffffffff1660e01b815260040161161892919061438d565b602060405180830381600087803b15801561163257600080fd5b505af1158015611646573d6000803e3d6000fd5b505050506040513d601f19601f8201168201806040525081019061166a9190613b62565b505050565b600581565b61167c6128a6565b73ffffffffffffffffffffffffffffffffffffffff1661169a611d42565b73ffffffffffffffffffffffffffffffffffffffff16146116f0576040517f08c379a00000000000000000000000000000000000000000000000000000000081526004016116e790614669565b60405180910390fd5b806009908051906020019061170692919061369d565b5050565b60026007541415611750576040517f08c379a000000000000000000000000000000000000000000000000000000000815260040161174790614749565b60405180910390fd5b6002600781905550600280811115611791577f4e487b7100000000000000000000000000000000000000000000000000000000600052602160045260246000fd5b600e60009054906101000a900460ff1660028111156117d9577f4e487b7100000000000000000000000000000000000000000000000000000000600052602160045260246000fd5b14611819576040517f08c379a000000000000000000000000000000000000000000000000000000000815260040161181090614769565b60405180910390fd5b66470de4df8200008134818361182f919061490a565b1461186f576040517f08c379a000000000000000000000000000000000000000000000000000000000815260040161186690614709565b60405180910390fd5b82600b5460c8611f406118829190614964565b61188c9190614883565b816118976008612cd8565b6118a19190614883565b11156118e2576040517f08c379a00000000000000000000000000000000000000000000000000000000081526004016118d990614529565b60405180910390fd5b836005816118ef33611a87565b6118f99190614883565b111561193a576040517f08c379a000000000000000000000000000000000000000000000000000000000815260040161193190614689565b60405180910390fd5b600585111561197e576040517f08c379a0000000000000000000000000000000000000000000000000000000008152600401611975906146e9565b60405180910390fd5b60005b858110156119ad5761199a33611995612ce6565b612d01565b80806119a590614aff565b915050611981565b5050505050600160078190555050565b600e60009054906101000a900460ff1681565b6000806002600084815260200190815260200160002060009054906101000a900473ffffffffffffffffffffffffffffffffffffffff169050600073ffffffffffffffffffffffffffffffffffffffff168173ffffffffffffffffffffffffffffffffffffffff161415611a79576040517f08c379a0000000000000000000000000000000000000000000000000000000008152600401611a70906145c9565b60405180910390fd5b80915050919050565b60c881565b60008073ffffffffffffffffffffffffffffffffffffffff168273ffffffffffffffffffffffffffffffffffffffff161415611af8576040517f08c379a0000000000000000000000000000000000000000000000000000000008152600401611aef906145a9565b60405180910390fd5b600360008373ffffffffffffffffffffffffffffffffffffffff1673ffffffffffffffffffffffffffffffffffffffff168152602001908152602001600020549050919050565b606060098054611b4e90614a9c565b80601f0160208091040260200160405190810160405280929190818152602001828054611b7a90614a9c565b8015611bc75780601f10611b9c57610100808354040283529160200191611bc7565b820191906000526020600020905b815481529060010190602001808311611baa57829003601f168201915b5050505050905090565b611bd96128a6565b73ffffffffffffffffffffffffffffffffffffffff16611bf7611d42565b73ffffffffffffffffffffffffffffffffffffffff1614611c4d576040517f08c379a0000000000000000000000000000000000000000000000000000000008152600401611c4490614669565b60405180910390fd5b611c576000612d1f565b565b6000611c656008612cd8565b905090565b600c6020528060005260406000206000915090505481565b611c8a6128a6565b73ffffffffffffffffffffffffffffffffffffffff16611ca8611d42565b73ffffffffffffffffffffffffffffffffffffffff1614611cfe576040517f08c379a0000000000000000000000000000000000000000000000000000000008152600401611cf590614669565b60405180910390fd5b80600e60016101000a81548173ffffffffffffffffffffffffffffffffffffffff021916908373ffffffffffffffffffffffffffffffffffffffff16021790555050565b6000600660009054906101000a900473ffffffffffffffffffffffffffffffffffffffff16905090565b606060018054611d7b90614a9c565b80601f0160208091040260200160405190810160405280929190818152602001828054611da790614a9c565b8015611df45780601f10611dc957610100808354040283529160200191611df4565b820191906000526020600020905b815481529060010190602001808311611dd757829003601f168201915b5050505050905090565b600381565b611e15611e0e6128a6565b8383612de5565b5050565b60026007541415611e5f576040517f08c379a0000000000000000000000000000000000000000000000000000000008152600401611e5690614749565b60405180910390fd5b600260078190555060016002811115611ea1577f4e487b7100000000000000000000000000000000000000000000000000000000600052602160045260246000fd5b600e60009054906101000a900460ff166002811115611ee9577f4e487b7100000000000000000000000000000000000000000000000000000000600052602160045260246000fd5b14611f29576040517f08c379a0000000000000000000000000000000000000000000000000000000008152600401611f2090614649565b60405180910390fd5b662386f26fc100008360ff16348183611f42919061490a565b14611f82576040517f08c379a0000000000000000000000000000000000000000000000000000000008152600401611f7990614709565b60405180910390fd5b8460ff16600b5460c8611f40611f989190614964565b611fa29190614883565b81611fad6008612cd8565b611fb79190614883565b1115611ff8576040517f08c379a0000000000000000000000000000000000000000000000000000000008152600401611fef90614529565b60405180910390fd5b848461206e828280806020026020016040519081016040528093929190818152602001838360200280828437600081840152601f19601f82011690508083019250505050505050600d543360405160200161205391906142d1565b60405160208183030381529060405280519060200120612f52565b6120ad576040517f08c379a00000000000000000000000000000000000000000000000000000000081526004016120a490614549565b60405180910390fd5b6000600c60003373ffffffffffffffffffffffffffffffffffffffff1673ffffffffffffffffffffffffffffffffffffffff16815260200190815260200160002054905060038960ff16826121029190614883565b1115612143576040517f08c379a000000000000000000000000000000000000000000000000000000000815260040161213a90614429565b60405180910390fd5b8860ff16816121529190614883565b600c60003373ffffffffffffffffffffffffffffffffffffffff1673ffffffffffffffffffffffffffffffffffffffff1681526020019081526020016000208190555060005b8960ff168110156121c7576121b4336121af612ce6565b612d01565b80806121bf90614aff565b915050612198565b505050505050506001600781905550505050565b6121e36128a6565b73ffffffffffffffffffffffffffffffffffffffff16612201611d42565b73ffffffffffffffffffffffffffffffffffffffff1614612257576040517f08c379a000000000000000000000000000000000000000000000000000000000815260040161224e90614669565b60405180910390fd5b80600d8190555050565b61227261226c6128a6565b83612967565b6122b1576040517f08c379a00000000000000000000000000000000000000000000000000000000081526004016122a8906146c9565b60405180910390fd5b6122bd84848484612f69565b50505050565b60606122ce8261283a565b61230d576040517f08c379a0000000000000000000000000000000000000000000000000000000008152600401612304906145e9565b60405180910390fd5b600961231883612fc5565b6040516020016123299291906142ec565b6040516020818303038152906040529050919050565b60026007541415612385576040517f08c379a000000000000000000000000000000000000000000000000000000000815260040161237c90614749565b60405180910390fd5b60026007819055506123956128a6565b73ffffffffffffffffffffffffffffffffffffffff166123b3611d42565b73ffffffffffffffffffffffffffffffffffffffff1614612409576040517f08c379a000000000000000000000000000000000000000000000000000000000815260040161240090614669565b60405180910390fd5b8060c881600b5461241a9190614883565b111561245b576040517f08c379a000000000000000000000000000000000000000000000000000000000815260040161245290614729565b60405180910390fd5b611f40816124696008612cd8565b6124739190614883565b11156124b4576040517f08c379a00000000000000000000000000000000000000000000000000000000081526004016124ab90614529565b60405180910390fd5b81600b60008282546124c69190614883565b9250508190555060005b828110156124fc576124e9336124e4612ce6565b612d01565b80806124f490614aff565b9150506124d0565b5050600160078190555050565b600581565b600e60019054906101000a900473ffffffffffffffffffffffffffffffffffffffff1681565b6060600a805461254390614a9c565b80601f016020809104026020016040519081016040528092919081815260200182805461256f90614a9c565b80156125bc5780601f10612591576101008083540402835291602001916125bc565b820191906000526020600020905b81548152906001019060200180831161259f57829003601f168201915b5050505050905090565b6000600560008473ffffffffffffffffffffffffffffffffffffffff1673ffffffffffffffffffffffffffffffffffffffff16815260200190815260200160002060008373ffffffffffffffffffffffffffffffffffffffff1673ffffffffffffffffffffffffffffffffffffffff16815260200190815260200160002060009054906101000a900460ff16905092915050565b6126626128a6565b73ffffffffffffffffffffffffffffffffffffffff16612680611d42565b73ffffffffffffffffffffffffffffffffffffffff16146126d6576040517f08c379a00000000000000000000000000000000000000000000000000000000081526004016126cd90614669565b60405180910390fd5b600073ffffffffffffffffffffffffffffffffffffffff168173ffffffffffffffffffffffffffffffffffffffff161415612746576040517f08c379a000000000000000000000000000000000000000000000000000000000815260040161273d90614469565b60405180910390fd5b61274f81612d1f565b50565b600d5481565b60007f80ac58cd000000000000000000000000000000000000000000000000000000007bffffffffffffffffffffffffffffffffffffffffffffffffffffffff1916827bffffffffffffffffffffffffffffffffffffffffffffffffffffffff1916148061282357507f5b5e139f000000000000000000000000000000000000000000000000000000007bffffffffffffffffffffffffffffffffffffffffffffffffffffffff1916827bffffffffffffffffffffffffffffffffffffffffffffffffffffffff1916145b80612833575061283282613172565b5b9050919050565b60008073ffffffffffffffffffffffffffffffffffffffff166002600084815260200190815260200160002060009054906101000a900473ffffffffffffffffffffffffffffffffffffffff1673ffffffffffffffffffffffffffffffffffffffff1614159050919050565b600033905090565b816004600083815260200190815260200160002060006101000a81548173ffffffffffffffffffffffffffffffffffffffff021916908373ffffffffffffffffffffffffffffffffffffffff160217905550808273ffffffffffffffffffffffffffffffffffffffff16612921836119d0565b73ffffffffffffffffffffffffffffffffffffffff167f8c5be1e5ebec7d5bd14f71427d1e84f3dd0314c0f7b2291e5b200ac8c7c3b92560405160405180910390a45050565b60006129728261283a565b6129b1576040517f08c379a00000000000000000000000000000000000000000000000000000000081526004016129a890614509565b60405180910390fd5b60006129bc836119d0565b90508073ffffffffffffffffffffffffffffffffffffffff168473ffffffffffffffffffffffffffffffffffffffff1614806129fe57506129fd81856125c6565b5b80612a3c57508373ffffffffffffffffffffffffffffffffffffffff16612a2484610b89565b73ffffffffffffffffffffffffffffffffffffffff16145b91505092915050565b8273ffffffffffffffffffffffffffffffffffffffff16612a65826119d0565b73ffffffffffffffffffffffffffffffffffffffff1614612abb576040517f08c379a0000000000000000000000000000000000000000000000000000000008152600401612ab290614489565b60405180910390fd5b600073ffffffffffffffffffffffffffffffffffffffff168273ffffffffffffffffffffffffffffffffffffffff161415612b2b576040517f08c379a0000000000000000000000000000000000000000000000000000000008152600401612b22906144c9565b60405180910390fd5b612b368383836131dc565b612b416000826128ae565b6001600360008573ffffffffffffffffffffffffffffffffffffffff1673ffffffffffffffffffffffffffffffffffffffff1681526020019081526020016000206000828254612b919190614964565b925050819055506001600360008473ffffffffffffffffffffffffffffffffffffffff1673ffffffffffffffffffffffffffffffffffffffff1681526020019081526020016000206000828254612be89190614883565b92505081905550816002600083815260200190815260200160002060006101000a81548173ffffffffffffffffffffffffffffffffffffffff021916908373ffffffffffffffffffffffffffffffffffffffff160217905550808273ffffffffffffffffffffffffffffffffffffffff168473ffffffffffffffffffffffffffffffffffffffff167fddf252ad1be2c89b69c2b068fc378daa952ba7f163c4a11628f55a4df523b3ef60405160405180910390a4612ca78383836131e1565b505050565b60008183612cba919061490a565b905092915050565b60008183612cd091906148d9565b905092915050565b600081600001549050919050565b6000612cf260086131e6565b612cfc6008612cd8565b905090565b612d1b8282604051806020016040528060008152506131fc565b5050565b6000600660009054906101000a900473ffffffffffffffffffffffffffffffffffffffff16905081600660006101000a81548173ffffffffffffffffffffffffffffffffffffffff021916908373ffffffffffffffffffffffffffffffffffffffff1602179055508173ffffffffffffffffffffffffffffffffffffffff168173ffffffffffffffffffffffffffffffffffffffff167f8be0079c531659141344cd1fd0a4f28419497f9722a3daafe3b4186f6b6457e060405160405180910390a35050565b8173ffffffffffffffffffffffffffffffffffffffff168373ffffffffffffffffffffffffffffffffffffffff161415612e54576040517f08c379a0000000000000000000000000000000000000000000000000000000008152600401612e4b906144e9565b60405180910390fd5b80600560008573ffffffffffffffffffffffffffffffffffffffff1673ffffffffffffffffffffffffffffffffffffffff16815260200190815260200160002060008473ffffffffffffffffffffffffffffffffffffffff1673ffffffffffffffffffffffffffffffffffffffff16815260200190815260200160002060006101000a81548160ff0219169083151502179055508173ffffffffffffffffffffffffffffffffffffffff168373ffffffffffffffffffffffffffffffffffffffff167f17307eab39ab6107e8899845ad3d59bd9653f200f220920489ca2b5937696c3183604051612f4591906143b6565b60405180910390a3505050565b600082612f5f8584613257565b1490509392505050565b612f74848484612a45565b612f80848484846132f2565b612fbf576040517f08c379a0000000000000000000000000000000000000000000000000000000008152600401612fb690614449565b60405180910390fd5b50505050565b6060600082141561300d576040518060400160405280600181526020017f3000000000000000000000000000000000000000000000000000000000000000815250905061316d565b600082905060005b6000821461303f57808061302890614aff565b915050600a8261303891906148d9565b9150613015565b60008167ffffffffffffffff811115613081577f4e487b7100000000000000000000000000000000000000000000000000000000600052604160045260246000fd5b6040519080825280601f01601f1916602001820160405280156130b35781602001600182028036833780820191505090505b5090505b60008514613166576001826130cc9190614964565b9150600a856130db9190614b6c565b60306130e79190614883565b60f81b818381518110613123577f4e487b7100000000000000000000000000000000000000000000000000000000600052603260045260246000fd5b60200101907effffffffffffffffffffffffffffffffffffffffffffffffffffffffffffff1916908160001a905350600a8561315f91906148d9565b94506130b7565b8093505050505b919050565b60007f01ffc9a7000000000000000000000000000000000000000000000000000000007bffffffffffffffffffffffffffffffffffffffffffffffffffffffff1916827bffffffffffffffffffffffffffffffffffffffffffffffffffffffff1916149050919050565b505050565b505050565b6001816000016000828254019250508190555050565b6132068383613489565b61321360008484846132f2565b613252576040517f08c379a000000000000000000000000000000000000000000000000000000000815260040161324990614449565b60405180910390fd5b505050565b60008082905060005b84518110156132e75760008582815181106132a4577f4e487b7100000000000000000000000000000000000000000000000000000000600052603260045260246000fd5b602002602001015190508083116132c6576132bf8382613663565b92506132d3565b6132d08184613663565b92505b5080806132df90614aff565b915050613260565b508091505092915050565b60006133138473ffffffffffffffffffffffffffffffffffffffff1661367a565b1561347c578373ffffffffffffffffffffffffffffffffffffffff1663150b7a0261333c6128a6565b8786866040518563ffffffff1660e01b815260040161335e9493929190614341565b602060405180830381600087803b15801561337857600080fd5b505af19250505080156133a957506040513d601f19601f820116820180604052508101906133a69190613bdd565b60015b61342c573d80600081146133d9576040519150601f19603f3d011682016040523d82523d6000602084013e6133de565b606091505b50600081511415613424576040517f08c379a000000000000000000000000000000000000000000000000000000000815260040161341b90614449565b60405180910390fd5b805181602001fd5b63150b7a0260e01b7bffffffffffffffffffffffffffffffffffffffffffffffffffffffff1916817bffffffffffffffffffffffffffffffffffffffffffffffffffffffff191614915050613481565b600190505b949350505050565b600073ffffffffffffffffffffffffffffffffffffffff168273ffffffffffffffffffffffffffffffffffffffff1614156134f9576040517f08c379a00000000000000000000000000000000000000000000000000000000081526004016134f090614609565b60405180910390fd5b6135028161283a565b15613542576040517f08c379a0000000000000000000000000000000000000000000000000000000008152600401613539906144a9565b60405180910390fd5b61354e600083836131dc565b6001600360008473ffffffffffffffffffffffffffffffffffffffff1673ffffffffffffffffffffffffffffffffffffffff168152602001908152602001600020600082825461359e9190614883565b92505081905550816002600083815260200190815260200160002060006101000a81548173ffffffffffffffffffffffffffffffffffffffff021916908373ffffffffffffffffffffffffffffffffffffffff160217905550808273ffffffffffffffffffffffffffffffffffffffff16600073ffffffffffffffffffffffffffffffffffffffff167fddf252ad1be2c89b69c2b068fc378daa952ba7f163c4a11628f55a4df523b3ef60405160405180910390a461365f600083836131e1565b5050565b600082600052816020526040600020905092915050565b6000808273ffffffffffffffffffffffffffffffffffffffff163b119050919050565b8280546136a990614a9c565b90600052602060002090601f0160209004810192826136cb5760008555613712565b82601f106136e457805160ff1916838001178555613712565b82800160010185558215613712579182015b828111156137115782518255916020019190600101906136f6565b5b50905061371f9190613723565b5090565b5b8082111561373c576000816000905550600101613724565b5090565b600061375361374e846147c9565b6147a4565b90508281526020810184848401111561376b57600080fd5b613776848285614a5a565b509392505050565b600061379161378c846147fa565b6147a4565b9050828152602081018484840111156137a957600080fd5b6137b4848285614a5a565b509392505050565b6000813590506137cb8161534d565b92915050565b60008083601f8401126137e357600080fd5b8235905067ffffffffffffffff8111156137fc57600080fd5b60208301915083602082028301111561381457600080fd5b9250929050565b60008083601f84011261382d57600080fd5b8235905067ffffffffffffffff81111561384657600080fd5b60208301915083602082028301111561385e57600080fd5b9250929050565b60008135905061387481615364565b92915050565b60008151905061388981615364565b92915050565b60008135905061389e8161537b565b92915050565b6000813590506138b381615392565b92915050565b6000815190506138c881615392565b92915050565b600082601f8301126138df57600080fd5b81356138ef848260208601613740565b91505092915050565b600081359050613907816153a9565b92915050565b600082601f83011261391e57600080fd5b813561392e84826020860161377e565b91505092915050565b600081359050613946816153c0565b92915050565b60008151905061395b816153c0565b92915050565b600081359050613970816153d7565b92915050565b60006020828403121561398857600080fd5b6000613996848285016137bc565b91505092915050565b600080604083850312156139b257600080fd5b60006139c0858286016137bc565b92505060206139d1858286016137bc565b9150509250929050565b6000806000606084860312156139f057600080fd5b60006139fe868287016137bc565b9350506020613a0f868287016137bc565b9250506040613a2086828701613937565b9150509250925092565b60008060008060808587031215613a4057600080fd5b6000613a4e878288016137bc565b9450506020613a5f878288016137bc565b9350506040613a7087828801613937565b925050606085013567ffffffffffffffff811115613a8d57600080fd5b613a99878288016138ce565b91505092959194509250565b60008060408385031215613ab857600080fd5b6000613ac6858286016137bc565b9250506020613ad785828601613865565b9150509250929050565b60008060408385031215613af457600080fd5b6000613b02858286016137bc565b9250506020613b1385828601613937565b9150509250929050565b60008060208385031215613b3057600080fd5b600083013567ffffffffffffffff811115613b4a57600080fd5b613b56858286016137d1565b92509250509250929050565b600060208284031215613b7457600080fd5b6000613b828482850161387a565b91505092915050565b600060208284031215613b9d57600080fd5b6000613bab8482850161388f565b91505092915050565b600060208284031215613bc657600080fd5b6000613bd4848285016138a4565b91505092915050565b600060208284031215613bef57600080fd5b6000613bfd848285016138b9565b91505092915050565b600060208284031215613c1857600080fd5b6000613c26848285016138f8565b91505092915050565b600060208284031215613c4157600080fd5b600082013567ffffffffffffffff811115613c5b57600080fd5b613c678482850161390d565b91505092915050565b600060208284031215613c8257600080fd5b6000613c9084828501613937565b91505092915050565b600060208284031215613cab57600080fd5b6000613cb98482850161394c565b91505092915050565b60008060408385031215613cd557600080fd5b6000613ce385828601613937565b9250506020613cf485828601613937565b9150509250929050565b600080600060408486031215613d1357600080fd5b6000613d2186828701613961565b935050602084013567ffffffffffffffff811115613d3e57600080fd5b613d4a8682870161381b565b92509250509250925092565b613d5f81614998565b82525050565b613d76613d7182614998565b614b48565b82525050565b613d85816149aa565b82525050565b613d94816149b6565b82525050565b6000613da582614840565b613daf8185614856565b9350613dbf818560208601614a69565b613dc881614c88565b840191505092915050565b613ddc81614a48565b82525050565b6000613ded8261484b565b613df78185614867565b9350613e07818560208601614a69565b613e1081614c88565b840191505092915050565b6000613e268261484b565b613e308185614878565b9350613e40818560208601614a69565b80840191505092915050565b60008154613e5981614a9c565b613e638186614878565b94506001821660008114613e7e5760018114613e8f57613ec2565b60ff19831686528186019350613ec2565b613e988561482b565b60005b83811015613eba57815481890152600182019150602081019050613e9b565b838801955050505b50505092915050565b6000613ed8602483614867565b9150613ee382614ca6565b604082019050919050565b6000613efb603283614867565b9150613f0682614cf5565b604082019050919050565b6000613f1e602683614867565b9150613f2982614d44565b604082019050919050565b6000613f41602583614867565b9150613f4c82614d93565b604082019050919050565b6000613f64601c83614867565b9150613f6f82614de2565b602082019050919050565b6000613f87602483614867565b9150613f9282614e0b565b604082019050919050565b6000613faa601983614867565b9150613fb582614e5a565b602082019050919050565b6000613fcd602c83614867565b9150613fd882614e83565b604082019050919050565b6000613ff0601d83614867565b9150613ffb82614ed2565b602082019050919050565b6000614013601e83614867565b915061401e82614efb565b602082019050919050565b6000614036603883614867565b915061404182614f24565b604082019050919050565b6000614059601183614867565b915061406482614f73565b602082019050919050565b600061407c602a83614867565b915061408782614f9c565b604082019050919050565b600061409f602983614867565b91506140aa82614feb565b604082019050919050565b60006140c2601283614867565b91506140cd8261503a565b602082019050919050565b60006140e5602083614867565b91506140f082615063565b602082019050919050565b6000614108602c83614867565b91506141138261508c565b604082019050919050565b600061412b600583614878565b9150614136826150db565b600582019050919050565b600061414e601483614867565b915061415982615104565b602082019050919050565b6000614171602083614867565b915061417c8261512d565b602082019050919050565b6000614194601d83614867565b915061419f82615156565b602082019050919050565b60006141b7602183614867565b91506141c28261517f565b604082019050919050565b60006141da603183614867565b91506141e5826151ce565b604082019050919050565b60006141fd602283614867565b91506142088261521d565b604082019050919050565b6000614220601883614867565b915061422b8261526c565b602082019050919050565b6000614243601a83614867565b915061424e82615295565b602082019050919050565b6000614266601f83614867565b9150614271826152be565b602082019050919050565b6000614289601783614867565b9150614294826152e7565b602082019050919050565b60006142ac600183614878565b91506142b782615310565b600182019050919050565b6142cb81614a31565b82525050565b60006142dd8284613d65565b60148201915081905092915050565b60006142f88285613e4c565b91506143038261429f565b915061430f8284613e1b565b915061431a8261411e565b91508190509392505050565b600060208201905061433b6000830184613d56565b92915050565b60006080820190506143566000830187613d56565b6143636020830186613d56565b61437060408301856142c2565b81810360608301526143828184613d9a565b905095945050505050565b60006040820190506143a26000830185613d56565b6143af60208301846142c2565b9392505050565b60006020820190506143cb6000830184613d7c565b92915050565b60006020820190506143e66000830184613d8b565b92915050565b60006020820190506144016000830184613dd3565b92915050565b600060208201905081810360008301526144218184613de2565b905092915050565b6000602082019050818103600083015261444281613ecb565b9050919050565b6000602082019050818103600083015261446281613eee565b9050919050565b6000602082019050818103600083015261448281613f11565b9050919050565b600060208201905081810360008301526144a281613f34565b9050919050565b600060208201905081810360008301526144c281613f57565b9050919050565b600060208201905081810360008301526144e281613f7a565b9050919050565b6000602082019050818103600083015261450281613f9d565b9050919050565b6000602082019050818103600083015261452281613fc0565b9050919050565b6000602082019050818103600083015261454281613fe3565b9050919050565b6000602082019050818103600083015261456281614006565b9050919050565b6000602082019050818103600083015261458281614029565b9050919050565b600060208201905081810360008301526145a28161404c565b9050919050565b600060208201905081810360008301526145c28161406f565b9050919050565b600060208201905081810360008301526145e281614092565b9050919050565b60006020820190508181036000830152614602816140b5565b9050919050565b60006020820190508181036000830152614622816140d8565b9050919050565b60006020820190508181036000830152614642816140fb565b9050919050565b6000602082019050818103600083015261466281614141565b9050919050565b6000602082019050818103600083015261468281614164565b9050919050565b600060208201905081810360008301526146a281614187565b9050919050565b600060208201905081810360008301526146c2816141aa565b9050919050565b600060208201905081810360008301526146e2816141cd565b9050919050565b60006020820190508181036000830152614702816141f0565b9050919050565b6000602082019050818103600083015261472281614213565b9050919050565b6000602082019050818103600083015261474281614236565b9050919050565b6000602082019050818103600083015261476281614259565b9050919050565b600060208201905081810360008301526147828161427c565b9050919050565b600060208201905061479e60008301846142c2565b92915050565b60006147ae6147bf565b90506147ba8282614ace565b919050565b6000604051905090565b600067ffffffffffffffff8211156147e4576147e3614c59565b5b6147ed82614c88565b9050602081019050919050565b600067ffffffffffffffff82111561481557614814614c59565b5b61481e82614c88565b9050602081019050919050565b60008190508160005260206000209050919050565b600081519050919050565b600081519050919050565b600082825260208201905092915050565b600082825260208201905092915050565b600081905092915050565b600061488e82614a31565b915061489983614a31565b9250827fffffffffffffffffffffffffffffffffffffffffffffffffffffffffffffffff038211156148ce576148cd614b9d565b5b828201905092915050565b60006148e482614a31565b91506148ef83614a31565b9250826148ff576148fe614bcc565b5b828204905092915050565b600061491582614a31565b915061492083614a31565b9250817fffffffffffffffffffffffffffffffffffffffffffffffffffffffffffffffff048311821515161561495957614958614b9d565b5b828202905092915050565b600061496f82614a31565b915061497a83614a31565b92508282101561498d5761498c614b9d565b5b828203905092915050565b60006149a382614a11565b9050919050565b60008115159050919050565b6000819050919050565b60007fffffffff0000000000000000000000000000000000000000000000000000000082169050919050565b60006149f782614998565b9050919050565b6000819050614a0c82615339565b919050565b600073ffffffffffffffffffffffffffffffffffffffff82169050919050565b6000819050919050565b600060ff82169050919050565b6000614a53826149fe565b9050919050565b82818337600083830152505050565b60005b83811015614a87578082015181840152602081019050614a6c565b83811115614a96576000848401525b50505050565b60006002820490506001821680614ab457607f821691505b60208210811415614ac857614ac7614c2a565b5b50919050565b614ad782614c88565b810181811067ffffffffffffffff82111715614af657614af5614c59565b5b80604052505050565b6000614b0a82614a31565b91507fffffffffffffffffffffffffffffffffffffffffffffffffffffffffffffffff821415614b3d57614b3c614b9d565b5b600182019050919050565b6000614b5382614b5a565b9050919050565b6000614b6582614c99565b9050919050565b6000614b7782614a31565b9150614b8283614a31565b925082614b9257614b91614bcc565b5b828206905092915050565b7f4e487b7100000000000000000000000000000000000000000000000000000000600052601160045260246000fd5b7f4e487b7100000000000000000000000000000000000000000000000000000000600052601260045260246000fd5b7f4e487b7100000000000000000000000000000000000000000000000000000000600052602160045260246000fd5b7f4e487b7100000000000000000000000000000000000000000000000000000000600052602260045260246000fd5b7f4e487b7100000000000000000000000000000000000000000000000000000000600052604160045260246000fd5b6000601f19601f8301169050919050565b60008160601b9050919050565b7f45786365656473206d6178206e756d62657220666f72207072652073616c652060008201527f6d696e7400000000000000000000000000000000000000000000000000000000602082015250565b7f4552433732313a207472616e7366657220746f206e6f6e20455243373231526560008201527f63656976657220696d706c656d656e7465720000000000000000000000000000602082015250565b7f4f776e61626c653a206e6577206f776e657220697320746865207a65726f206160008201527f6464726573730000000000000000000000000000000000000000000000000000602082015250565b7f4552433732313a207472616e736665722066726f6d20696e636f72726563742060008201527f6f776e6572000000000000000000000000000000000000000000000000000000602082015250565b7f4552433732313a20746f6b656e20616c7265616479206d696e74656400000000600082015250565b7f4552433732313a207472616e7366657220746f20746865207a65726f2061646460008201527f7265737300000000000000000000000000000000000000000000000000000000602082015250565b7f4552433732313a20617070726f766520746f2063616c6c657200000000000000600082015250565b7f4552433732313a206f70657261746f7220717565727920666f72206e6f6e657860008201527f697374656e7420746f6b656e0000000000000000000000000000000000000000602082015250565b7f496e73756666696369656e7420746f6b656e732072656d61696e696e67000000600082015250565b7f4164647265737320646f6573206e6f7420657869737420696e206c6973740000600082015250565b7f4552433732313a20617070726f76652063616c6c6572206973206e6f74206f7760008201527f6e6572206e6f7220617070726f76656420666f7220616c6c0000000000000000602082015250565b7f4e6f6e6578697374656e7420746f6b656e000000000000000000000000000000600082015250565b7f4552433732313a2062616c616e636520717565727920666f7220746865207a6560008201527f726f206164647265737300000000000000000000000000000000000000000000602082015250565b7f4552433732313a206f776e657220717565727920666f72206e6f6e657869737460008201527f656e7420746f6b656e0000000000000000000000000000000000000000000000602082015250565b7f4e6f6e2d6578697374656e7420746f6b656e0000000000000000000000000000600082015250565b7f4552433732313a206d696e7420746f20746865207a65726f2061646472657373600082015250565b7f4552433732313a20617070726f76656420717565727920666f72206e6f6e657860008201527f697374656e7420746f6b656e0000000000000000000000000000000000000000602082015250565b7f2e6a736f6e000000000000000000000000000000000000000000000000000000600082015250565b7f5072652073616c65206973206e6f74206f70656e000000000000000000000000600082015250565b7f4f776e61626c653a2063616c6c6572206973206e6f7420746865206f776e6572600082015250565b7f45786365656473206d617820746f6b656e73207065722077616c6c6574000000600082015250565b7f4552433732313a20617070726f76616c20746f2063757272656e74206f776e6560008201527f7200000000000000000000000000000000000000000000000000000000000000602082015250565b7f4552433732313a207472616e736665722063616c6c6572206973206e6f74206f60008201527f776e6572206e6f7220617070726f766564000000000000000000000000000000602082015250565b7f45786365656473206d6178206e756d62657220666f72207075626c6963206d6960008201527f6e74000000000000000000000000000000000000000000000000000000000000602082015250565b7f496e636f7272656374204554482076616c75652073656e740000000000000000600082015250565b7f496e73756666696369656e7420746f6b656e2072657365727665000000000000600082015250565b7f5265656e7472616e637947756172643a207265656e7472616e742063616c6c00600082015250565b7f5075626c69632073616c65206973206e6f74206f70656e000000000000000000600082015250565b7f2f00000000000000000000000000000000000000000000000000000000000000600082015250565b6003811061534a57615349614bfb565b5b50565b61535681614998565b811461536157600080fd5b50565b61536d816149aa565b811461537857600080fd5b50565b615384816149b6565b811461538f57600080fd5b50565b61539b816149c0565b81146153a657600080fd5b50565b6153b2816149ec565b81146153bd57600080fd5b50565b6153c981614a31565b81146153d457600080fd5b50565b6153e081614a3b565b81146153eb57600080fd5b5056fea26469706673582212207d5643b2b533a1b6a790607baecbf320ac0da5b26136880442b81b44b9b0f45264736f6c63430008040033",
  "linkReferences": {},
  "deployedLinkReferences": {}
}