{
  "_format": "hh-sol-artifact-1",
  "contractName": "MyNFT",
  "sourceName": "contracts/nft.sol",
  "abi": [
    {
      "inputs": [
        {
          "internalType": "address",
          "name": "_royaltyReceiverAddress",
          "type": "address"
        }
      ],
      "stateMutability": "nonpayable",
      "type": "constructor"
    },
    {
      "anonymous": false,
      "inputs": [
        {
          "indexed": true,
          "internalType": "address",
          "name": "owner",
          "type": "address"
        },
        {
          "indexed": true,
          "internalType": "address",
          "name": "approved",
          "type": "address"
        },
        {
          "indexed": true,
          "internalType": "uint256",
          "name": "tokenId",
          "type": "uint256"
        }
      ],
      "name": "Approval",
      "type": "event"
    },
    {
      "anonymous": false,
      "inputs": [
        {
          "indexed": true,
          "internalType": "address",
          "name": "owner",
          "type": "address"
        },
        {
          "indexed": true,
          "internalType": "address",
          "name": "operator",
          "type": "address"
        },
        {
          "indexed": false,
          "internalType": "bool",
          "name": "approved",
          "type": "bool"
        }
      ],
      "name": "ApprovalForAll",
      "type": "event"
    },
    {
      "anonymous": false,
      "inputs": [
        {
          "indexed": true,
          "internalType": "address[]",
          "name": "addresses",
          "type": "address[]"
        }
      ],
      "name": "GiftTokens",
      "type": "event"
    },
    {
      "anonymous": false,
      "inputs": [
        {
          "indexed": true,
          "internalType": "address",
          "name": "minter",
          "type": "address"
        },
        {
          "indexed": true,
          "internalType": "uint256",
          "name": "tokens",
          "type": "uint256"
        }
      ],
      "name": "MintPreSale",
      "type": "event"
    },
    {
      "anonymous": false,
      "inputs": [
        {
          "indexed": true,
          "internalType": "address",
          "name": "minter",
          "type": "address"
        },
        {
          "indexed": true,
          "internalType": "uint256",
          "name": "tokens",
          "type": "uint256"
        }
      ],
      "name": "MintPublicSale",
      "type": "event"
    },
    {
      "anonymous": false,
      "inputs": [
        {
          "indexed": true,
          "internalType": "address",
          "name": "previousOwner",
          "type": "address"
        },
        {
          "indexed": true,
          "internalType": "address",
          "name": "newOwner",
          "type": "address"
        }
      ],
      "name": "OwnershipTransferred",
      "type": "event"
    },
    {
      "anonymous": false,
      "inputs": [
        {
          "indexed": true,
          "internalType": "uint256",
          "name": "tokens",
          "type": "uint256"
        }
      ],
      "name": "ReserveTokens",
      "type": "event"
    },
    {
      "anonymous": false,
      "inputs": [
        {
          "indexed": true,
          "internalType": "string",
          "name": "uri",
          "type": "string"
        }
      ],
      "name": "SetBaseURI",
      "type": "event"
    },
    {
      "anonymous": false,
      "inputs": [
        {
          "indexed": true,
          "internalType": "string",
          "name": "uri",
          "type": "string"
        }
      ],
      "name": "SetCollectionURI",
      "type": "event"
    },
    {
      "anonymous": false,
      "inputs": [
        {
          "indexed": true,
          "internalType": "bytes32",
          "name": "root",
          "type": "bytes32"
        }
      ],
      "name": "SetPreSaleMerkleRoot",
      "type": "event"
    },
    {
      "anonymous": false,
      "inputs": [
        {
          "indexed": true,
          "internalType": "address",
          "name": "_address",
          "type": "address"
        }
      ],
      "name": "SetRoyaltyReceiver",
      "type": "event"
    },
    {
      "anonymous": false,
      "inputs": [
        {
          "indexed": true,
          "internalType": "enum MyNFT.SaleState",
          "name": "state",
          "type": "uint8"
        }
      ],
      "name": "SetSaleState",
      "type": "event"
    },
    {
      "anonymous": false,
      "inputs": [
        {
          "indexed": true,
          "internalType": "address",
          "name": "from",
          "type": "address"
        },
        {
          "indexed": true,
          "internalType": "address",
          "name": "to",
          "type": "address"
        },
        {
          "indexed": true,
          "internalType": "uint256",
          "name": "tokenId",
          "type": "uint256"
        }
      ],
      "name": "Transfer",
      "type": "event"
    },
    {
      "anonymous": false,
      "inputs": [
        {
          "indexed": true,
          "internalType": "address",
          "name": "dest",
          "type": "address"
        }
      ],
      "name": "Withdraw",
      "type": "event"
    },
    {
      "anonymous": false,
      "inputs": [
        {
          "indexed": true,
          "internalType": "address",
          "name": "tokenAddress",
          "type": "address"
        },
        {
          "indexed": true,
          "internalType": "address",
          "name": "dest",
          "type": "address"
        }
      ],
      "name": "WithdrawToken",
      "type": "event"
    },
    {
      "inputs": [],
      "name": "MAX_PRE_SALE_MINTS",
      "outputs": [
        {
          "internalType": "uint256",
          "name": "",
          "type": "uint256"
        }
      ],
      "stateMutability": "view",
      "type": "function"
    },
    {
      "inputs": [],
      "name": "MAX_PUBLIC_SALE_MINTS",
      "outputs": [
        {
          "internalType": "uint256",
          "name": "",
          "type": "uint256"
        }
      ],
      "stateMutability": "view",
      "type": "function"
    },
    {
      "inputs": [],
      "name": "MAX_RESERVE_TOKENS",
      "outputs": [
        {
          "internalType": "uint256",
          "name": "",
          "type": "uint256"
        }
      ],
      "stateMutability": "view",
      "type": "function"
    },
    {
      "inputs": [],
      "name": "MAX_TOTAL_SUPPLY",
      "outputs": [
        {
          "internalType": "uint256",
          "name": "",
          "type": "uint256"
        }
      ],
      "stateMutability": "view",
      "type": "function"
    },
    {
      "inputs": [],
      "name": "PRE_SALE_PRICE",
      "outputs": [
        {
          "internalType": "uint256",
          "name": "",
          "type": "uint256"
        }
      ],
      "stateMutability": "view",
      "type": "function"
    },
    {
      "inputs": [],
      "name": "PUBLIC_SALE_PRICE",
      "outputs": [
        {
          "internalType": "uint256",
          "name": "",
          "type": "uint256"
        }
      ],
      "stateMutability": "view",
      "type": "function"
    },
    {
      "inputs": [],
      "name": "ROYALTY_PERCENTAGE",
      "outputs": [
        {
          "internalType": "uint256",
          "name": "",
          "type": "uint256"
        }
      ],
      "stateMutability": "view",
      "type": "function"
    },
    {
      "inputs": [
        {
          "internalType": "address",
          "name": "to",
          "type": "address"
        },
        {
          "internalType": "uint256",
          "name": "tokenId",
          "type": "uint256"
        }
      ],
      "name": "approve",
      "outputs": [],
      "stateMutability": "nonpayable",
      "type": "function"
    },
    {
      "inputs": [
        {
          "internalType": "address",
          "name": "owner",
          "type": "address"
        }
      ],
      "name": "balanceOf",
      "outputs": [
        {
          "internalType": "uint256",
          "name": "",
          "type": "uint256"
        }
      ],
      "stateMutability": "view",
      "type": "function"
    },
    {
      "inputs": [],
      "name": "contractURI",
      "outputs": [
        {
          "internalType": "string",
          "name": "",
          "type": "string"
        }
      ],
      "stateMutability": "view",
      "type": "function"
    },
    {
      "inputs": [
        {
          "internalType": "uint256",
          "name": "tokenId",
          "type": "uint256"
        }
      ],
      "name": "getApproved",
      "outputs": [
        {
          "internalType": "address",
          "name": "",
          "type": "address"
        }
      ],
      "stateMutability": "view",
      "type": "function"
    },
    {
      "inputs": [],
      "name": "getBaseURI",
      "outputs": [
        {
          "internalType": "string",
          "name": "",
          "type": "string"
        }
      ],
      "stateMutability": "view",
      "type": "function"
    },
    {
      "inputs": [],
      "name": "getLastTokenId",
      "outputs": [
        {
          "internalType": "uint256",
          "name": "",
          "type": "uint256"
        }
      ],
      "stateMutability": "view",
      "type": "function"
    },
    {
      "inputs": [
        {
          "internalType": "address[]",
          "name": "addresses",
          "type": "address[]"
        }
      ],
      "name": "giftTokens",
      "outputs": [],
      "stateMutability": "nonpayable",
      "type": "function"
    },
    {
      "inputs": [
        {
          "internalType": "address",
          "name": "owner",
          "type": "address"
        },
        {
          "internalType": "address",
          "name": "operator",
          "type": "address"
        }
      ],
      "name": "isApprovedForAll",
      "outputs": [
        {
          "internalType": "bool",
          "name": "",
          "type": "bool"
        }
      ],
      "stateMutability": "view",
      "type": "function"
    },
    {
      "inputs": [
        {
          "internalType": "uint256",
          "name": "numberOfTokens",
          "type": "uint256"
        },
        {
          "internalType": "bytes32[]",
          "name": "merkleProof",
          "type": "bytes32[]"
        }
      ],
      "name": "mintPreSale",
      "outputs": [],
      "stateMutability": "payable",
      "type": "function"
    },
    {
      "inputs": [
        {
          "internalType": "uint256",
          "name": "numberOfTokens",
          "type": "uint256"
        }
      ],
      "name": "mintPublicSale",
      "outputs": [],
      "stateMutability": "payable",
      "type": "function"
    },
    {
      "inputs": [],
      "name": "name",
      "outputs": [
        {
          "internalType": "string",
          "name": "",
          "type": "string"
        }
      ],
      "stateMutability": "view",
      "type": "function"
    },
    {
      "inputs": [],
      "name": "numReservedTokens",
      "outputs": [
        {
          "internalType": "uint256",
          "name": "",
          "type": "uint256"
        }
      ],
      "stateMutability": "view",
      "type": "function"
    },
    {
      "inputs": [],
      "name": "owner",
      "outputs": [
        {
          "internalType": "address",
          "name": "",
          "type": "address"
        }
      ],
      "stateMutability": "view",
      "type": "function"
    },
    {
      "inputs": [
        {
          "internalType": "uint256",
          "name": "tokenId",
          "type": "uint256"
        }
      ],
      "name": "ownerOf",
      "outputs": [
        {
          "internalType": "address",
          "name": "",
          "type": "address"
        }
      ],
      "stateMutability": "view",
      "type": "function"
    },
    {
      "inputs": [
        {
          "internalType": "address",
          "name": "",
          "type": "address"
        }
      ],
      "name": "preSaleMintCounts",
      "outputs": [
        {
          "internalType": "uint256",
          "name": "",
          "type": "uint256"
        }
      ],
      "stateMutability": "view",
      "type": "function"
    },
    {
      "inputs": [],
      "name": "provenanceHash",
      "outputs": [
        {
          "internalType": "string",
          "name": "",
          "type": "string"
        }
      ],
      "stateMutability": "view",
      "type": "function"
    },
    {
      "inputs": [],
      "name": "renounceOwnership",
      "outputs": [],
      "stateMutability": "nonpayable",
      "type": "function"
    },
    {
      "inputs": [
        {
          "internalType": "uint256",
          "name": "numberOfTokens",
          "type": "uint256"
        }
      ],
      "name": "reserveTokens",
      "outputs": [],
      "stateMutability": "nonpayable",
      "type": "function"
    },
    {
      "inputs": [
        {
          "internalType": "uint256",
          "name": "tokenId",
          "type": "uint256"
        },
        {
          "internalType": "uint256",
          "name": "salePrice",
          "type": "uint256"
        }
      ],
      "name": "royaltyInfo",
      "outputs": [
        {
          "internalType": "address",
          "name": "receiver",
          "type": "address"
        },
        {
          "internalType": "uint256",
          "name": "royaltyAmount",
          "type": "uint256"
        }
      ],
      "stateMutability": "view",
      "type": "function"
    },
    {
      "inputs": [],
      "name": "royaltyReceiverAddress",
      "outputs": [
        {
          "internalType": "address",
          "name": "",
          "type": "address"
        }
      ],
      "stateMutability": "view",
      "type": "function"
    },
    {
      "inputs": [
        {
          "internalType": "address",
          "name": "from",
          "type": "address"
        },
        {
          "internalType": "address",
          "name": "to",
          "type": "address"
        },
        {
          "internalType": "uint256",
          "name": "tokenId",
          "type": "uint256"
        }
      ],
      "name": "safeTransferFrom",
      "outputs": [],
      "stateMutability": "nonpayable",
      "type": "function"
    },
    {
      "inputs": [
        {
          "internalType": "address",
          "name": "from",
          "type": "address"
        },
        {
          "internalType": "address",
          "name": "to",
          "type": "address"
        },
        {
          "internalType": "uint256",
          "name": "tokenId",
          "type": "uint256"
        },
        {
          "internalType": "bytes",
          "name": "_data",
          "type": "bytes"
        }
      ],
      "name": "safeTransferFrom",
      "outputs": [],
      "stateMutability": "nonpayable",
      "type": "function"
    },
    {
      "inputs": [],
      "name": "saleState",
      "outputs": [
        {
          "internalType": "enum MyNFT.SaleState",
          "name": "",
          "type": "uint8"
        }
      ],
      "stateMutability": "view",
      "type": "function"
    },
    {
      "inputs": [
        {
          "internalType": "address",
          "name": "operator",
          "type": "address"
        },
        {
          "internalType": "bool",
          "name": "approved",
          "type": "bool"
        }
      ],
      "name": "setApprovalForAll",
      "outputs": [],
      "stateMutability": "nonpayable",
      "type": "function"
    },
    {
      "inputs": [
        {
          "internalType": "string",
          "name": "newbaseURI",
          "type": "string"
        }
      ],
      "name": "setBaseURI",
      "outputs": [],
      "stateMutability": "nonpayable",
      "type": "function"
    },
    {
      "inputs": [
        {
          "internalType": "string",
          "name": "_collectionURI",
          "type": "string"
        }
      ],
      "name": "setCollectionURI",
      "outputs": [],
      "stateMutability": "nonpayable",
      "type": "function"
    },
    {
      "inputs": [],
      "name": "setPreSaleActive",
      "outputs": [],
      "stateMutability": "nonpayable",
      "type": "function"
    },
    {
      "inputs": [
        {
          "internalType": "bytes32",
          "name": "merkleRoot",
          "type": "bytes32"
        }
      ],
      "name": "setPreSaleListMerkleRoot",
      "outputs": [],
      "stateMutability": "nonpayable",
      "type": "function"
    },
    {
      "inputs": [
        {
          "internalType": "string",
          "name": "_hash",
          "type": "string"
        }
      ],
      "name": "setProvenanceHash",
      "outputs": [],
      "stateMutability": "nonpayable",
      "type": "function"
    },
    {
      "inputs": [],
      "name": "setPublicSaleActive",
      "outputs": [],
      "stateMutability": "nonpayable",
      "type": "function"
    },
    {
      "inputs": [
        {
          "internalType": "address",
          "name": "_royaltyReceiverAddress",
          "type": "address"
        }
      ],
      "name": "setRoyaltyReceiverAddress",
      "outputs": [],
      "stateMutability": "nonpayable",
      "type": "function"
    },
    {
      "inputs": [],
      "name": "setSaleInactive",
      "outputs": [],
      "stateMutability": "nonpayable",
      "type": "function"
    },
    {
      "inputs": [
        {
          "internalType": "bytes4",
          "name": "interfaceId",
          "type": "bytes4"
        }
      ],
      "name": "supportsInterface",
      "outputs": [
        {
          "internalType": "bool",
          "name": "",
          "type": "bool"
        }
      ],
      "stateMutability": "view",
      "type": "function"
    },
    {
      "inputs": [],
      "name": "symbol",
      "outputs": [
        {
          "internalType": "string",
          "name": "",
          "type": "string"
        }
      ],
      "stateMutability": "view",
      "type": "function"
    },
    {
      "inputs": [
        {
          "internalType": "uint256",
          "name": "tokenId",
          "type": "uint256"
        }
      ],
      "name": "tokenURI",
      "outputs": [
        {
          "internalType": "string",
          "name": "",
          "type": "string"
        }
      ],
      "stateMutability": "view",
      "type": "function"
    },
    {
      "inputs": [
        {
          "internalType": "address",
          "name": "from",
          "type": "address"
        },
        {
          "internalType": "address",
          "name": "to",
          "type": "address"
        },
        {
          "internalType": "uint256",
          "name": "tokenId",
          "type": "uint256"
        }
      ],
      "name": "transferFrom",
      "outputs": [],
      "stateMutability": "nonpayable",
      "type": "function"
    },
    {
      "inputs": [
        {
          "internalType": "address",
          "name": "newOwner",
          "type": "address"
        }
      ],
      "name": "transferOwnership",
      "outputs": [],
      "stateMutability": "nonpayable",
      "type": "function"
    },
    {
      "inputs": [
        {
          "internalType": "address payable",
          "name": "_dest",
          "type": "address"
        }
      ],
      "name": "withdraw",
      "outputs": [],
      "stateMutability": "nonpayable",
      "type": "function"
    },
    {
      "inputs": [
        {
          "internalType": "address",
          "name": "_tokenAddress",
          "type": "address"
        },
        {
          "internalType": "address",
          "name": "_dest",
          "type": "address"
        }
      ],
      "name": "withdrawToken",
      "outputs": [],
      "stateMutability": "nonpayable",
      "type": "function"
    },
    {
      "stateMutability": "payable",
      "type": "receive"
    }
  ],
  "bytecode": "0x60806040526002600f60006101000a81548160ff0219169083600281111562000051577f4e487b7100000000000000000000000000000000000000000000000000000000600052602160045260246000fd5b02179055503480156200006357600080fd5b50604051620063843803806200638483398181016040528101906200008991906200032e565b6040518060400160405280601181526020017f4d79204e465420436f6c6c656374696f6e0000000000000000000000000000008152506040518060400160405280600581526020017f4d594e465400000000000000000000000000000000000000000000000000000081525081600090805190602001906200010d92919062000267565b5080600190805190602001906200012692919062000267565b505050620001496200013d6200019960201b60201c565b620001a160201b60201c565b600160078190555080600f60016101000a81548173ffffffffffffffffffffffffffffffffffffffff021916908373ffffffffffffffffffffffffffffffffffffffff160217905550506200040d565b600033905090565b6000600660009054906101000a900473ffffffffffffffffffffffffffffffffffffffff16905081600660006101000a81548173ffffffffffffffffffffffffffffffffffffffff021916908373ffffffffffffffffffffffffffffffffffffffff1602179055508173ffffffffffffffffffffffffffffffffffffffff168173ffffffffffffffffffffffffffffffffffffffff167f8be0079c531659141344cd1fd0a4f28419497f9722a3daafe3b4186f6b6457e060405160405180910390a35050565b82805462000275906200038e565b90600052602060002090601f016020900481019282620002995760008555620002e5565b82601f10620002b457805160ff1916838001178555620002e5565b82800160010185558215620002e5579182015b82811115620002e4578251825591602001919060010190620002c7565b5b509050620002f49190620002f8565b5090565b5b8082111562000313576000816000905550600101620002f9565b5090565b6000815190506200032881620003f3565b92915050565b6000602082840312156200034157600080fd5b6000620003518482850162000317565b91505092915050565b600062000367826200036e565b9050919050565b600073ffffffffffffffffffffffffffffffffffffffff82169050919050565b60006002820490506001821680620003a757607f821691505b60208210811415620003be57620003bd620003c4565b5b50919050565b7f4e487b7100000000000000000000000000000000000000000000000000000000600052602260045260246000fd5b620003fe816200035a565b81146200040a57600080fd5b50565b615f67806200041d6000396000f3fe6080604052600436106102815760003560e01c8063603f4d521161014f5780639dd85f17116100c1578063c87b56dd1161007a578063c87b56dd1461092a578063d031370b14610967578063dc7eda7d14610990578063e8a3d485146109bb578063e985e9c5146109e6578063f2fde38b14610a2357610288565b80639dd85f171461083d5780639e6b2c5b14610868578063a22cb46514610884578063af42d82d146108ad578063b88d4fde146108d6578063c6ab67a3146108ff57610288565b8063715018a611610113578063715018a61461073f57806383c4c00d146107565780638a8fe819146107815780638b4f8463146107be5780638da5cb5b146107e757806395d89b411461081257610288565b8063603f4d52146106445780636352211e1461066f57806363ff5e17146106ac57806370a08231146106d7578063714c53981461071457610288565b80632639f460116101f3578063440754d8116101ac578063440754d814610557578063463b08db14610580578063508881c1146105ab57806351cff8d9146105d657806355f804b3146105ff5780635a5e5d581461062857610288565b80632639f4601461045c5780632a55205a1461048557806333039d3d146104c35780633aeac4e1146104ee5780633e11ab3f1461051757806342842e0e1461052e57610288565b80630cd6fba9116102455780630cd6fba914610386578063109695231461039d57806311e3dbca146103c6578063193402bb146103f157806320fe418a1461041c57806323b872dd1461043357610288565b806301ffc9a71461028d57806306fdde03146102ca57806307e89ec0146102f5578063081812fc14610320578063095ea7b31461035d57610288565b3661028857005b600080fd5b34801561029957600080fd5b506102b460048036038101906102af91906143d8565b610a4c565b6040516102c19190614da7565b60405180910390f35b3480156102d657600080fd5b506102df610ac6565b6040516102ec9190614ddd565b60405180910390f35b34801561030157600080fd5b5061030a610b58565b60405161031791906151df565b60405180910390f35b34801561032c57600080fd5b50610347600480360381019061034291906144b0565b610b63565b6040516103549190614d17565b60405180910390f35b34801561036957600080fd5b50610384600480360381019061037f9190614305565b610be8565b005b34801561039257600080fd5b5061039b610d00565b005b3480156103a957600080fd5b506103c460048036038101906103bf919061442a565b610e35565b005b3480156103d257600080fd5b506103db610ec7565b6040516103e891906151df565b60405180910390f35b3480156103fd57600080fd5b50610406610ecd565b60405161041391906151df565b60405180910390f35b34801561042857600080fd5b50610431610ed8565b005b34801561043f57600080fd5b5061045a600480360381019061045591906141ff565b61100d565b005b34801561046857600080fd5b50610483600480360381019061047e919061446f565b61106d565b005b34801561049157600080fd5b506104ac60048036038101906104a7919061455a565b611145565b6040516104ba929190614d7e565b60405180910390f35b3480156104cf57600080fd5b506104d86111d9565b6040516104e591906151df565b60405180910390f35b3480156104fa57600080fd5b50610515600480360381019061051091906141c3565b6111de565b005b34801561052357600080fd5b5061052c611351565b005b34801561053a57600080fd5b50610555600480360381019061055091906141ff565b611485565b005b34801561056357600080fd5b5061057e60048036038101906105799190614341565b6114a5565b005b34801561058c57600080fd5b50610595611753565b6040516105a291906151df565b60405180910390f35b3480156105b757600080fd5b506105c0611758565b6040516105cd91906151df565b60405180910390f35b3480156105e257600080fd5b506105fd60048036038101906105f8919061419a565b61175d565b005b34801561060b57600080fd5b506106266004803603810190610621919061446f565b61184e565b005b610642600480360381019061063d91906144b0565b611926565b005b34801561065057600080fd5b50610659611bc5565b6040516106669190614dc2565b60405180910390f35b34801561067b57600080fd5b50610696600480360381019061069191906144b0565b611bd8565b6040516106a39190614d17565b60405180910390f35b3480156106b857600080fd5b506106c1611c8a565b6040516106ce91906151df565b60405180910390f35b3480156106e357600080fd5b506106fe60048036038101906106f99190614171565b611c8f565b60405161070b91906151df565b60405180910390f35b34801561072057600080fd5b50610729611d47565b6040516107369190614ddd565b60405180910390f35b34801561074b57600080fd5b50610754611dd9565b005b34801561076257600080fd5b5061076b611e61565b60405161077891906151df565b60405180910390f35b34801561078d57600080fd5b506107a860048036038101906107a39190614171565b611e72565b6040516107b591906151df565b60405180910390f35b3480156107ca57600080fd5b506107e560048036038101906107e09190614171565b611e8a565b005b3480156107f357600080fd5b506107fc611f8d565b6040516108099190614d17565b60405180910390f35b34801561081e57600080fd5b50610827611fb7565b6040516108349190614ddd565b60405180910390f35b34801561084957600080fd5b50610852612049565b60405161085f91906151df565b60405180910390f35b610882600480360381019061087d9190614502565b61204e565b005b34801561089057600080fd5b506108ab60048036038101906108a691906142c9565b61247f565b005b3480156108b957600080fd5b506108d460048036038101906108cf91906143af565b612495565b005b3480156108e257600080fd5b506108fd60048036038101906108f8919061424e565b612548565b005b34801561090b57600080fd5b506109146125aa565b6040516109219190614ddd565b60405180910390f35b34801561093657600080fd5b50610951600480360381019061094c91906144b0565b612638565b60405161095e9190614ddd565b60405180910390f35b34801561097357600080fd5b5061098e600480360381019061098991906144b0565b6126b6565b005b34801561099c57600080fd5b506109a56128ac565b6040516109b29190614d17565b60405180910390f35b3480156109c757600080fd5b506109d06128d2565b6040516109dd9190614ddd565b60405180910390f35b3480156109f257600080fd5b50610a0d6004803603810190610a0891906141c3565b612964565b604051610a1a9190614da7565b60405180910390f35b348015610a2f57600080fd5b50610a4a6004803603810190610a459190614171565b6129f8565b005b60007f2a55205a000000000000000000000000000000000000000000000000000000007bffffffffffffffffffffffffffffffffffffffffffffffffffffffff1916827bffffffffffffffffffffffffffffffffffffffffffffffffffffffff19161480610abf5750610abe82612af0565b5b9050919050565b606060008054610ad590615529565b80601f0160208091040260200160405190810160405280929190818152602001828054610b0190615529565b8015610b4e5780601f10610b2357610100808354040283529160200191610b4e565b820191906000526020600020905b815481529060010190602001808311610b3157829003601f168201915b5050505050905090565b662386f26fc1000081565b6000610b6e82612bd2565b610bad576040517f08c379a0000000000000000000000000000000000000000000000000000000008152600401610ba49061505f565b60405180910390fd5b6004600083815260200190815260200160002060009054906101000a900473ffffffffffffffffffffffffffffffffffffffff169050919050565b6000610bf382611bd8565b90508073ffffffffffffffffffffffffffffffffffffffff168373ffffffffffffffffffffffffffffffffffffffff161415610c64576040517f08c379a0000000000000000000000000000000000000000000000000000000008152600401610c5b906150bf565b60405180910390fd5b8073ffffffffffffffffffffffffffffffffffffffff16610c83612c3e565b73ffffffffffffffffffffffffffffffffffffffff161480610cb25750610cb181610cac612c3e565b612964565b5b610cf1576040517f08c379a0000000000000000000000000000000000000000000000000000000008152600401610ce890614fbf565b60405180910390fd5b610cfb8383612c46565b505050565b610d08612c3e565b73ffffffffffffffffffffffffffffffffffffffff16610d26611f8d565b73ffffffffffffffffffffffffffffffffffffffff1614610d7c576040517f08c379a0000000000000000000000000000000000000000000000000000000008152600401610d739061509f565b60405180910390fd5b6000600f60006101000a81548160ff02191690836002811115610dc8577f4e487b7100000000000000000000000000000000000000000000000000000000600052602160045260246000fd5b021790555060006002811115610e07577f4e487b7100000000000000000000000000000000000000000000000000000000600052602160045260246000fd5b7f784851bf4f56ebb482b14174b5fcc43c006ca236a47dcb14d8eedcf0eddc503e60405160405180910390a2565b610e3d612c3e565b73ffffffffffffffffffffffffffffffffffffffff16610e5b611f8d565b73ffffffffffffffffffffffffffffffffffffffff1614610eb1576040517f08c379a0000000000000000000000000000000000000000000000000000000008152600401610ea89061509f565b60405180910390fd5b8181600b9190610ec2929190613ddd565b505050565b600c5481565b6611c37937e0800081565b610ee0612c3e565b73ffffffffffffffffffffffffffffffffffffffff16610efe611f8d565b73ffffffffffffffffffffffffffffffffffffffff1614610f54576040517f08c379a0000000000000000000000000000000000000000000000000000000008152600401610f4b9061509f565b60405180910390fd5b6001600f60006101000a81548160ff02191690836002811115610fa0577f4e487b7100000000000000000000000000000000000000000000000000000000600052602160045260246000fd5b021790555060016002811115610fdf577f4e487b7100000000000000000000000000000000000000000000000000000000600052602160045260246000fd5b7f784851bf4f56ebb482b14174b5fcc43c006ca236a47dcb14d8eedcf0eddc503e60405160405180910390a2565b61101e611018612c3e565b82612cff565b61105d576040517f08c379a0000000000000000000000000000000000000000000000000000000008152600401611054906150df565b60405180910390fd5b611068838383612ddd565b505050565b611075612c3e565b73ffffffffffffffffffffffffffffffffffffffff16611093611f8d565b73ffffffffffffffffffffffffffffffffffffffff16146110e9576040517f08c379a00000000000000000000000000000000000000000000000000000000081526004016110e09061509f565b60405180910390fd5b80600a90805190602001906110ff929190613e63565b508060405161110e9190614cb1565b60405180910390207ff88079580916acca3afc2e0f6ce909bab62d70f38e856286ffd15925be4fd9cc60405160405180910390a250565b6000808361115281612bd2565b611191576040517f08c379a00000000000000000000000000000000000000000000000000000000081526004016111889061501f565b60405180910390fd5b600f60019054906101000a900473ffffffffffffffffffffffffffffffffffffffff1660646005866111c391906153a4565b6111cd9190615373565b92509250509250929050565b606481565b6111e6612c3e565b73ffffffffffffffffffffffffffffffffffffffff16611204611f8d565b73ffffffffffffffffffffffffffffffffffffffff161461125a576040517f08c379a00000000000000000000000000000000000000000000000000000000081526004016112519061509f565b60405180910390fd5b60008273ffffffffffffffffffffffffffffffffffffffff166370a08231306040518263ffffffff1660e01b81526004016112959190614d17565b60206040518083038186803b1580156112ad57600080fd5b505afa1580156112c1573d6000803e3d6000fd5b505050506040513d601f19601f820116820180604052508101906112e591906144d9565b90506112f2838383613044565b8173ffffffffffffffffffffffffffffffffffffffff168373ffffffffffffffffffffffffffffffffffffffff167fce9ecd720079c00c86716fadb783ea8b0577f02c0f55b98d8a4a86ecdcb7918b60405160405180910390a3505050565b611359612c3e565b73ffffffffffffffffffffffffffffffffffffffff16611377611f8d565b73ffffffffffffffffffffffffffffffffffffffff16146113cd576040517f08c379a00000000000000000000000000000000000000000000000000000000081526004016113c49061509f565b60405180910390fd5b6002600f60006101000a81548160ff02191690836002811115611419577f4e487b7100000000000000000000000000000000000000000000000000000000600052602160045260246000fd5b0217905550600280811115611457577f4e487b7100000000000000000000000000000000000000000000000000000000600052602160045260246000fd5b7f784851bf4f56ebb482b14174b5fcc43c006ca236a47dcb14d8eedcf0eddc503e60405160405180910390a2565b6114a083838360405180602001604052806000815250612548565b505050565b600260075414156114eb576040517f08c379a00000000000000000000000000000000000000000000000000000000081526004016114e29061517f565b60405180910390fd5b60026007819055506114fb612c3e565b73ffffffffffffffffffffffffffffffffffffffff16611519611f8d565b73ffffffffffffffffffffffffffffffffffffffff161461156f576040517f08c379a00000000000000000000000000000000000000000000000000000000081526004016115669061509f565b60405180910390fd5b81819050600a81600c54611583919061531d565b11156115c4576040517f08c379a00000000000000000000000000000000000000000000000000000000081526004016115bb9061515f565b60405180910390fd5b6064816115d160086130ca565b6115db919061531d565b111561161c576040517f08c379a000000000000000000000000000000000000000000000000000000000815260040161161390614f9f565b60405180910390fd5b828260008282905011611664576040517f08c379a000000000000000000000000000000000000000000000000000000000815260040161165b906151bf565b60405180910390fd5b84849050600c6000828254611679919061531d565b9250508190555060005b858590508110156116ff576116ec8686838181106116ca577f4e487b7100000000000000000000000000000000000000000000000000000000600052603260045260246000fd5b90506020020160208101906116df9190614171565b6116e76130d8565b6130f3565b80806116f79061558c565b915050611683565b508484604051611710929190614c81565b60405180910390207f60f9e182d4e9c17b0b89f72aca3c084950624d5c97740ab7c37368ed9c1b561960405160405180910390a250505060016007819055505050565b600581565b600581565b611765612c3e565b73ffffffffffffffffffffffffffffffffffffffff16611783611f8d565b73ffffffffffffffffffffffffffffffffffffffff16146117d9576040517f08c379a00000000000000000000000000000000000000000000000000000000081526004016117d09061509f565b60405180910390fd5b6000479050611807818373ffffffffffffffffffffffffffffffffffffffff1661311190919063ffffffff16565b8173ffffffffffffffffffffffffffffffffffffffff167ff67611512e0a2d90c96fd3f08dca4971bc45fba9dc679eabe839a32abbe58a8e60405160405180910390a25050565b611856612c3e565b73ffffffffffffffffffffffffffffffffffffffff16611874611f8d565b73ffffffffffffffffffffffffffffffffffffffff16146118ca576040517f08c379a00000000000000000000000000000000000000000000000000000000081526004016118c19061509f565b60405180910390fd5b80600990805190602001906118e0929190613e63565b50806040516118ef9190614cb1565b60405180910390207f23c8c9488efebfd474e85a7956de6f39b17c7ab88502d42a623db2d8e382bbaa60405160405180910390a250565b6002600754141561196c576040517f08c379a00000000000000000000000000000000000000000000000000000000081526004016119639061517f565b60405180910390fd5b60026007819055506002808111156119ad577f4e487b7100000000000000000000000000000000000000000000000000000000600052602160045260246000fd5b600f60009054906101000a900460ff1660028111156119f5577f4e487b7100000000000000000000000000000000000000000000000000000000600052602160045260246000fd5b14611a35576040517f08c379a0000000000000000000000000000000000000000000000000000000008152600401611a2c9061519f565b60405180910390fd5b662386f26fc1000081348183611a4b91906153a4565b14611a8b576040517f08c379a0000000000000000000000000000000000000000000000000000000008152600401611a829061513f565b60405180910390fd5b82600c54600a6064611a9d91906153fe565b611aa7919061531d565b81611ab260086130ca565b611abc919061531d565b1115611afd576040517f08c379a0000000000000000000000000000000000000000000000000000000008152600401611af490614f9f565b60405180910390fd5b836005811115611b42576040517f08c379a0000000000000000000000000000000000000000000000000000000008152600401611b3990614f1f565b60405180910390fd5b60005b85811015611b7157611b5e33611b596130d8565b6130f3565b8080611b699061558c565b915050611b45565b50843373ffffffffffffffffffffffffffffffffffffffff167fe0e3b14a4f3f053af472cf2a7c31ae0e87fd170dbc7a89466d1c776952bd173760405160405180910390a350505050600160078190555050565b600f60009054906101000a900460ff1681565b6000806002600084815260200190815260200160002060009054906101000a900473ffffffffffffffffffffffffffffffffffffffff169050600073ffffffffffffffffffffffffffffffffffffffff168173ffffffffffffffffffffffffffffffffffffffff161415611c81576040517f08c379a0000000000000000000000000000000000000000000000000000000008152600401611c7890614fff565b60405180910390fd5b80915050919050565b600a81565b60008073ffffffffffffffffffffffffffffffffffffffff168273ffffffffffffffffffffffffffffffffffffffff161415611d00576040517f08c379a0000000000000000000000000000000000000000000000000000000008152600401611cf790614fdf565b60405180910390fd5b600360008373ffffffffffffffffffffffffffffffffffffffff1673ffffffffffffffffffffffffffffffffffffffff168152602001908152602001600020549050919050565b606060098054611d5690615529565b80601f0160208091040260200160405190810160405280929190818152602001828054611d8290615529565b8015611dcf5780601f10611da457610100808354040283529160200191611dcf565b820191906000526020600020905b815481529060010190602001808311611db257829003601f168201915b5050505050905090565b611de1612c3e565b73ffffffffffffffffffffffffffffffffffffffff16611dff611f8d565b73ffffffffffffffffffffffffffffffffffffffff1614611e55576040517f08c379a0000000000000000000000000000000000000000000000000000000008152600401611e4c9061509f565b60405180910390fd5b611e5f6000613205565b565b6000611e6d60086130ca565b905090565b600d6020528060005260406000206000915090505481565b611e92612c3e565b73ffffffffffffffffffffffffffffffffffffffff16611eb0611f8d565b73ffffffffffffffffffffffffffffffffffffffff1614611f06576040517f08c379a0000000000000000000000000000000000000000000000000000000008152600401611efd9061509f565b60405180910390fd5b80600f60016101000a81548173ffffffffffffffffffffffffffffffffffffffff021916908373ffffffffffffffffffffffffffffffffffffffff1602179055508073ffffffffffffffffffffffffffffffffffffffff167f1b7503b18e6e011fd6a493067321794279eb00b8bad2baefa1d771b2e98f216c60405160405180910390a250565b6000600660009054906101000a900473ffffffffffffffffffffffffffffffffffffffff16905090565b606060018054611fc690615529565b80601f0160208091040260200160405190810160405280929190818152602001828054611ff290615529565b801561203f5780601f106120145761010080835404028352916020019161203f565b820191906000526020600020905b81548152906001019060200180831161202257829003601f168201915b5050505050905090565b600381565b60026007541415612094576040517f08c379a000000000000000000000000000000000000000000000000000000000815260040161208b9061517f565b60405180910390fd5b6002600781905550600160028111156120d6577f4e487b7100000000000000000000000000000000000000000000000000000000600052602160045260246000fd5b600f60009054906101000a900460ff16600281111561211e577f4e487b7100000000000000000000000000000000000000000000000000000000600052602160045260246000fd5b1461215e576040517f08c379a00000000000000000000000000000000000000000000000000000000081526004016121559061507f565b60405180910390fd5b6611c37937e080008334818361217491906153a4565b146121b4576040517f08c379a00000000000000000000000000000000000000000000000000000000081526004016121ab9061513f565b60405180910390fd5b84600c54600a60646121c691906153fe565b6121d0919061531d565b816121db60086130ca565b6121e5919061531d565b1115612226576040517f08c379a000000000000000000000000000000000000000000000000000000000815260040161221d90614f9f565b60405180910390fd5b848461229c828280806020026020016040519081016040528093929190818152602001838360200280828437600081840152601f19601f82011690508083019250505050505050600e54336040516020016122819190614c66565b604051602081830303815290604052805190602001206132cb565b6122db576040517f08c379a00000000000000000000000000000000000000000000000000000000081526004016122d290614e9f565b60405180910390fd5b87600381600d60003373ffffffffffffffffffffffffffffffffffffffff1673ffffffffffffffffffffffffffffffffffffffff16815260200190815260200160002054612329919061531d565b111561236a576040517f08c379a000000000000000000000000000000000000000000000000000000000815260040161236190614dff565b60405180910390fd5b88600d60003373ffffffffffffffffffffffffffffffffffffffff1673ffffffffffffffffffffffffffffffffffffffff168152602001908152602001600020546123b5919061531d565b600d60003373ffffffffffffffffffffffffffffffffffffffff1673ffffffffffffffffffffffffffffffffffffffff1681526020019081526020016000208190555060005b89811015612427576124143361240f6130d8565b6130f3565b808061241f9061558c565b9150506123fb565b50883373ffffffffffffffffffffffffffffffffffffffff167f7ecbc6c2508739b8cb9f4ce243de4345253602f1ea2f8ba5e0ac26f1eecc63aa60405160405180910390a35050505050506001600781905550505050565b61249161248a612c3e565b83836132e2565b5050565b61249d612c3e565b73ffffffffffffffffffffffffffffffffffffffff166124bb611f8d565b73ffffffffffffffffffffffffffffffffffffffff1614612511576040517f08c379a00000000000000000000000000000000000000000000000000000000081526004016125089061509f565b60405180910390fd5b80600e81905550807f2965d6e68e4e35cf06fce0f92ff1ee28e7d29bde2bf6b0557d8f22e78171432d60405160405180910390a250565b612559612553612c3e565b83612cff565b612598576040517f08c379a000000000000000000000000000000000000000000000000000000000815260040161258f906150df565b60405180910390fd5b6125a48484848461344f565b50505050565b600b80546125b790615529565b80601f01602080910402602001604051908101604052809291908181526020018280546125e390615529565b80156126305780601f1061260557610100808354040283529160200191612630565b820191906000526020600020905b81548152906001019060200180831161261357829003601f168201915b505050505081565b60608161264481612bd2565b612683576040517f08c379a000000000000000000000000000000000000000000000000000000000815260040161267a9061501f565b60405180910390fd5b600961268e846134ab565b60405160200161269f929190614cc8565b604051602081830303815290604052915050919050565b600260075414156126fc576040517f08c379a00000000000000000000000000000000000000000000000000000000081526004016126f39061517f565b60405180910390fd5b600260078190555061270c612c3e565b73ffffffffffffffffffffffffffffffffffffffff1661272a611f8d565b73ffffffffffffffffffffffffffffffffffffffff1614612780576040517f08c379a00000000000000000000000000000000000000000000000000000000081526004016127779061509f565b60405180910390fd5b80600a81600c54612791919061531d565b11156127d2576040517f08c379a00000000000000000000000000000000000000000000000000000000081526004016127c99061515f565b60405180910390fd5b6064816127df60086130ca565b6127e9919061531d565b111561282a576040517f08c379a000000000000000000000000000000000000000000000000000000000815260040161282190614f9f565b60405180910390fd5b81600c600082825461283c919061531d565b9250508190555060005b828110156128725761285f3361285a6130d8565b6130f3565b808061286a9061558c565b915050612846565b50817fa3fef113f707ae04eb95a86404ce54b1b062eee16db52dc37266dbdd1cbaef1160405160405180910390a250600160078190555050565b600f60019054906101000a900473ffffffffffffffffffffffffffffffffffffffff1681565b6060600a80546128e190615529565b80601f016020809104026020016040519081016040528092919081815260200182805461290d90615529565b801561295a5780601f1061292f5761010080835404028352916020019161295a565b820191906000526020600020905b81548152906001019060200180831161293d57829003601f168201915b5050505050905090565b6000600560008473ffffffffffffffffffffffffffffffffffffffff1673ffffffffffffffffffffffffffffffffffffffff16815260200190815260200160002060008373ffffffffffffffffffffffffffffffffffffffff1673ffffffffffffffffffffffffffffffffffffffff16815260200190815260200160002060009054906101000a900460ff16905092915050565b612a00612c3e565b73ffffffffffffffffffffffffffffffffffffffff16612a1e611f8d565b73ffffffffffffffffffffffffffffffffffffffff1614612a74576040517f08c379a0000000000000000000000000000000000000000000000000000000008152600401612a6b9061509f565b60405180910390fd5b600073ffffffffffffffffffffffffffffffffffffffff168173ffffffffffffffffffffffffffffffffffffffff161415612ae4576040517f08c379a0000000000000000000000000000000000000000000000000000000008152600401612adb90614e3f565b60405180910390fd5b612aed81613205565b50565b60007f80ac58cd000000000000000000000000000000000000000000000000000000007bffffffffffffffffffffffffffffffffffffffffffffffffffffffff1916827bffffffffffffffffffffffffffffffffffffffffffffffffffffffff19161480612bbb57507f5b5e139f000000000000000000000000000000000000000000000000000000007bffffffffffffffffffffffffffffffffffffffffffffffffffffffff1916827bffffffffffffffffffffffffffffffffffffffffffffffffffffffff1916145b80612bcb5750612bca82613658565b5b9050919050565b60008073ffffffffffffffffffffffffffffffffffffffff166002600084815260200190815260200160002060009054906101000a900473ffffffffffffffffffffffffffffffffffffffff1673ffffffffffffffffffffffffffffffffffffffff1614159050919050565b600033905090565b816004600083815260200190815260200160002060006101000a81548173ffffffffffffffffffffffffffffffffffffffff021916908373ffffffffffffffffffffffffffffffffffffffff160217905550808273ffffffffffffffffffffffffffffffffffffffff16612cb983611bd8565b73ffffffffffffffffffffffffffffffffffffffff167f8c5be1e5ebec7d5bd14f71427d1e84f3dd0314c0f7b2291e5b200ac8c7c3b92560405160405180910390a45050565b6000612d0a82612bd2565b612d49576040517f08c379a0000000000000000000000000000000000000000000000000000000008152600401612d4090614f7f565b60405180910390fd5b6000612d5483611bd8565b90508073ffffffffffffffffffffffffffffffffffffffff168473ffffffffffffffffffffffffffffffffffffffff161480612d965750612d958185612964565b5b80612dd457508373ffffffffffffffffffffffffffffffffffffffff16612dbc84610b63565b73ffffffffffffffffffffffffffffffffffffffff16145b91505092915050565b8273ffffffffffffffffffffffffffffffffffffffff16612dfd82611bd8565b73ffffffffffffffffffffffffffffffffffffffff1614612e53576040517f08c379a0000000000000000000000000000000000000000000000000000000008152600401612e4a90614e5f565b60405180910390fd5b600073ffffffffffffffffffffffffffffffffffffffff168273ffffffffffffffffffffffffffffffffffffffff161415612ec3576040517f08c379a0000000000000000000000000000000000000000000000000000000008152600401612eba90614ebf565b60405180910390fd5b612ece8383836136c2565b612ed9600082612c46565b6001600360008573ffffffffffffffffffffffffffffffffffffffff1673ffffffffffffffffffffffffffffffffffffffff1681526020019081526020016000206000828254612f2991906153fe565b925050819055506001600360008473ffffffffffffffffffffffffffffffffffffffff1673ffffffffffffffffffffffffffffffffffffffff1681526020019081526020016000206000828254612f80919061531d565b92505081905550816002600083815260200190815260200160002060006101000a81548173ffffffffffffffffffffffffffffffffffffffff021916908373ffffffffffffffffffffffffffffffffffffffff160217905550808273ffffffffffffffffffffffffffffffffffffffff168473ffffffffffffffffffffffffffffffffffffffff167fddf252ad1be2c89b69c2b068fc378daa952ba7f163c4a11628f55a4df523b3ef60405160405180910390a461303f8383836136c7565b505050565b6130c58363a9059cbb60e01b8484604051602401613063929190614d7e565b604051602081830303815290604052907bffffffffffffffffffffffffffffffffffffffffffffffffffffffff19166020820180517bffffffffffffffffffffffffffffffffffffffffffffffffffffffff83818316178352505050506136cc565b505050565b600081600001549050919050565b60006130e46008613793565b6130ee60086130ca565b905090565b61310d8282604051806020016040528060008152506137a9565b5050565b80471015613154576040517f08c379a000000000000000000000000000000000000000000000000000000000815260040161314b90614f3f565b60405180910390fd5b60008273ffffffffffffffffffffffffffffffffffffffff168260405161317a90614d02565b60006040518083038185875af1925050503d80600081146131b7576040519150601f19603f3d011682016040523d82523d6000602084013e6131bc565b606091505b5050905080613200576040517f08c379a00000000000000000000000000000000000000000000000000000000081526004016131f790614eff565b60405180910390fd5b505050565b6000600660009054906101000a900473ffffffffffffffffffffffffffffffffffffffff16905081600660006101000a81548173ffffffffffffffffffffffffffffffffffffffff021916908373ffffffffffffffffffffffffffffffffffffffff1602179055508173ffffffffffffffffffffffffffffffffffffffff168173ffffffffffffffffffffffffffffffffffffffff167f8be0079c531659141344cd1fd0a4f28419497f9722a3daafe3b4186f6b6457e060405160405180910390a35050565b6000826132d88584613804565b1490509392505050565b8173ffffffffffffffffffffffffffffffffffffffff168373ffffffffffffffffffffffffffffffffffffffff161415613351576040517f08c379a000000000000000000000000000000000000000000000000000000000815260040161334890614edf565b60405180910390fd5b80600560008573ffffffffffffffffffffffffffffffffffffffff1673ffffffffffffffffffffffffffffffffffffffff16815260200190815260200160002060008473ffffffffffffffffffffffffffffffffffffffff1673ffffffffffffffffffffffffffffffffffffffff16815260200190815260200160002060006101000a81548160ff0219169083151502179055508173ffffffffffffffffffffffffffffffffffffffff168373ffffffffffffffffffffffffffffffffffffffff167f17307eab39ab6107e8899845ad3d59bd9653f200f220920489ca2b5937696c31836040516134429190614da7565b60405180910390a3505050565b61345a848484612ddd565b6134668484848461389f565b6134a5576040517f08c379a000000000000000000000000000000000000000000000000000000000815260040161349c90614e1f565b60405180910390fd5b50505050565b606060008214156134f3576040518060400160405280600181526020017f30000000000000000000000000000000000000000000000000000000000000008152509050613653565b600082905060005b6000821461352557808061350e9061558c565b915050600a8261351e9190615373565b91506134fb565b60008167ffffffffffffffff811115613567577f4e487b7100000000000000000000000000000000000000000000000000000000600052604160045260246000fd5b6040519080825280601f01601f1916602001820160405280156135995781602001600182028036833780820191505090505b5090505b6000851461364c576001826135b291906153fe565b9150600a856135c191906155f9565b60306135cd919061531d565b60f81b818381518110613609577f4e487b7100000000000000000000000000000000000000000000000000000000600052603260045260246000fd5b60200101907effffffffffffffffffffffffffffffffffffffffffffffffffffffffffffff1916908160001a905350600a856136459190615373565b945061359d565b8093505050505b919050565b60007f01ffc9a7000000000000000000000000000000000000000000000000000000007bffffffffffffffffffffffffffffffffffffffffffffffffffffffff1916827bffffffffffffffffffffffffffffffffffffffffffffffffffffffff1916149050919050565b505050565b505050565b600061372e826040518060400160405280602081526020017f5361666545524332303a206c6f772d6c6576656c2063616c6c206661696c65648152508573ffffffffffffffffffffffffffffffffffffffff16613a369092919063ffffffff16565b905060008151111561378e578080602001905181019061374e9190614386565b61378d576040517f08c379a00000000000000000000000000000000000000000000000000000000081526004016137849061511f565b60405180910390fd5b5b505050565b6001816000016000828254019250508190555050565b6137b38383613a4e565b6137c0600084848461389f565b6137ff576040517f08c379a00000000000000000000000000000000000000000000000000000000081526004016137f690614e1f565b60405180910390fd5b505050565b60008082905060005b8451811015613894576000858281518110613851577f4e487b7100000000000000000000000000000000000000000000000000000000600052603260045260246000fd5b602002602001015190508083116138735761386c8382613c28565b9250613880565b61387d8184613c28565b92505b50808061388c9061558c565b91505061380d565b508091505092915050565b60006138c08473ffffffffffffffffffffffffffffffffffffffff16613c3f565b15613a29578373ffffffffffffffffffffffffffffffffffffffff1663150b7a026138e9612c3e565b8786866040518563ffffffff1660e01b815260040161390b9493929190614d32565b602060405180830381600087803b15801561392557600080fd5b505af192505050801561395657506040513d601f19601f820116820180604052508101906139539190614401565b60015b6139d9573d8060008114613986576040519150601f19603f3d011682016040523d82523d6000602084013e61398b565b606091505b506000815114156139d1576040517f08c379a00000000000000000000000000000000000000000000000000000000081526004016139c890614e1f565b60405180910390fd5b805181602001fd5b63150b7a0260e01b7bffffffffffffffffffffffffffffffffffffffffffffffffffffffff1916817bffffffffffffffffffffffffffffffffffffffffffffffffffffffff191614915050613a2e565b600190505b949350505050565b6060613a458484600085613c62565b90509392505050565b600073ffffffffffffffffffffffffffffffffffffffff168273ffffffffffffffffffffffffffffffffffffffff161415613abe576040517f08c379a0000000000000000000000000000000000000000000000000000000008152600401613ab59061503f565b60405180910390fd5b613ac781612bd2565b15613b07576040517f08c379a0000000000000000000000000000000000000000000000000000000008152600401613afe90614e7f565b60405180910390fd5b613b13600083836136c2565b6001600360008473ffffffffffffffffffffffffffffffffffffffff1673ffffffffffffffffffffffffffffffffffffffff1681526020019081526020016000206000828254613b63919061531d565b92505081905550816002600083815260200190815260200160002060006101000a81548173ffffffffffffffffffffffffffffffffffffffff021916908373ffffffffffffffffffffffffffffffffffffffff160217905550808273ffffffffffffffffffffffffffffffffffffffff16600073ffffffffffffffffffffffffffffffffffffffff167fddf252ad1be2c89b69c2b068fc378daa952ba7f163c4a11628f55a4df523b3ef60405160405180910390a4613c24600083836136c7565b5050565b600082600052816020526040600020905092915050565b6000808273ffffffffffffffffffffffffffffffffffffffff163b119050919050565b606082471015613ca7576040517f08c379a0000000000000000000000000000000000000000000000000000000008152600401613c9e90614f5f565b60405180910390fd5b613cb085613c3f565b613cef576040517f08c379a0000000000000000000000000000000000000000000000000000000008152600401613ce6906150ff565b60405180910390fd5b6000808673ffffffffffffffffffffffffffffffffffffffff168587604051613d189190614c9a565b60006040518083038185875af1925050503d8060008114613d55576040519150601f19603f3d011682016040523d82523d6000602084013e613d5a565b606091505b5091509150613d6a828286613d76565b92505050949350505050565b60608315613d8657829050613dd6565b600083511115613d995782518084602001fd5b816040517f08c379a0000000000000000000000000000000000000000000000000000000008152600401613dcd9190614ddd565b60405180910390fd5b9392505050565b828054613de990615529565b90600052602060002090601f016020900481019282613e0b5760008555613e52565b82601f10613e2457803560ff1916838001178555613e52565b82800160010185558215613e52579182015b82811115613e51578235825591602001919060010190613e36565b5b509050613e5f9190613ee9565b5090565b828054613e6f90615529565b90600052602060002090601f016020900481019282613e915760008555613ed8565b82601f10613eaa57805160ff1916838001178555613ed8565b82800160010185558215613ed8579182015b82811115613ed7578251825591602001919060010190613ebc565b5b509050613ee59190613ee9565b5090565b5b80821115613f02576000816000905550600101613eea565b5090565b6000613f19613f148461521f565b6151fa565b905082815260208101848484011115613f3157600080fd5b613f3c8482856154e7565b509392505050565b6000613f57613f5284615250565b6151fa565b905082815260208101848484011115613f6f57600080fd5b613f7a8482856154e7565b509392505050565b600081359050613f9181615ea7565b92915050565b600081359050613fa681615ebe565b92915050565b60008083601f840112613fbe57600080fd5b8235905067ffffffffffffffff811115613fd757600080fd5b602083019150836020820283011115613fef57600080fd5b9250929050565b60008083601f84011261400857600080fd5b8235905067ffffffffffffffff81111561402157600080fd5b60208301915083602082028301111561403957600080fd5b9250929050565b60008135905061404f81615ed5565b92915050565b60008151905061406481615ed5565b92915050565b60008135905061407981615eec565b92915050565b60008135905061408e81615f03565b92915050565b6000815190506140a381615f03565b92915050565b600082601f8301126140ba57600080fd5b81356140ca848260208601613f06565b91505092915050565b60008083601f8401126140e557600080fd5b8235905067ffffffffffffffff8111156140fe57600080fd5b60208301915083600182028301111561411657600080fd5b9250929050565b600082601f83011261412e57600080fd5b813561413e848260208601613f44565b91505092915050565b60008135905061415681615f1a565b92915050565b60008151905061416b81615f1a565b92915050565b60006020828403121561418357600080fd5b600061419184828501613f82565b91505092915050565b6000602082840312156141ac57600080fd5b60006141ba84828501613f97565b91505092915050565b600080604083850312156141d657600080fd5b60006141e485828601613f82565b92505060206141f585828601613f82565b9150509250929050565b60008060006060848603121561421457600080fd5b600061422286828701613f82565b935050602061423386828701613f82565b925050604061424486828701614147565b9150509250925092565b6000806000806080858703121561426457600080fd5b600061427287828801613f82565b945050602061428387828801613f82565b935050604061429487828801614147565b925050606085013567ffffffffffffffff8111156142b157600080fd5b6142bd878288016140a9565b91505092959194509250565b600080604083850312156142dc57600080fd5b60006142ea85828601613f82565b92505060206142fb85828601614040565b9150509250929050565b6000806040838503121561431857600080fd5b600061432685828601613f82565b925050602061433785828601614147565b9150509250929050565b6000806020838503121561435457600080fd5b600083013567ffffffffffffffff81111561436e57600080fd5b61437a85828601613fac565b92509250509250929050565b60006020828403121561439857600080fd5b60006143a684828501614055565b91505092915050565b6000602082840312156143c157600080fd5b60006143cf8482850161406a565b91505092915050565b6000602082840312156143ea57600080fd5b60006143f88482850161407f565b91505092915050565b60006020828403121561441357600080fd5b600061442184828501614094565b91505092915050565b6000806020838503121561443d57600080fd5b600083013567ffffffffffffffff81111561445757600080fd5b614463858286016140d3565b92509250509250929050565b60006020828403121561448157600080fd5b600082013567ffffffffffffffff81111561449b57600080fd5b6144a78482850161411d565b91505092915050565b6000602082840312156144c257600080fd5b60006144d084828501614147565b91505092915050565b6000602082840312156144eb57600080fd5b60006144f98482850161415c565b91505092915050565b60008060006040848603121561451757600080fd5b600061452586828701614147565b935050602084013567ffffffffffffffff81111561454257600080fd5b61454e86828701613ff6565b92509250509250925092565b6000806040838503121561456d57600080fd5b600061457b85828601614147565b925050602061458c85828601614147565b9150509250929050565b60006145a283836145bd565b60208301905092915050565b6145b781615432565b82525050565b6145c681615432565b82525050565b6145dd6145d882615432565b6155d5565b82525050565b60006145ef83856152c3565b93506145fa82615281565b8060005b85811015614633576146108284615306565b61461a8882614596565b9750614625836152b6565b9250506001810190506145fe565b5085925050509392505050565b61464981615456565b82525050565b600061465a826152a0565b61466481856152ce565b93506146748185602086016154f6565b61467d81615715565b840191505092915050565b6000614693826152a0565b61469d81856152df565b93506146ad8185602086016154f6565b80840191505092915050565b6146c2816154d5565b82525050565b60006146d3826152ab565b6146dd81856152ea565b93506146ed8185602086016154f6565b6146f681615715565b840191505092915050565b600061470c826152ab565b61471681856152fb565b93506147268185602086016154f6565b80840191505092915050565b6000815461473f81615529565b61474981866152fb565b945060018216600081146147645760018114614775576147a8565b60ff198316865281860193506147a8565b61477e8561528b565b60005b838110156147a057815481890152600182019150602081019050614781565b838801955050505b50505092915050565b60006147be6020836152ea565b91506147c982615733565b602082019050919050565b60006147e16032836152ea565b91506147ec8261575c565b604082019050919050565b60006148046026836152ea565b915061480f826157ab565b604082019050919050565b60006148276025836152ea565b9150614832826157fa565b604082019050919050565b600061484a601c836152ea565b915061485582615849565b602082019050919050565b600061486d6013836152ea565b915061487882615872565b602082019050919050565b60006148906024836152ea565b915061489b8261589b565b604082019050919050565b60006148b36019836152ea565b91506148be826158ea565b602082019050919050565b60006148d6603a836152ea565b91506148e182615913565b604082019050919050565b60006148f9601e836152ea565b915061490482615962565b602082019050919050565b600061491c601d836152ea565b91506149278261598b565b602082019050919050565b600061493f6026836152ea565b915061494a826159b4565b604082019050919050565b6000614962602c836152ea565b915061496d82615a03565b604082019050919050565b6000614985601d836152ea565b915061499082615a52565b602082019050919050565b60006149a86038836152ea565b91506149b382615a7b565b604082019050919050565b60006149cb602a836152ea565b91506149d682615aca565b604082019050919050565b60006149ee6029836152ea565b91506149f982615b19565b604082019050919050565b6000614a116012836152ea565b9150614a1c82615b68565b602082019050919050565b6000614a346020836152ea565b9150614a3f82615b91565b602082019050919050565b6000614a57602c836152ea565b9150614a6282615bba565b604082019050919050565b6000614a7a6005836152fb565b9150614a8582615c09565b600582019050919050565b6000614a9d6014836152ea565b9150614aa882615c32565b602082019050919050565b6000614ac06020836152ea565b9150614acb82615c5b565b602082019050919050565b6000614ae36021836152ea565b9150614aee82615c84565b604082019050919050565b6000614b066000836152df565b9150614b1182615cd3565b600082019050919050565b6000614b296031836152ea565b9150614b3482615cd6565b604082019050919050565b6000614b4c601d836152ea565b9150614b5782615d25565b602082019050919050565b6000614b6f602a836152ea565b9150614b7a82615d4e565b604082019050919050565b6000614b926018836152ea565b9150614b9d82615d9d565b602082019050919050565b6000614bb5601a836152ea565b9150614bc082615dc6565b602082019050919050565b6000614bd8601f836152ea565b9150614be382615def565b602082019050919050565b6000614bfb6017836152ea565b9150614c0682615e18565b602082019050919050565b6000614c1e6001836152fb565b9150614c2982615e41565b600182019050919050565b6000614c416015836152ea565b9150614c4c82615e6a565b602082019050919050565b614c60816154cb565b82525050565b6000614c7282846145cc565b60148201915081905092915050565b6000614c8e8284866145e3565b91508190509392505050565b6000614ca68284614688565b915081905092915050565b6000614cbd8284614701565b915081905092915050565b6000614cd48285614732565b9150614cdf82614c11565b9150614ceb8284614701565b9150614cf682614a6d565b91508190509392505050565b6000614d0d82614af9565b9150819050919050565b6000602082019050614d2c60008301846145ae565b92915050565b6000608082019050614d4760008301876145ae565b614d5460208301866145ae565b614d616040830185614c57565b8181036060830152614d73818461464f565b905095945050505050565b6000604082019050614d9360008301856145ae565b614da06020830184614c57565b9392505050565b6000602082019050614dbc6000830184614640565b92915050565b6000602082019050614dd760008301846146b9565b92915050565b60006020820190508181036000830152614df781846146c8565b905092915050565b60006020820190508181036000830152614e18816147b1565b9050919050565b60006020820190508181036000830152614e38816147d4565b9050919050565b60006020820190508181036000830152614e58816147f7565b9050919050565b60006020820190508181036000830152614e788161481a565b9050919050565b60006020820190508181036000830152614e988161483d565b9050919050565b60006020820190508181036000830152614eb881614860565b9050919050565b60006020820190508181036000830152614ed881614883565b9050919050565b60006020820190508181036000830152614ef8816148a6565b9050919050565b60006020820190508181036000830152614f18816148c9565b9050919050565b60006020820190508181036000830152614f38816148ec565b9050919050565b60006020820190508181036000830152614f588161490f565b9050919050565b60006020820190508181036000830152614f7881614932565b9050919050565b60006020820190508181036000830152614f9881614955565b9050919050565b60006020820190508181036000830152614fb881614978565b9050919050565b60006020820190508181036000830152614fd88161499b565b9050919050565b60006020820190508181036000830152614ff8816149be565b9050919050565b60006020820190508181036000830152615018816149e1565b9050919050565b6000602082019050818103600083015261503881614a04565b9050919050565b6000602082019050818103600083015261505881614a27565b9050919050565b6000602082019050818103600083015261507881614a4a565b9050919050565b6000602082019050818103600083015261509881614a90565b9050919050565b600060208201905081810360008301526150b881614ab3565b9050919050565b600060208201905081810360008301526150d881614ad6565b9050919050565b600060208201905081810360008301526150f881614b1c565b9050919050565b6000602082019050818103600083015261511881614b3f565b9050919050565b6000602082019050818103600083015261513881614b62565b9050919050565b6000602082019050818103600083015261515881614b85565b9050919050565b6000602082019050818103600083015261517881614ba8565b9050919050565b6000602082019050818103600083015261519881614bcb565b9050919050565b600060208201905081810360008301526151b881614bee565b9050919050565b600060208201905081810360008301526151d881614c34565b9050919050565b60006020820190506151f46000830184614c57565b92915050565b6000615204615215565b9050615210828261555b565b919050565b6000604051905090565b600067ffffffffffffffff82111561523a576152396156e6565b5b61524382615715565b9050602081019050919050565b600067ffffffffffffffff82111561526b5761526a6156e6565b5b61527482615715565b9050602081019050919050565b6000819050919050565b60008190508160005260206000209050919050565b600081519050919050565b600081519050919050565b6000602082019050919050565b600081905092915050565b600082825260208201905092915050565b600081905092915050565b600082825260208201905092915050565b600081905092915050565b60006153156020840184613f82565b905092915050565b6000615328826154cb565b9150615333836154cb565b9250827fffffffffffffffffffffffffffffffffffffffffffffffffffffffffffffffff038211156153685761536761562a565b5b828201905092915050565b600061537e826154cb565b9150615389836154cb565b92508261539957615398615659565b5b828204905092915050565b60006153af826154cb565b91506153ba836154cb565b9250817fffffffffffffffffffffffffffffffffffffffffffffffffffffffffffffffff04831182151516156153f3576153f261562a565b5b828202905092915050565b6000615409826154cb565b9150615414836154cb565b9250828210156154275761542661562a565b5b828203905092915050565b600061543d826154ab565b9050919050565b600061544f826154ab565b9050919050565b60008115159050919050565b6000819050919050565b60007fffffffff0000000000000000000000000000000000000000000000000000000082169050919050565b60008190506154a682615e93565b919050565b600073ffffffffffffffffffffffffffffffffffffffff82169050919050565b6000819050919050565b60006154e082615498565b9050919050565b82818337600083830152505050565b60005b838110156155145780820151818401526020810190506154f9565b83811115615523576000848401525b50505050565b6000600282049050600182168061554157607f821691505b60208210811415615555576155546156b7565b5b50919050565b61556482615715565b810181811067ffffffffffffffff82111715615583576155826156e6565b5b80604052505050565b6000615597826154cb565b91507fffffffffffffffffffffffffffffffffffffffffffffffffffffffffffffffff8214156155ca576155c961562a565b5b600182019050919050565b60006155e0826155e7565b9050919050565b60006155f282615726565b9050919050565b6000615604826154cb565b915061560f836154cb565b92508261561f5761561e615659565b5b828206905092915050565b7f4e487b7100000000000000000000000000000000000000000000000000000000600052601160045260246000fd5b7f4e487b7100000000000000000000000000000000000000000000000000000000600052601260045260246000fd5b7f4e487b7100000000000000000000000000000000000000000000000000000000600052602160045260246000fd5b7f4e487b7100000000000000000000000000000000000000000000000000000000600052602260045260246000fd5b7f4e487b7100000000000000000000000000000000000000000000000000000000600052604160045260246000fd5b6000601f19601f8301169050919050565b60008160601b9050919050565b7f45786365656473207072652073616c65206d696e74206d6178206e756d626572600082015250565b7f4552433732313a207472616e7366657220746f206e6f6e20455243373231526560008201527f63656976657220696d706c656d656e7465720000000000000000000000000000602082015250565b7f4f776e61626c653a206e6577206f776e657220697320746865207a65726f206160008201527f6464726573730000000000000000000000000000000000000000000000000000602082015250565b7f4552433732313a207472616e736665722066726f6d20696e636f72726563742060008201527f6f776e6572000000000000000000000000000000000000000000000000000000602082015250565b7f4552433732313a20746f6b656e20616c7265616479206d696e74656400000000600082015250565b7f41646472657373206e6f7420696e206c69737400000000000000000000000000600082015250565b7f4552433732313a207472616e7366657220746f20746865207a65726f2061646460008201527f7265737300000000000000000000000000000000000000000000000000000000602082015250565b7f4552433732313a20617070726f766520746f2063616c6c657200000000000000600082015250565b7f416464726573733a20756e61626c6520746f2073656e642076616c75652c207260008201527f6563697069656e74206d61792068617665207265766572746564000000000000602082015250565b7f45786365656473207075626c6963206d696e74206d6178206e756d6265720000600082015250565b7f416464726573733a20696e73756666696369656e742062616c616e6365000000600082015250565b7f416464726573733a20696e73756666696369656e742062616c616e636520666f60008201527f722063616c6c0000000000000000000000000000000000000000000000000000602082015250565b7f4552433732313a206f70657261746f7220717565727920666f72206e6f6e657860008201527f697374656e7420746f6b656e0000000000000000000000000000000000000000602082015250565b7f496e73756666696369656e7420746f6b656e732072656d61696e696e67000000600082015250565b7f4552433732313a20617070726f76652063616c6c6572206973206e6f74206f7760008201527f6e6572206e6f7220617070726f76656420666f7220616c6c0000000000000000602082015250565b7f4552433732313a2062616c616e636520717565727920666f7220746865207a6560008201527f726f206164647265737300000000000000000000000000000000000000000000602082015250565b7f4552433732313a206f776e657220717565727920666f72206e6f6e657869737460008201527f656e7420746f6b656e0000000000000000000000000000000000000000000000602082015250565b7f4e6f6e2d6578697374656e7420746f6b656e0000000000000000000000000000600082015250565b7f4552433732313a206d696e7420746f20746865207a65726f2061646472657373600082015250565b7f4552433732313a20617070726f76656420717565727920666f72206e6f6e657860008201527f697374656e7420746f6b656e0000000000000000000000000000000000000000602082015250565b7f2e6a736f6e000000000000000000000000000000000000000000000000000000600082015250565b7f5072652073616c65206973206e6f74206f70656e000000000000000000000000600082015250565b7f4f776e61626c653a2063616c6c6572206973206e6f7420746865206f776e6572600082015250565b7f4552433732313a20617070726f76616c20746f2063757272656e74206f776e6560008201527f7200000000000000000000000000000000000000000000000000000000000000602082015250565b50565b7f4552433732313a207472616e736665722063616c6c6572206973206e6f74206f60008201527f776e6572206e6f7220617070726f766564000000000000000000000000000000602082015250565b7f416464726573733a2063616c6c20746f206e6f6e2d636f6e7472616374000000600082015250565b7f5361666545524332303a204552433230206f7065726174696f6e20646964206e60008201527f6f74207375636365656400000000000000000000000000000000000000000000602082015250565b7f496e636f7272656374204554482076616c75652073656e740000000000000000600082015250565b7f496e73756666696369656e7420746f6b656e2072657365727665000000000000600082015250565b7f5265656e7472616e637947756172643a207265656e7472616e742063616c6c00600082015250565b7f5075626c69632073616c65206973206e6f74206f70656e000000000000000000600082015250565b7f2f00000000000000000000000000000000000000000000000000000000000000600082015250565b7f41646472657373657320617272617920656d7074790000000000000000000000600082015250565b60038110615ea457615ea3615688565b5b50565b615eb081615432565b8114615ebb57600080fd5b50565b615ec781615444565b8114615ed257600080fd5b50565b615ede81615456565b8114615ee957600080fd5b50565b615ef581615462565b8114615f0057600080fd5b50565b615f0c8161546c565b8114615f1757600080fd5b50565b615f23816154cb565b8114615f2e57600080fd5b5056fea2646970667358221220d90a6c68634ad0d39532720e0df999111e0ab7dc269159851bc6937274676a5b64736f6c63430008040033",
  "linkReferences": {},
  "deployedLinkReferences": {}
}