{
  "_format": "hh-sol-artifact-1",
  "contractName": "MyNFT",
  "sourceName": "contracts/nft.sol",
  "abi": [
    {
      "inputs": [
        {
          "internalType": "address",
          "name": "_royaltyReceiverAddress",
          "type": "address"
        }
      ],
      "stateMutability": "nonpayable",
      "type": "constructor"
    },
    {
      "anonymous": false,
      "inputs": [
        {
          "indexed": true,
          "internalType": "address",
          "name": "owner",
          "type": "address"
        },
        {
          "indexed": true,
          "internalType": "address",
          "name": "approved",
          "type": "address"
        },
        {
          "indexed": true,
          "internalType": "uint256",
          "name": "tokenId",
          "type": "uint256"
        }
      ],
      "name": "Approval",
      "type": "event"
    },
    {
      "anonymous": false,
      "inputs": [
        {
          "indexed": true,
          "internalType": "address",
          "name": "owner",
          "type": "address"
        },
        {
          "indexed": true,
          "internalType": "address",
          "name": "operator",
          "type": "address"
        },
        {
          "indexed": false,
          "internalType": "bool",
          "name": "approved",
          "type": "bool"
        }
      ],
      "name": "ApprovalForAll",
      "type": "event"
    },
    {
      "anonymous": false,
      "inputs": [
        {
          "indexed": true,
          "internalType": "address",
          "name": "previousOwner",
          "type": "address"
        },
        {
          "indexed": true,
          "internalType": "address",
          "name": "newOwner",
          "type": "address"
        }
      ],
      "name": "OwnershipTransferred",
      "type": "event"
    },
    {
      "anonymous": false,
      "inputs": [
        {
          "indexed": true,
          "internalType": "address",
          "name": "from",
          "type": "address"
        },
        {
          "indexed": true,
          "internalType": "address",
          "name": "to",
          "type": "address"
        },
        {
          "indexed": true,
          "internalType": "uint256",
          "name": "tokenId",
          "type": "uint256"
        }
      ],
      "name": "Transfer",
      "type": "event"
    },
    {
      "inputs": [],
      "name": "MAX_PRE_SALE_MINTS",
      "outputs": [
        {
          "internalType": "uint256",
          "name": "",
          "type": "uint256"
        }
      ],
      "stateMutability": "view",
      "type": "function"
    },
    {
      "inputs": [],
      "name": "MAX_PUBLIC_SALE_MINTS",
      "outputs": [
        {
          "internalType": "uint256",
          "name": "",
          "type": "uint256"
        }
      ],
      "stateMutability": "view",
      "type": "function"
    },
    {
      "inputs": [],
      "name": "MAX_RESERVE_TOKENS",
      "outputs": [
        {
          "internalType": "uint256",
          "name": "",
          "type": "uint256"
        }
      ],
      "stateMutability": "view",
      "type": "function"
    },
    {
      "inputs": [],
      "name": "MAX_TOKENS_PER_WALLET",
      "outputs": [
        {
          "internalType": "uint256",
          "name": "",
          "type": "uint256"
        }
      ],
      "stateMutability": "view",
      "type": "function"
    },
    {
      "inputs": [],
      "name": "MAX_TOTAL_SUPPLY",
      "outputs": [
        {
          "internalType": "uint256",
          "name": "",
          "type": "uint256"
        }
      ],
      "stateMutability": "view",
      "type": "function"
    },
    {
      "inputs": [],
      "name": "PRE_SALE_PRICE",
      "outputs": [
        {
          "internalType": "uint256",
          "name": "",
          "type": "uint256"
        }
      ],
      "stateMutability": "view",
      "type": "function"
    },
    {
      "inputs": [],
      "name": "PUBLIC_SALE_PRICE",
      "outputs": [
        {
          "internalType": "uint256",
          "name": "",
          "type": "uint256"
        }
      ],
      "stateMutability": "view",
      "type": "function"
    },
    {
      "inputs": [
        {
          "internalType": "address[]",
          "name": "addresses",
          "type": "address[]"
        }
      ],
      "name": "airdropTokens",
      "outputs": [],
      "stateMutability": "nonpayable",
      "type": "function"
    },
    {
      "inputs": [
        {
          "internalType": "address",
          "name": "to",
          "type": "address"
        },
        {
          "internalType": "uint256",
          "name": "tokenId",
          "type": "uint256"
        }
      ],
      "name": "approve",
      "outputs": [],
      "stateMutability": "nonpayable",
      "type": "function"
    },
    {
      "inputs": [
        {
          "internalType": "address",
          "name": "owner",
          "type": "address"
        }
      ],
      "name": "balanceOf",
      "outputs": [
        {
          "internalType": "uint256",
          "name": "",
          "type": "uint256"
        }
      ],
      "stateMutability": "view",
      "type": "function"
    },
    {
      "inputs": [
        {
          "internalType": "uint256",
          "name": "tokenId",
          "type": "uint256"
        }
      ],
      "name": "getApproved",
      "outputs": [
        {
          "internalType": "address",
          "name": "",
          "type": "address"
        }
      ],
      "stateMutability": "view",
      "type": "function"
    },
    {
      "inputs": [],
      "name": "getBaseURI",
      "outputs": [
        {
          "internalType": "string",
          "name": "",
          "type": "string"
        }
      ],
      "stateMutability": "view",
      "type": "function"
    },
    {
      "inputs": [],
      "name": "getLastTokenId",
      "outputs": [
        {
          "internalType": "uint256",
          "name": "",
          "type": "uint256"
        }
      ],
      "stateMutability": "view",
      "type": "function"
    },
    {
      "inputs": [
        {
          "internalType": "address",
          "name": "owner",
          "type": "address"
        },
        {
          "internalType": "address",
          "name": "operator",
          "type": "address"
        }
      ],
      "name": "isApprovedForAll",
      "outputs": [
        {
          "internalType": "bool",
          "name": "",
          "type": "bool"
        }
      ],
      "stateMutability": "view",
      "type": "function"
    },
    {
      "inputs": [],
      "name": "isPreSaleActive",
      "outputs": [
        {
          "internalType": "bool",
          "name": "",
          "type": "bool"
        }
      ],
      "stateMutability": "view",
      "type": "function"
    },
    {
      "inputs": [],
      "name": "isPublicSaleActive",
      "outputs": [
        {
          "internalType": "bool",
          "name": "",
          "type": "bool"
        }
      ],
      "stateMutability": "view",
      "type": "function"
    },
    {
      "inputs": [],
      "name": "isReservedMintActive",
      "outputs": [
        {
          "internalType": "bool",
          "name": "",
          "type": "bool"
        }
      ],
      "stateMutability": "view",
      "type": "function"
    },
    {
      "inputs": [
        {
          "internalType": "uint8",
          "name": "numberOfTokens",
          "type": "uint8"
        },
        {
          "internalType": "bytes32[]",
          "name": "merkleProof",
          "type": "bytes32[]"
        }
      ],
      "name": "mintPreSale",
      "outputs": [],
      "stateMutability": "payable",
      "type": "function"
    },
    {
      "inputs": [
        {
          "internalType": "uint256",
          "name": "numberOfTokens",
          "type": "uint256"
        }
      ],
      "name": "mintPublicSale",
      "outputs": [],
      "stateMutability": "payable",
      "type": "function"
    },
    {
      "inputs": [],
      "name": "name",
      "outputs": [
        {
          "internalType": "string",
          "name": "",
          "type": "string"
        }
      ],
      "stateMutability": "view",
      "type": "function"
    },
    {
      "inputs": [],
      "name": "numGiftedTokens",
      "outputs": [
        {
          "internalType": "uint256",
          "name": "",
          "type": "uint256"
        }
      ],
      "stateMutability": "view",
      "type": "function"
    },
    {
      "inputs": [],
      "name": "owner",
      "outputs": [
        {
          "internalType": "address",
          "name": "",
          "type": "address"
        }
      ],
      "stateMutability": "view",
      "type": "function"
    },
    {
      "inputs": [
        {
          "internalType": "uint256",
          "name": "tokenId",
          "type": "uint256"
        }
      ],
      "name": "ownerOf",
      "outputs": [
        {
          "internalType": "address",
          "name": "",
          "type": "address"
        }
      ],
      "stateMutability": "view",
      "type": "function"
    },
    {
      "inputs": [
        {
          "internalType": "address",
          "name": "",
          "type": "address"
        }
      ],
      "name": "preSaleMintCounts",
      "outputs": [
        {
          "internalType": "uint256",
          "name": "",
          "type": "uint256"
        }
      ],
      "stateMutability": "view",
      "type": "function"
    },
    {
      "inputs": [],
      "name": "presaleListMerkleRoot",
      "outputs": [
        {
          "internalType": "bytes32",
          "name": "",
          "type": "bytes32"
        }
      ],
      "stateMutability": "view",
      "type": "function"
    },
    {
      "inputs": [],
      "name": "renounceOwnership",
      "outputs": [],
      "stateMutability": "nonpayable",
      "type": "function"
    },
    {
      "inputs": [
        {
          "internalType": "uint256",
          "name": "numToReserve",
          "type": "uint256"
        }
      ],
      "name": "reserveForTeam",
      "outputs": [],
      "stateMutability": "nonpayable",
      "type": "function"
    },
    {
      "inputs": [
        {
          "internalType": "address",
          "name": "",
          "type": "address"
        }
      ],
      "name": "reservedMintCounts",
      "outputs": [
        {
          "internalType": "bool",
          "name": "",
          "type": "bool"
        }
      ],
      "stateMutability": "view",
      "type": "function"
    },
    {
      "inputs": [
        {
          "internalType": "uint256",
          "name": "tokenId",
          "type": "uint256"
        },
        {
          "internalType": "uint256",
          "name": "salePrice",
          "type": "uint256"
        }
      ],
      "name": "royaltyInfo",
      "outputs": [
        {
          "internalType": "address",
          "name": "receiver",
          "type": "address"
        },
        {
          "internalType": "uint256",
          "name": "royaltyAmount",
          "type": "uint256"
        }
      ],
      "stateMutability": "view",
      "type": "function"
    },
    {
      "inputs": [],
      "name": "royaltyReceiverAddress",
      "outputs": [
        {
          "internalType": "address",
          "name": "",
          "type": "address"
        }
      ],
      "stateMutability": "view",
      "type": "function"
    },
    {
      "inputs": [
        {
          "internalType": "address",
          "name": "from",
          "type": "address"
        },
        {
          "internalType": "address",
          "name": "to",
          "type": "address"
        },
        {
          "internalType": "uint256",
          "name": "tokenId",
          "type": "uint256"
        }
      ],
      "name": "safeTransferFrom",
      "outputs": [],
      "stateMutability": "nonpayable",
      "type": "function"
    },
    {
      "inputs": [
        {
          "internalType": "address",
          "name": "from",
          "type": "address"
        },
        {
          "internalType": "address",
          "name": "to",
          "type": "address"
        },
        {
          "internalType": "uint256",
          "name": "tokenId",
          "type": "uint256"
        },
        {
          "internalType": "bytes",
          "name": "_data",
          "type": "bytes"
        }
      ],
      "name": "safeTransferFrom",
      "outputs": [],
      "stateMutability": "nonpayable",
      "type": "function"
    },
    {
      "inputs": [
        {
          "internalType": "address",
          "name": "operator",
          "type": "address"
        },
        {
          "internalType": "bool",
          "name": "approved",
          "type": "bool"
        }
      ],
      "name": "setApprovalForAll",
      "outputs": [],
      "stateMutability": "nonpayable",
      "type": "function"
    },
    {
      "inputs": [
        {
          "internalType": "string",
          "name": "_baseURI",
          "type": "string"
        }
      ],
      "name": "setBaseURI",
      "outputs": [],
      "stateMutability": "nonpayable",
      "type": "function"
    },
    {
      "inputs": [
        {
          "internalType": "bool",
          "name": "_isPreSaleActive",
          "type": "bool"
        }
      ],
      "name": "setIsPreSaleActive",
      "outputs": [],
      "stateMutability": "nonpayable",
      "type": "function"
    },
    {
      "inputs": [
        {
          "internalType": "bool",
          "name": "_isPublicSaleActive",
          "type": "bool"
        }
      ],
      "name": "setIsPublicSaleActive",
      "outputs": [],
      "stateMutability": "nonpayable",
      "type": "function"
    },
    {
      "inputs": [
        {
          "internalType": "bytes32",
          "name": "merkleRoot",
          "type": "bytes32"
        }
      ],
      "name": "setPreSaleListMerkleRoot",
      "outputs": [],
      "stateMutability": "nonpayable",
      "type": "function"
    },
    {
      "inputs": [
        {
          "internalType": "address",
          "name": "_royaltyReceiverAddress",
          "type": "address"
        }
      ],
      "name": "setRoyaltyReceiverAddress",
      "outputs": [],
      "stateMutability": "nonpayable",
      "type": "function"
    },
    {
      "inputs": [
        {
          "internalType": "bytes4",
          "name": "interfaceId",
          "type": "bytes4"
        }
      ],
      "name": "supportsInterface",
      "outputs": [
        {
          "internalType": "bool",
          "name": "",
          "type": "bool"
        }
      ],
      "stateMutability": "view",
      "type": "function"
    },
    {
      "inputs": [],
      "name": "symbol",
      "outputs": [
        {
          "internalType": "string",
          "name": "",
          "type": "string"
        }
      ],
      "stateMutability": "view",
      "type": "function"
    },
    {
      "inputs": [
        {
          "internalType": "uint256",
          "name": "tokenId",
          "type": "uint256"
        }
      ],
      "name": "tokenURI",
      "outputs": [
        {
          "internalType": "string",
          "name": "",
          "type": "string"
        }
      ],
      "stateMutability": "view",
      "type": "function"
    },
    {
      "inputs": [
        {
          "internalType": "address",
          "name": "from",
          "type": "address"
        },
        {
          "internalType": "address",
          "name": "to",
          "type": "address"
        },
        {
          "internalType": "uint256",
          "name": "tokenId",
          "type": "uint256"
        }
      ],
      "name": "transferFrom",
      "outputs": [],
      "stateMutability": "nonpayable",
      "type": "function"
    },
    {
      "inputs": [
        {
          "internalType": "address",
          "name": "newOwner",
          "type": "address"
        }
      ],
      "name": "transferOwnership",
      "outputs": [],
      "stateMutability": "nonpayable",
      "type": "function"
    },
    {
      "inputs": [],
      "name": "withdraw",
      "outputs": [],
      "stateMutability": "nonpayable",
      "type": "function"
    },
    {
      "inputs": [
        {
          "internalType": "contract IERC20",
          "name": "token",
          "type": "address"
        }
      ],
      "name": "withdrawTokens",
      "outputs": [],
      "stateMutability": "nonpayable",
      "type": "function"
    },
    {
      "stateMutability": "payable",
      "type": "receive"
    }
  ],
  "bytecode": "0x60806040523480156200001157600080fd5b5060405162005315380380620053158339818101604052810190620000379190620002dc565b6040518060400160405280601181526020017f4d79204e465420436f6c6c656374696f6e0000000000000000000000000000008152506040518060400160405280600581526020017f4d594e46540000000000000000000000000000000000000000000000000000008152508160009080519060200190620000bb92919062000215565b508060019080519060200190620000d492919062000215565b505050620000f7620000eb6200014760201b60201c565b6200014f60201b60201c565b600160078190555080600e60036101000a81548173ffffffffffffffffffffffffffffffffffffffff021916908373ffffffffffffffffffffffffffffffffffffffff16021790555050620003bb565b600033905090565b6000600660009054906101000a900473ffffffffffffffffffffffffffffffffffffffff16905081600660006101000a81548173ffffffffffffffffffffffffffffffffffffffff021916908373ffffffffffffffffffffffffffffffffffffffff1602179055508173ffffffffffffffffffffffffffffffffffffffff168173ffffffffffffffffffffffffffffffffffffffff167f8be0079c531659141344cd1fd0a4f28419497f9722a3daafe3b4186f6b6457e060405160405180910390a35050565b82805462000223906200033c565b90600052602060002090601f01602090048101928262000247576000855562000293565b82601f106200026257805160ff191683800117855562000293565b8280016001018555821562000293579182015b828111156200029257825182559160200191906001019062000275565b5b509050620002a29190620002a6565b5090565b5b80821115620002c1576000816000905550600101620002a7565b5090565b600081519050620002d681620003a1565b92915050565b600060208284031215620002ef57600080fd5b6000620002ff84828501620002c5565b91505092915050565b600062000315826200031c565b9050919050565b600073ffffffffffffffffffffffffffffffffffffffff82169050919050565b600060028204905060018216806200035557607f821691505b602082108114156200036c576200036b62000372565b5b50919050565b7f4e487b7100000000000000000000000000000000000000000000000000000000600052602260045260246000fd5b620003ac8162000308565b8114620003b857600080fd5b50565b614f4a80620003cb6000396000f3fe6080604052600436106102765760003560e01c806363ff5e171161014f5780639dd85f17116100c1578063ccaf1a821161007a578063ccaf1a8214610942578063d1bdb1d11461096b578063dc7eda7d14610996578063e985e9c5146109c1578063f2fde38b146109fe578063f3e6e69614610a275761027d565b80639dd85f1714610843578063a22cb4651461086e578063a8b3a52714610897578063af42d82d146108b3578063b88d4fde146108dc578063c87b56dd146109055761027d565b80638a8fe819116101135780638a8fe8191461071f5780638b4f84631461075c5780638da5cb5b1461078557806395d89b41146107b05780639b96d200146107db5780639d044ed3146108185761027d565b806363ff5e171461064a57806370a0823114610675578063714c5398146106b2578063715018a6146106dd57806383c4c00d146106f45761027d565b80633ccfd60b116101e85780634ee51a27116101ac5780634ee51a2714610549578063508881c11461057257806355f804b31461059d5780635926533b146105c65780635a5e5d58146105f15780636352211e1461060d5761027d565b80633ccfd60b1461048c57806342842e0e146104a3578063445f5756146104cc57806349c33981146104f557806349df728c146105205761027d565b8063193402bb1161023a578063193402bb1461037b5780631e84c413146103a657806323b872dd146103d157806328cad13d146103fa5780632a55205a1461042357806333039d3d146104615761027d565b806301ffc9a71461028257806306fdde03146102bf57806307e89ec0146102ea578063081812fc14610315578063095ea7b3146103525761027d565b3661027d57005b600080fd5b34801561028e57600080fd5b506102a960048036038101906102a49190613824565b610a52565b6040516102b69190613ff4565b60405180910390f35b3480156102cb57600080fd5b506102d4610acc565b6040516102e1919061402a565b60405180910390f35b3480156102f657600080fd5b506102ff610b5e565b60405161030c919061438c565b60405180910390f35b34801561032157600080fd5b5061033c600480360381019061033791906138e0565b610b69565b6040516103499190613f64565b60405180910390f35b34801561035e57600080fd5b5061037960048036038101906103749190613728565b610bee565b005b34801561038757600080fd5b50610390610d06565b60405161039d919061438c565b60405180910390f35b3480156103b257600080fd5b506103bb610d11565b6040516103c89190613ff4565b60405180910390f35b3480156103dd57600080fd5b506103f860048036038101906103f39190613622565b610d24565b005b34801561040657600080fd5b50610421600480360381019061041c91906137a9565b610d84565b005b34801561042f57600080fd5b5061044a60048036038101906104459190613932565b610e1d565b604051610458929190613fcb565b60405180910390f35b34801561046d57600080fd5b50610476610eab565b604051610483919061438c565b60405180910390f35b34801561049857600080fd5b506104a1610eb1565b005b3480156104af57600080fd5b506104ca60048036038101906104c59190613622565b610f7c565b005b3480156104d857600080fd5b506104f360048036038101906104ee91906137a9565b610f9c565b005b34801561050157600080fd5b5061050a611035565b604051610517919061438c565b60405180910390f35b34801561052c57600080fd5b5061054760048036038101906105429190613876565b61103b565b005b34801561055557600080fd5b50610570600480360381019061056b9190613764565b6111d6565b005b34801561057e57600080fd5b506105876113fa565b604051610594919061438c565b60405180910390f35b3480156105a957600080fd5b506105c460048036038101906105bf919061389f565b6113ff565b005b3480156105d257600080fd5b506105db611495565b6040516105e89190613ff4565b60405180910390f35b61060b600480360381019061060691906138e0565b6114a8565b005b34801561061957600080fd5b50610634600480360381019061062f91906138e0565b6116e9565b6040516106419190613f64565b60405180910390f35b34801561065657600080fd5b5061065f61179b565b60405161066c919061438c565b60405180910390f35b34801561068157600080fd5b5061069c600480360381019061069791906135bd565b6117a0565b6040516106a9919061438c565b60405180910390f35b3480156106be57600080fd5b506106c7611858565b6040516106d4919061402a565b60405180910390f35b3480156106e957600080fd5b506106f26118ea565b005b34801561070057600080fd5b50610709611972565b604051610716919061438c565b60405180910390f35b34801561072b57600080fd5b50610746600480360381019061074191906135bd565b611983565b604051610753919061438c565b60405180910390f35b34801561076857600080fd5b50610783600480360381019061077e91906135bd565b61199b565b005b34801561079157600080fd5b5061079a611a5b565b6040516107a79190613f64565b60405180910390f35b3480156107bc57600080fd5b506107c5611a85565b6040516107d2919061402a565b60405180910390f35b3480156107e757600080fd5b5061080260048036038101906107fd91906135bd565b611b17565b60405161080f9190613ff4565b60405180910390f35b34801561082457600080fd5b5061082d611b37565b60405161083a9190613ff4565b60405180910390f35b34801561084f57600080fd5b50610858611b4a565b604051610865919061438c565b60405180910390f35b34801561087a57600080fd5b50610895600480360381019061089091906136ec565b611b4f565b005b6108b160048036038101906108ac919061396e565b611b65565b005b3480156108bf57600080fd5b506108da60048036038101906108d591906137fb565b611eb4565b005b3480156108e857600080fd5b5061090360048036038101906108fe9190613671565b611f3a565b005b34801561091157600080fd5b5061092c600480360381019061092791906138e0565b611f9c565b604051610939919061402a565b60405180910390f35b34801561094e57600080fd5b50610969600480360381019061096491906138e0565b612018565b005b34801561097757600080fd5b506109806121e2565b60405161098d919061438c565b60405180910390f35b3480156109a257600080fd5b506109ab6121e7565b6040516109b89190613f64565b60405180910390f35b3480156109cd57600080fd5b506109e860048036038101906109e391906135e6565b61220d565b6040516109f59190613ff4565b60405180910390f35b348015610a0a57600080fd5b50610a256004803603810190610a2091906135bd565b6122a1565b005b348015610a3357600080fd5b50610a3c612399565b604051610a49919061400f565b60405180910390f35b60007f2a55205a000000000000000000000000000000000000000000000000000000007bffffffffffffffffffffffffffffffffffffffffffffffffffffffff1916827bffffffffffffffffffffffffffffffffffffffffffffffffffffffff19161480610ac55750610ac48261239f565b5b9050919050565b606060008054610adb9061467a565b80601f0160208091040260200160405190810160405280929190818152602001828054610b079061467a565b8015610b545780601f10610b2957610100808354040283529160200191610b54565b820191906000526020600020905b815481529060010190602001808311610b3757829003601f168201915b5050505050905090565b66470de4df82000081565b6000610b7482612481565b610bb3576040517f08c379a0000000000000000000000000000000000000000000000000000000008152600401610baa9061424c565b60405180910390fd5b6004600083815260200190815260200160002060009054906101000a900473ffffffffffffffffffffffffffffffffffffffff169050919050565b6000610bf9826116e9565b90508073ffffffffffffffffffffffffffffffffffffffff168373ffffffffffffffffffffffffffffffffffffffff161415610c6a576040517f08c379a0000000000000000000000000000000000000000000000000000000008152600401610c61906142cc565b60405180910390fd5b8073ffffffffffffffffffffffffffffffffffffffff16610c896124ed565b73ffffffffffffffffffffffffffffffffffffffff161480610cb85750610cb781610cb26124ed565b61220d565b5b610cf7576040517f08c379a0000000000000000000000000000000000000000000000000000000008152600401610cee906141ac565b60405180910390fd5b610d0183836124f5565b505050565b662386f26fc1000081565b600e60029054906101000a900460ff1681565b610d35610d2f6124ed565b826125ae565b610d74576040517f08c379a0000000000000000000000000000000000000000000000000000000008152600401610d6b906142ec565b60405180910390fd5b610d7f83838361268c565b505050565b610d8c6124ed565b73ffffffffffffffffffffffffffffffffffffffff16610daa611a5b565b73ffffffffffffffffffffffffffffffffffffffff1614610e00576040517f08c379a0000000000000000000000000000000000000000000000000000000008152600401610df79061426c565b60405180910390fd5b80600e60026101000a81548160ff02191690831515021790555050565b600080610e2984612481565b610e68576040517f08c379a0000000000000000000000000000000000000000000000000000000008152600401610e5f906141cc565b60405180910390fd5b600e60039054906101000a900473ffffffffffffffffffffffffffffffffffffffff16610ea0610e998560086128f3565b6064612909565b915091509250929050565b611f4081565b610eb96124ed565b73ffffffffffffffffffffffffffffffffffffffff16610ed7611a5b565b73ffffffffffffffffffffffffffffffffffffffff1614610f2d576040517f08c379a0000000000000000000000000000000000000000000000000000000008152600401610f249061426c565b60405180910390fd5b60004790503373ffffffffffffffffffffffffffffffffffffffff166108fc829081150290604051600060405180830381858888f19350505050158015610f78573d6000803e3d6000fd5b5050565b610f9783838360405180602001604052806000815250611f3a565b505050565b610fa46124ed565b73ffffffffffffffffffffffffffffffffffffffff16610fc2611a5b565b73ffffffffffffffffffffffffffffffffffffffff1614611018576040517f08c379a000000000000000000000000000000000000000000000000000000000815260040161100f9061426c565b60405180910390fd5b80600e60016101000a81548160ff02191690831515021790555050565b600a5481565b6110436124ed565b73ffffffffffffffffffffffffffffffffffffffff16611061611a5b565b73ffffffffffffffffffffffffffffffffffffffff16146110b7576040517f08c379a00000000000000000000000000000000000000000000000000000000081526004016110ae9061426c565b60405180910390fd5b60008173ffffffffffffffffffffffffffffffffffffffff166370a08231306040518263ffffffff1660e01b81526004016110f29190613f64565b60206040518083038186803b15801561110a57600080fd5b505afa15801561111e573d6000803e3d6000fd5b505050506040513d601f19601f820116820180604052508101906111429190613909565b90508173ffffffffffffffffffffffffffffffffffffffff1663a9059cbb33836040518363ffffffff1660e01b815260040161117f929190613fcb565b602060405180830381600087803b15801561119957600080fd5b505af11580156111ad573d6000803e3d6000fd5b505050506040513d601f19601f820116820180604052508101906111d191906137d2565b505050565b6002600754141561121c576040517f08c379a00000000000000000000000000000000000000000000000000000000081526004016112139061434c565b60405180910390fd5b600260078190555061122c6124ed565b73ffffffffffffffffffffffffffffffffffffffff1661124a611a5b565b73ffffffffffffffffffffffffffffffffffffffff16146112a0576040517f08c379a00000000000000000000000000000000000000000000000000000000081526004016112979061426c565b60405180910390fd5b8181905060c881600a546112b49190614486565b11156112f5576040517f08c379a00000000000000000000000000000000000000000000000000000000081526004016112ec9061432c565b60405180910390fd5b611f4081611303600861291f565b61130d9190614486565b111561134e576040517f08c379a00000000000000000000000000000000000000000000000000000000081526004016113459061416c565b60405180910390fd5b600083839050905080600a60008282546113689190614486565b9250508190555060005b818110156113eb576113d88585838181106113b6577f4e487b7100000000000000000000000000000000000000000000000000000000600052603260045260246000fd5b90506020020160208101906113cb91906135bd565b6113d361292d565b612948565b80806113e3906146dd565b915050611372565b50505060016007819055505050565b600581565b6114076124ed565b73ffffffffffffffffffffffffffffffffffffffff16611425611a5b565b73ffffffffffffffffffffffffffffffffffffffff161461147b576040517f08c379a00000000000000000000000000000000000000000000000000000000081526004016114729061426c565b60405180910390fd5b80600990805190602001906114919291906132e4565b5050565b600e60009054906101000a900460ff1681565b600260075414156114ee576040517f08c379a00000000000000000000000000000000000000000000000000000000081526004016114e59061434c565b60405180910390fd5b6002600781905550600e60029054906101000a900460ff16611545576040517f08c379a000000000000000000000000000000000000000000000000000000000815260040161153c9061436c565b60405180910390fd5b66470de4df8200008134818361155b919061450d565b1461159b576040517f08c379a00000000000000000000000000000000000000000000000000000000081526004016115929061430c565b60405180910390fd5b82600a5460c8611f406115ae9190614567565b6115b89190614486565b816115c3600861291f565b6115cd9190614486565b111561160e576040517f08c379a00000000000000000000000000000000000000000000000000000000081526004016116059061416c565b60405180910390fd5b8360058161161b336117a0565b6116259190614486565b1115611666576040517f08c379a000000000000000000000000000000000000000000000000000000000815260040161165d9061412c565b60405180910390fd5b60058511156116aa576040517f08c379a00000000000000000000000000000000000000000000000000000000081526004016116a19061428c565b60405180910390fd5b60005b858110156116d9576116c6336116c161292d565b612948565b80806116d1906146dd565b9150506116ad565b5050505050600160078190555050565b6000806002600084815260200190815260200160002060009054906101000a900473ffffffffffffffffffffffffffffffffffffffff169050600073ffffffffffffffffffffffffffffffffffffffff168173ffffffffffffffffffffffffffffffffffffffff161415611792576040517f08c379a00000000000000000000000000000000000000000000000000000000081526004016117899061420c565b60405180910390fd5b80915050919050565b60c881565b60008073ffffffffffffffffffffffffffffffffffffffff168273ffffffffffffffffffffffffffffffffffffffff161415611811576040517f08c379a0000000000000000000000000000000000000000000000000000000008152600401611808906141ec565b60405180910390fd5b600360008373ffffffffffffffffffffffffffffffffffffffff1673ffffffffffffffffffffffffffffffffffffffff168152602001908152602001600020549050919050565b6060600980546118679061467a565b80601f01602080910402602001604051908101604052809291908181526020018280546118939061467a565b80156118e05780601f106118b5576101008083540402835291602001916118e0565b820191906000526020600020905b8154815290600101906020018083116118c357829003601f168201915b5050505050905090565b6118f26124ed565b73ffffffffffffffffffffffffffffffffffffffff16611910611a5b565b73ffffffffffffffffffffffffffffffffffffffff1614611966576040517f08c379a000000000000000000000000000000000000000000000000000000000815260040161195d9061426c565b60405180910390fd5b6119706000612966565b565b600061197e600861291f565b905090565b600c6020528060005260406000206000915090505481565b6119a36124ed565b73ffffffffffffffffffffffffffffffffffffffff166119c1611a5b565b73ffffffffffffffffffffffffffffffffffffffff1614611a17576040517f08c379a0000000000000000000000000000000000000000000000000000000008152600401611a0e9061426c565b60405180910390fd5b80600e60036101000a81548173ffffffffffffffffffffffffffffffffffffffff021916908373ffffffffffffffffffffffffffffffffffffffff16021790555050565b6000600660009054906101000a900473ffffffffffffffffffffffffffffffffffffffff16905090565b606060018054611a949061467a565b80601f0160208091040260200160405190810160405280929190818152602001828054611ac09061467a565b8015611b0d5780601f10611ae257610100808354040283529160200191611b0d565b820191906000526020600020905b815481529060010190602001808311611af057829003601f168201915b5050505050905090565b600b6020528060005260406000206000915054906101000a900460ff1681565b600e60019054906101000a900460ff1681565b600381565b611b61611b5a6124ed565b8383612a2c565b5050565b600e60019054906101000a900460ff16611bb4576040517f08c379a0000000000000000000000000000000000000000000000000000000008152600401611bab906142ac565b60405180910390fd5b60026007541415611bfa576040517f08c379a0000000000000000000000000000000000000000000000000000000008152600401611bf19061434c565b60405180910390fd5b60026007819055508181600d54611c79838380806020026020016040519081016040528093929190818152602001838360200280828437600081840152601f19601f820116905080830192505050505050508233604051602001611c5e9190613f0f565b60405160208183030381529060405280519060200120612b99565b611cb8576040517f08c379a0000000000000000000000000000000000000000000000000000000008152600401611caf9061418c565b60405180910390fd5b6003600a5460c8611f40611ccc9190614567565b611cd69190614486565b81611ce1600861291f565b611ceb9190614486565b1115611d2c576040517f08c379a0000000000000000000000000000000000000000000000000000000008152600401611d239061416c565b60405180910390fd5b662386f26fc100008760ff16348183611d45919061450d565b14611d85576040517f08c379a0000000000000000000000000000000000000000000000000000000008152600401611d7c9061430c565b60405180910390fd5b6000600c60003373ffffffffffffffffffffffffffffffffffffffff1673ffffffffffffffffffffffffffffffffffffffff16815260200190815260200160002054905060038a60ff1682611dda9190614486565b1115611e1b576040517f08c379a0000000000000000000000000000000000000000000000000000000008152600401611e129061404c565b60405180910390fd5b8960ff1681611e2a9190614486565b600c60003373ffffffffffffffffffffffffffffffffffffffff1673ffffffffffffffffffffffffffffffffffffffff1681526020019081526020016000208190555060005b8a60ff16811015611e9f57611e8c33611e8761292d565b612948565b8080611e97906146dd565b915050611e70565b50505050505050506001600781905550505050565b611ebc6124ed565b73ffffffffffffffffffffffffffffffffffffffff16611eda611a5b565b73ffffffffffffffffffffffffffffffffffffffff1614611f30576040517f08c379a0000000000000000000000000000000000000000000000000000000008152600401611f279061426c565b60405180910390fd5b80600d8190555050565b611f4b611f456124ed565b836125ae565b611f8a576040517f08c379a0000000000000000000000000000000000000000000000000000000008152600401611f81906142ec565b60405180910390fd5b611f9684848484612bb0565b50505050565b6060611fa782612481565b611fe6576040517f08c379a0000000000000000000000000000000000000000000000000000000008152600401611fdd906141cc565b60405180910390fd5b6009611ff183612c0c565b604051602001612002929190613f2a565b6040516020818303038152906040529050919050565b6002600754141561205e576040517f08c379a00000000000000000000000000000000000000000000000000000000081526004016120559061434c565b60405180910390fd5b600260078190555061206e6124ed565b73ffffffffffffffffffffffffffffffffffffffff1661208c611a5b565b73ffffffffffffffffffffffffffffffffffffffff16146120e2576040517f08c379a00000000000000000000000000000000000000000000000000000000081526004016120d99061426c565b60405180910390fd5b8060c881600a546120f39190614486565b1115612134576040517f08c379a000000000000000000000000000000000000000000000000000000000815260040161212b9061432c565b60405180910390fd5b611f4081612142600861291f565b61214c9190614486565b111561218d576040517f08c379a00000000000000000000000000000000000000000000000000000000081526004016121849061416c565b60405180910390fd5b81600a600082825461219f9190614486565b9250508190555060005b828110156121d5576121c2336121bd61292d565b612948565b80806121cd906146dd565b9150506121a9565b5050600160078190555050565b600581565b600e60039054906101000a900473ffffffffffffffffffffffffffffffffffffffff1681565b6000600560008473ffffffffffffffffffffffffffffffffffffffff1673ffffffffffffffffffffffffffffffffffffffff16815260200190815260200160002060008373ffffffffffffffffffffffffffffffffffffffff1673ffffffffffffffffffffffffffffffffffffffff16815260200190815260200160002060009054906101000a900460ff16905092915050565b6122a96124ed565b73ffffffffffffffffffffffffffffffffffffffff166122c7611a5b565b73ffffffffffffffffffffffffffffffffffffffff161461231d576040517f08c379a00000000000000000000000000000000000000000000000000000000081526004016123149061426c565b60405180910390fd5b600073ffffffffffffffffffffffffffffffffffffffff168173ffffffffffffffffffffffffffffffffffffffff16141561238d576040517f08c379a00000000000000000000000000000000000000000000000000000000081526004016123849061408c565b60405180910390fd5b61239681612966565b50565b600d5481565b60007f80ac58cd000000000000000000000000000000000000000000000000000000007bffffffffffffffffffffffffffffffffffffffffffffffffffffffff1916827bffffffffffffffffffffffffffffffffffffffffffffffffffffffff1916148061246a57507f5b5e139f000000000000000000000000000000000000000000000000000000007bffffffffffffffffffffffffffffffffffffffffffffffffffffffff1916827bffffffffffffffffffffffffffffffffffffffffffffffffffffffff1916145b8061247a575061247982612db9565b5b9050919050565b60008073ffffffffffffffffffffffffffffffffffffffff166002600084815260200190815260200160002060009054906101000a900473ffffffffffffffffffffffffffffffffffffffff1673ffffffffffffffffffffffffffffffffffffffff1614159050919050565b600033905090565b816004600083815260200190815260200160002060006101000a81548173ffffffffffffffffffffffffffffffffffffffff021916908373ffffffffffffffffffffffffffffffffffffffff160217905550808273ffffffffffffffffffffffffffffffffffffffff16612568836116e9565b73ffffffffffffffffffffffffffffffffffffffff167f8c5be1e5ebec7d5bd14f71427d1e84f3dd0314c0f7b2291e5b200ac8c7c3b92560405160405180910390a45050565b60006125b982612481565b6125f8576040517f08c379a00000000000000000000000000000000000000000000000000000000081526004016125ef9061414c565b60405180910390fd5b6000612603836116e9565b90508073ffffffffffffffffffffffffffffffffffffffff168473ffffffffffffffffffffffffffffffffffffffff1614806126455750612644818561220d565b5b8061268357508373ffffffffffffffffffffffffffffffffffffffff1661266b84610b69565b73ffffffffffffffffffffffffffffffffffffffff16145b91505092915050565b8273ffffffffffffffffffffffffffffffffffffffff166126ac826116e9565b73ffffffffffffffffffffffffffffffffffffffff1614612702576040517f08c379a00000000000000000000000000000000000000000000000000000000081526004016126f9906140ac565b60405180910390fd5b600073ffffffffffffffffffffffffffffffffffffffff168273ffffffffffffffffffffffffffffffffffffffff161415612772576040517f08c379a0000000000000000000000000000000000000000000000000000000008152600401612769906140ec565b60405180910390fd5b61277d838383612e23565b6127886000826124f5565b6001600360008573ffffffffffffffffffffffffffffffffffffffff1673ffffffffffffffffffffffffffffffffffffffff16815260200190815260200160002060008282546127d89190614567565b925050819055506001600360008473ffffffffffffffffffffffffffffffffffffffff1673ffffffffffffffffffffffffffffffffffffffff168152602001908152602001600020600082825461282f9190614486565b92505081905550816002600083815260200190815260200160002060006101000a81548173ffffffffffffffffffffffffffffffffffffffff021916908373ffffffffffffffffffffffffffffffffffffffff160217905550808273ffffffffffffffffffffffffffffffffffffffff168473ffffffffffffffffffffffffffffffffffffffff167fddf252ad1be2c89b69c2b068fc378daa952ba7f163c4a11628f55a4df523b3ef60405160405180910390a46128ee838383612e28565b505050565b60008183612901919061450d565b905092915050565b6000818361291791906144dc565b905092915050565b600081600001549050919050565b60006129396008612e2d565b612943600861291f565b905090565b612962828260405180602001604052806000815250612e43565b5050565b6000600660009054906101000a900473ffffffffffffffffffffffffffffffffffffffff16905081600660006101000a81548173ffffffffffffffffffffffffffffffffffffffff021916908373ffffffffffffffffffffffffffffffffffffffff1602179055508173ffffffffffffffffffffffffffffffffffffffff168173ffffffffffffffffffffffffffffffffffffffff167f8be0079c531659141344cd1fd0a4f28419497f9722a3daafe3b4186f6b6457e060405160405180910390a35050565b8173ffffffffffffffffffffffffffffffffffffffff168373ffffffffffffffffffffffffffffffffffffffff161415612a9b576040517f08c379a0000000000000000000000000000000000000000000000000000000008152600401612a929061410c565b60405180910390fd5b80600560008573ffffffffffffffffffffffffffffffffffffffff1673ffffffffffffffffffffffffffffffffffffffff16815260200190815260200160002060008473ffffffffffffffffffffffffffffffffffffffff1673ffffffffffffffffffffffffffffffffffffffff16815260200190815260200160002060006101000a81548160ff0219169083151502179055508173ffffffffffffffffffffffffffffffffffffffff168373ffffffffffffffffffffffffffffffffffffffff167f17307eab39ab6107e8899845ad3d59bd9653f200f220920489ca2b5937696c3183604051612b8c9190613ff4565b60405180910390a3505050565b600082612ba68584612e9e565b1490509392505050565b612bbb84848461268c565b612bc784848484612f39565b612c06576040517f08c379a0000000000000000000000000000000000000000000000000000000008152600401612bfd9061406c565b60405180910390fd5b50505050565b60606000821415612c54576040518060400160405280600181526020017f30000000000000000000000000000000000000000000000000000000000000008152509050612db4565b600082905060005b60008214612c86578080612c6f906146dd565b915050600a82612c7f91906144dc565b9150612c5c565b60008167ffffffffffffffff811115612cc8577f4e487b7100000000000000000000000000000000000000000000000000000000600052604160045260246000fd5b6040519080825280601f01601f191660200182016040528015612cfa5781602001600182028036833780820191505090505b5090505b60008514612dad57600182612d139190614567565b9150600a85612d22919061474a565b6030612d2e9190614486565b60f81b818381518110612d6a577f4e487b7100000000000000000000000000000000000000000000000000000000600052603260045260246000fd5b60200101907effffffffffffffffffffffffffffffffffffffffffffffffffffffffffffff1916908160001a905350600a85612da691906144dc565b9450612cfe565b8093505050505b919050565b60007f01ffc9a7000000000000000000000000000000000000000000000000000000007bffffffffffffffffffffffffffffffffffffffffffffffffffffffff1916827bffffffffffffffffffffffffffffffffffffffffffffffffffffffff1916149050919050565b505050565b505050565b6001816000016000828254019250508190555050565b612e4d83836130d0565b612e5a6000848484612f39565b612e99576040517f08c379a0000000000000000000000000000000000000000000000000000000008152600401612e909061406c565b60405180910390fd5b505050565b60008082905060005b8451811015612f2e576000858281518110612eeb577f4e487b7100000000000000000000000000000000000000000000000000000000600052603260045260246000fd5b60200260200101519050808311612f0d57612f0683826132aa565b9250612f1a565b612f1781846132aa565b92505b508080612f26906146dd565b915050612ea7565b508091505092915050565b6000612f5a8473ffffffffffffffffffffffffffffffffffffffff166132c1565b156130c3578373ffffffffffffffffffffffffffffffffffffffff1663150b7a02612f836124ed565b8786866040518563ffffffff1660e01b8152600401612fa59493929190613f7f565b602060405180830381600087803b158015612fbf57600080fd5b505af1925050508015612ff057506040513d601f19601f82011682018060405250810190612fed919061384d565b60015b613073573d8060008114613020576040519150601f19603f3d011682016040523d82523d6000602084013e613025565b606091505b5060008151141561306b576040517f08c379a00000000000000000000000000000000000000000000000000000000081526004016130629061406c565b60405180910390fd5b805181602001fd5b63150b7a0260e01b7bffffffffffffffffffffffffffffffffffffffffffffffffffffffff1916817bffffffffffffffffffffffffffffffffffffffffffffffffffffffff1916149150506130c8565b600190505b949350505050565b600073ffffffffffffffffffffffffffffffffffffffff168273ffffffffffffffffffffffffffffffffffffffff161415613140576040517f08c379a00000000000000000000000000000000000000000000000000000000081526004016131379061422c565b60405180910390fd5b61314981612481565b15613189576040517f08c379a0000000000000000000000000000000000000000000000000000000008152600401613180906140cc565b60405180910390fd5b61319560008383612e23565b6001600360008473ffffffffffffffffffffffffffffffffffffffff1673ffffffffffffffffffffffffffffffffffffffff16815260200190815260200160002060008282546131e59190614486565b92505081905550816002600083815260200190815260200160002060006101000a81548173ffffffffffffffffffffffffffffffffffffffff021916908373ffffffffffffffffffffffffffffffffffffffff160217905550808273ffffffffffffffffffffffffffffffffffffffff16600073ffffffffffffffffffffffffffffffffffffffff167fddf252ad1be2c89b69c2b068fc378daa952ba7f163c4a11628f55a4df523b3ef60405160405180910390a46132a660008383612e28565b5050565b600082600052816020526040600020905092915050565b6000808273ffffffffffffffffffffffffffffffffffffffff163b119050919050565b8280546132f09061467a565b90600052602060002090601f0160209004810192826133125760008555613359565b82601f1061332b57805160ff1916838001178555613359565b82800160010185558215613359579182015b8281111561335857825182559160200191906001019061333d565b5b509050613366919061336a565b5090565b5b8082111561338357600081600090555060010161336b565b5090565b600061339a613395846143cc565b6143a7565b9050828152602081018484840111156133b257600080fd5b6133bd848285614638565b509392505050565b60006133d86133d3846143fd565b6143a7565b9050828152602081018484840111156133f057600080fd5b6133fb848285614638565b509392505050565b60008135905061341281614e73565b92915050565b60008083601f84011261342a57600080fd5b8235905067ffffffffffffffff81111561344357600080fd5b60208301915083602082028301111561345b57600080fd5b9250929050565b60008083601f84011261347457600080fd5b8235905067ffffffffffffffff81111561348d57600080fd5b6020830191508360208202830111156134a557600080fd5b9250929050565b6000813590506134bb81614e8a565b92915050565b6000815190506134d081614e8a565b92915050565b6000813590506134e581614ea1565b92915050565b6000813590506134fa81614eb8565b92915050565b60008151905061350f81614eb8565b92915050565b600082601f83011261352657600080fd5b8135613536848260208601613387565b91505092915050565b60008135905061354e81614ecf565b92915050565b600082601f83011261356557600080fd5b81356135758482602086016133c5565b91505092915050565b60008135905061358d81614ee6565b92915050565b6000815190506135a281614ee6565b92915050565b6000813590506135b781614efd565b92915050565b6000602082840312156135cf57600080fd5b60006135dd84828501613403565b91505092915050565b600080604083850312156135f957600080fd5b600061360785828601613403565b925050602061361885828601613403565b9150509250929050565b60008060006060848603121561363757600080fd5b600061364586828701613403565b935050602061365686828701613403565b92505060406136678682870161357e565b9150509250925092565b6000806000806080858703121561368757600080fd5b600061369587828801613403565b94505060206136a687828801613403565b93505060406136b78782880161357e565b925050606085013567ffffffffffffffff8111156136d457600080fd5b6136e087828801613515565b91505092959194509250565b600080604083850312156136ff57600080fd5b600061370d85828601613403565b925050602061371e858286016134ac565b9150509250929050565b6000806040838503121561373b57600080fd5b600061374985828601613403565b925050602061375a8582860161357e565b9150509250929050565b6000806020838503121561377757600080fd5b600083013567ffffffffffffffff81111561379157600080fd5b61379d85828601613418565b92509250509250929050565b6000602082840312156137bb57600080fd5b60006137c9848285016134ac565b91505092915050565b6000602082840312156137e457600080fd5b60006137f2848285016134c1565b91505092915050565b60006020828403121561380d57600080fd5b600061381b848285016134d6565b91505092915050565b60006020828403121561383657600080fd5b6000613844848285016134eb565b91505092915050565b60006020828403121561385f57600080fd5b600061386d84828501613500565b91505092915050565b60006020828403121561388857600080fd5b60006138968482850161353f565b91505092915050565b6000602082840312156138b157600080fd5b600082013567ffffffffffffffff8111156138cb57600080fd5b6138d784828501613554565b91505092915050565b6000602082840312156138f257600080fd5b60006139008482850161357e565b91505092915050565b60006020828403121561391b57600080fd5b600061392984828501613593565b91505092915050565b6000806040838503121561394557600080fd5b60006139538582860161357e565b92505060206139648582860161357e565b9150509250929050565b60008060006040848603121561398357600080fd5b6000613991868287016135a8565b935050602084013567ffffffffffffffff8111156139ae57600080fd5b6139ba86828701613462565b92509250509250925092565b6139cf8161459b565b82525050565b6139e66139e18261459b565b614726565b82525050565b6139f5816145ad565b82525050565b613a04816145b9565b82525050565b6000613a1582614443565b613a1f8185614459565b9350613a2f818560208601614647565b613a3881614837565b840191505092915050565b6000613a4e8261444e565b613a58818561446a565b9350613a68818560208601614647565b613a7181614837565b840191505092915050565b6000613a878261444e565b613a91818561447b565b9350613aa1818560208601614647565b80840191505092915050565b60008154613aba8161467a565b613ac4818661447b565b94506001821660008114613adf5760018114613af057613b23565b60ff19831686528186019350613b23565b613af98561442e565b60005b83811015613b1b57815481890152600182019150602081019050613afc565b838801955050505b50505092915050565b6000613b3960208361446a565b9150613b4482614855565b602082019050919050565b6000613b5c60328361446a565b9150613b678261487e565b604082019050919050565b6000613b7f60268361446a565b9150613b8a826148cd565b604082019050919050565b6000613ba260258361446a565b9150613bad8261491c565b604082019050919050565b6000613bc5601c8361446a565b9150613bd08261496b565b602082019050919050565b6000613be860248361446a565b9150613bf382614994565b604082019050919050565b6000613c0b60198361446a565b9150613c16826149e3565b602082019050919050565b6000613c2e60178361446a565b9150613c3982614a0c565b602082019050919050565b6000613c51602c8361446a565b9150613c5c82614a35565b604082019050919050565b6000613c74601d8361446a565b9150613c7f82614a84565b602082019050919050565b6000613c97601e8361446a565b9150613ca282614aad565b602082019050919050565b6000613cba60388361446a565b9150613cc582614ad6565b604082019050919050565b6000613cdd60118361446a565b9150613ce882614b25565b602082019050919050565b6000613d00602a8361446a565b9150613d0b82614b4e565b604082019050919050565b6000613d2360298361446a565b9150613d2e82614b9d565b604082019050919050565b6000613d4660208361446a565b9150613d5182614bec565b602082019050919050565b6000613d69602c8361446a565b9150613d7482614c15565b604082019050919050565b6000613d8c60058361447b565b9150613d9782614c64565b600582019050919050565b6000613daf60208361446a565b9150613dba82614c8d565b602082019050919050565b6000613dd260148361446a565b9150613ddd82614cb6565b602082019050919050565b6000613df560138361446a565b9150613e0082614cdf565b602082019050919050565b6000613e1860218361446a565b9150613e2382614d08565b604082019050919050565b6000613e3b60318361446a565b9150613e4682614d57565b604082019050919050565b6000613e5e60188361446a565b9150613e6982614da6565b602082019050919050565b6000613e81601a8361446a565b9150613e8c82614dcf565b602082019050919050565b6000613ea4601f8361446a565b9150613eaf82614df8565b602082019050919050565b6000613ec760178361446a565b9150613ed282614e21565b602082019050919050565b6000613eea60018361447b565b9150613ef582614e4a565b600182019050919050565b613f0981614621565b82525050565b6000613f1b82846139d5565b60148201915081905092915050565b6000613f368285613aad565b9150613f4182613edd565b9150613f4d8284613a7c565b9150613f5882613d7f565b91508190509392505050565b6000602082019050613f7960008301846139c6565b92915050565b6000608082019050613f9460008301876139c6565b613fa160208301866139c6565b613fae6040830185613f00565b8181036060830152613fc08184613a0a565b905095945050505050565b6000604082019050613fe060008301856139c6565b613fed6020830184613f00565b9392505050565b600060208201905061400960008301846139ec565b92915050565b600060208201905061402460008301846139fb565b92915050565b600060208201905081810360008301526140448184613a43565b905092915050565b6000602082019050818103600083015261406581613b2c565b9050919050565b6000602082019050818103600083015261408581613b4f565b9050919050565b600060208201905081810360008301526140a581613b72565b9050919050565b600060208201905081810360008301526140c581613b95565b9050919050565b600060208201905081810360008301526140e581613bb8565b9050919050565b6000602082019050818103600083015261410581613bdb565b9050919050565b6000602082019050818103600083015261412581613bfe565b9050919050565b6000602082019050818103600083015261414581613c21565b9050919050565b6000602082019050818103600083015261416581613c44565b9050919050565b6000602082019050818103600083015261418581613c67565b9050919050565b600060208201905081810360008301526141a581613c8a565b9050919050565b600060208201905081810360008301526141c581613cad565b9050919050565b600060208201905081810360008301526141e581613cd0565b9050919050565b6000602082019050818103600083015261420581613cf3565b9050919050565b6000602082019050818103600083015261422581613d16565b9050919050565b6000602082019050818103600083015261424581613d39565b9050919050565b6000602082019050818103600083015261426581613d5c565b9050919050565b6000602082019050818103600083015261428581613da2565b9050919050565b600060208201905081810360008301526142a581613dc5565b9050919050565b600060208201905081810360008301526142c581613de8565b9050919050565b600060208201905081810360008301526142e581613e0b565b9050919050565b6000602082019050818103600083015261430581613e2e565b9050919050565b6000602082019050818103600083015261432581613e51565b9050919050565b6000602082019050818103600083015261434581613e74565b9050919050565b6000602082019050818103600083015261436581613e97565b9050919050565b6000602082019050818103600083015261438581613eba565b9050919050565b60006020820190506143a16000830184613f00565b92915050565b60006143b16143c2565b90506143bd82826146ac565b919050565b6000604051905090565b600067ffffffffffffffff8211156143e7576143e6614808565b5b6143f082614837565b9050602081019050919050565b600067ffffffffffffffff82111561441857614417614808565b5b61442182614837565b9050602081019050919050565b60008190508160005260206000209050919050565b600081519050919050565b600081519050919050565b600082825260208201905092915050565b600082825260208201905092915050565b600081905092915050565b600061449182614621565b915061449c83614621565b9250827fffffffffffffffffffffffffffffffffffffffffffffffffffffffffffffffff038211156144d1576144d061477b565b5b828201905092915050565b60006144e782614621565b91506144f283614621565b925082614502576145016147aa565b5b828204905092915050565b600061451882614621565b915061452383614621565b9250817fffffffffffffffffffffffffffffffffffffffffffffffffffffffffffffffff048311821515161561455c5761455b61477b565b5b828202905092915050565b600061457282614621565b915061457d83614621565b9250828210156145905761458f61477b565b5b828203905092915050565b60006145a682614601565b9050919050565b60008115159050919050565b6000819050919050565b60007fffffffff0000000000000000000000000000000000000000000000000000000082169050919050565b60006145fa8261459b565b9050919050565b600073ffffffffffffffffffffffffffffffffffffffff82169050919050565b6000819050919050565b600060ff82169050919050565b82818337600083830152505050565b60005b8381101561466557808201518184015260208101905061464a565b83811115614674576000848401525b50505050565b6000600282049050600182168061469257607f821691505b602082108114156146a6576146a56147d9565b5b50919050565b6146b582614837565b810181811067ffffffffffffffff821117156146d4576146d3614808565b5b80604052505050565b60006146e882614621565b91507fffffffffffffffffffffffffffffffffffffffffffffffffffffffffffffffff82141561471b5761471a61477b565b5b600182019050919050565b600061473182614738565b9050919050565b600061474382614848565b9050919050565b600061475582614621565b915061476083614621565b9250826147705761476f6147aa565b5b828206905092915050565b7f4e487b7100000000000000000000000000000000000000000000000000000000600052601160045260246000fd5b7f4e487b7100000000000000000000000000000000000000000000000000000000600052601260045260246000fd5b7f4e487b7100000000000000000000000000000000000000000000000000000000600052602260045260246000fd5b7f4e487b7100000000000000000000000000000000000000000000000000000000600052604160045260246000fd5b6000601f19601f8301169050919050565b60008160601b9050919050565b7f436c61696d65642f696e76616c696420746f6b656e7320726571756573746564600082015250565b7f4552433732313a207472616e7366657220746f206e6f6e20455243373231526560008201527f63656976657220696d706c656d656e7465720000000000000000000000000000602082015250565b7f4f776e61626c653a206e6577206f776e657220697320746865207a65726f206160008201527f6464726573730000000000000000000000000000000000000000000000000000602082015250565b7f4552433732313a207472616e736665722066726f6d20696e636f72726563742060008201527f6f776e6572000000000000000000000000000000000000000000000000000000602082015250565b7f4552433732313a20746f6b656e20616c7265616479206d696e74656400000000600082015250565b7f4552433732313a207472616e7366657220746f20746865207a65726f2061646460008201527f7265737300000000000000000000000000000000000000000000000000000000602082015250565b7f4552433732313a20617070726f766520746f2063616c6c657200000000000000600082015250565b7f4d617820746f6b656e7320746f206d696e742069732035000000000000000000600082015250565b7f4552433732313a206f70657261746f7220717565727920666f72206e6f6e657860008201527f697374656e7420746f6b656e0000000000000000000000000000000000000000602082015250565b7f496e73756666696369656e7420746f6b656e732072656d61696e696e67000000600082015250565b7f4164647265737320646f6573206e6f7420657869737420696e206c6973740000600082015250565b7f4552433732313a20617070726f76652063616c6c6572206973206e6f74206f7760008201527f6e6572206e6f7220617070726f76656420666f7220616c6c0000000000000000602082015250565b7f4e6f6e6578697374656e7420746f6b656e000000000000000000000000000000600082015250565b7f4552433732313a2062616c616e636520717565727920666f7220746865207a6560008201527f726f206164647265737300000000000000000000000000000000000000000000602082015250565b7f4552433732313a206f776e657220717565727920666f72206e6f6e657869737460008201527f656e7420746f6b656e0000000000000000000000000000000000000000000000602082015250565b7f4552433732313a206d696e7420746f20746865207a65726f2061646472657373600082015250565b7f4552433732313a20617070726f76656420717565727920666f72206e6f6e657860008201527f697374656e7420746f6b656e0000000000000000000000000000000000000000602082015250565b7f2e6a736f6e000000000000000000000000000000000000000000000000000000600082015250565b7f4f776e61626c653a2063616c6c6572206973206e6f7420746865206f776e6572600082015250565b7f6d6178207075626c6963206d696e742069732035000000000000000000000000600082015250565b7f50726573616c65206973206e6f74206f70656e00000000000000000000000000600082015250565b7f4552433732313a20617070726f76616c20746f2063757272656e74206f776e6560008201527f7200000000000000000000000000000000000000000000000000000000000000602082015250565b7f4552433732313a207472616e736665722063616c6c6572206973206e6f74206f60008201527f776e6572206e6f7220617070726f766564000000000000000000000000000000602082015250565b7f496e636f7272656374204554482076616c75652073656e740000000000000000600082015250565b7f496e73756666696369656e7420746f6b656e2072657365727665000000000000600082015250565b7f5265656e7472616e637947756172643a207265656e7472616e742063616c6c00600082015250565b7f5075626c69632073616c65206973206e6f74206f70656e000000000000000000600082015250565b7f2f00000000000000000000000000000000000000000000000000000000000000600082015250565b614e7c8161459b565b8114614e8757600080fd5b50565b614e93816145ad565b8114614e9e57600080fd5b50565b614eaa816145b9565b8114614eb557600080fd5b50565b614ec1816145c3565b8114614ecc57600080fd5b50565b614ed8816145ef565b8114614ee357600080fd5b50565b614eef81614621565b8114614efa57600080fd5b50565b614f068161462b565b8114614f1157600080fd5b5056fea26469706673582212209e3955c68c76c0ff4035e6637a20fbb141ec61e9d4e6e01aa1ada27bfb19e66764736f6c63430008040033",
  "linkReferences": {},
  "deployedLinkReferences": {}
}