{
  "_format": "hh-sol-artifact-1",
  "contractName": "NonFungibleCoinbae",
  "sourceName": "contracts/nft.sol",
  "abi": [
    {
      "inputs": [
        {
          "internalType": "address",
          "name": "_royaltyReceiverAddress",
          "type": "address"
        }
      ],
      "stateMutability": "nonpayable",
      "type": "constructor"
    },
    {
      "anonymous": false,
      "inputs": [
        {
          "indexed": true,
          "internalType": "address",
          "name": "owner",
          "type": "address"
        },
        {
          "indexed": true,
          "internalType": "address",
          "name": "approved",
          "type": "address"
        },
        {
          "indexed": true,
          "internalType": "uint256",
          "name": "tokenId",
          "type": "uint256"
        }
      ],
      "name": "Approval",
      "type": "event"
    },
    {
      "anonymous": false,
      "inputs": [
        {
          "indexed": true,
          "internalType": "address",
          "name": "owner",
          "type": "address"
        },
        {
          "indexed": true,
          "internalType": "address",
          "name": "operator",
          "type": "address"
        },
        {
          "indexed": false,
          "internalType": "bool",
          "name": "approved",
          "type": "bool"
        }
      ],
      "name": "ApprovalForAll",
      "type": "event"
    },
    {
      "anonymous": false,
      "inputs": [
        {
          "indexed": true,
          "internalType": "address",
          "name": "previousOwner",
          "type": "address"
        },
        {
          "indexed": true,
          "internalType": "address",
          "name": "newOwner",
          "type": "address"
        }
      ],
      "name": "OwnershipTransferred",
      "type": "event"
    },
    {
      "anonymous": false,
      "inputs": [
        {
          "indexed": true,
          "internalType": "address",
          "name": "from",
          "type": "address"
        },
        {
          "indexed": true,
          "internalType": "address",
          "name": "to",
          "type": "address"
        },
        {
          "indexed": true,
          "internalType": "uint256",
          "name": "tokenId",
          "type": "uint256"
        }
      ],
      "name": "Transfer",
      "type": "event"
    },
    {
      "inputs": [],
      "name": "MAX_PRE_SALE_MINTS",
      "outputs": [
        {
          "internalType": "uint256",
          "name": "",
          "type": "uint256"
        }
      ],
      "stateMutability": "view",
      "type": "function"
    },
    {
      "inputs": [],
      "name": "MAX_PUBLIC_SALE_MINTS",
      "outputs": [
        {
          "internalType": "uint256",
          "name": "",
          "type": "uint256"
        }
      ],
      "stateMutability": "view",
      "type": "function"
    },
    {
      "inputs": [],
      "name": "MAX_RESERVE_TOKENS",
      "outputs": [
        {
          "internalType": "uint256",
          "name": "",
          "type": "uint256"
        }
      ],
      "stateMutability": "view",
      "type": "function"
    },
    {
      "inputs": [],
      "name": "MAX_TOKENS_PER_WALLET",
      "outputs": [
        {
          "internalType": "uint256",
          "name": "",
          "type": "uint256"
        }
      ],
      "stateMutability": "view",
      "type": "function"
    },
    {
      "inputs": [],
      "name": "MAX_TOTAL_SUPPLY",
      "outputs": [
        {
          "internalType": "uint256",
          "name": "",
          "type": "uint256"
        }
      ],
      "stateMutability": "view",
      "type": "function"
    },
    {
      "inputs": [],
      "name": "PRE_SALE_PRICE",
      "outputs": [
        {
          "internalType": "uint256",
          "name": "",
          "type": "uint256"
        }
      ],
      "stateMutability": "view",
      "type": "function"
    },
    {
      "inputs": [],
      "name": "PUBLIC_SALE_PRICE",
      "outputs": [
        {
          "internalType": "uint256",
          "name": "",
          "type": "uint256"
        }
      ],
      "stateMutability": "view",
      "type": "function"
    },
    {
      "inputs": [
        {
          "internalType": "address",
          "name": "to",
          "type": "address"
        },
        {
          "internalType": "uint256",
          "name": "tokenId",
          "type": "uint256"
        }
      ],
      "name": "approve",
      "outputs": [],
      "stateMutability": "nonpayable",
      "type": "function"
    },
    {
      "inputs": [
        {
          "internalType": "address",
          "name": "owner",
          "type": "address"
        }
      ],
      "name": "balanceOf",
      "outputs": [
        {
          "internalType": "uint256",
          "name": "",
          "type": "uint256"
        }
      ],
      "stateMutability": "view",
      "type": "function"
    },
    {
      "inputs": [
        {
          "internalType": "uint256",
          "name": "tokenId",
          "type": "uint256"
        }
      ],
      "name": "getApproved",
      "outputs": [
        {
          "internalType": "address",
          "name": "",
          "type": "address"
        }
      ],
      "stateMutability": "view",
      "type": "function"
    },
    {
      "inputs": [],
      "name": "getBaseURI",
      "outputs": [
        {
          "internalType": "string",
          "name": "",
          "type": "string"
        }
      ],
      "stateMutability": "view",
      "type": "function"
    },
    {
      "inputs": [],
      "name": "getLastTokenId",
      "outputs": [
        {
          "internalType": "uint256",
          "name": "",
          "type": "uint256"
        }
      ],
      "stateMutability": "view",
      "type": "function"
    },
    {
      "inputs": [
        {
          "internalType": "address[]",
          "name": "addresses",
          "type": "address[]"
        }
      ],
      "name": "giftTokens",
      "outputs": [],
      "stateMutability": "nonpayable",
      "type": "function"
    },
    {
      "inputs": [
        {
          "internalType": "address",
          "name": "owner",
          "type": "address"
        },
        {
          "internalType": "address",
          "name": "operator",
          "type": "address"
        }
      ],
      "name": "isApprovedForAll",
      "outputs": [
        {
          "internalType": "bool",
          "name": "",
          "type": "bool"
        }
      ],
      "stateMutability": "view",
      "type": "function"
    },
    {
      "inputs": [],
      "name": "isPreSaleActive",
      "outputs": [
        {
          "internalType": "bool",
          "name": "",
          "type": "bool"
        }
      ],
      "stateMutability": "view",
      "type": "function"
    },
    {
      "inputs": [],
      "name": "isPublicSaleActive",
      "outputs": [
        {
          "internalType": "bool",
          "name": "",
          "type": "bool"
        }
      ],
      "stateMutability": "view",
      "type": "function"
    },
    {
      "inputs": [],
      "name": "isReservedMintActive",
      "outputs": [
        {
          "internalType": "bool",
          "name": "",
          "type": "bool"
        }
      ],
      "stateMutability": "view",
      "type": "function"
    },
    {
      "inputs": [
        {
          "internalType": "uint8",
          "name": "numberOfTokens",
          "type": "uint8"
        },
        {
          "internalType": "bytes32[]",
          "name": "merkleProof",
          "type": "bytes32[]"
        }
      ],
      "name": "mintPreSale",
      "outputs": [],
      "stateMutability": "payable",
      "type": "function"
    },
    {
      "inputs": [
        {
          "internalType": "uint256",
          "name": "numberOfTokens",
          "type": "uint256"
        }
      ],
      "name": "mintPublicSale",
      "outputs": [],
      "stateMutability": "payable",
      "type": "function"
    },
    {
      "inputs": [
        {
          "internalType": "bytes32[]",
          "name": "merkleProof",
          "type": "bytes32[]"
        }
      ],
      "name": "mintReserved",
      "outputs": [],
      "stateMutability": "nonpayable",
      "type": "function"
    },
    {
      "inputs": [],
      "name": "name",
      "outputs": [
        {
          "internalType": "string",
          "name": "",
          "type": "string"
        }
      ],
      "stateMutability": "view",
      "type": "function"
    },
    {
      "inputs": [],
      "name": "numGiftedTokens",
      "outputs": [
        {
          "internalType": "uint256",
          "name": "",
          "type": "uint256"
        }
      ],
      "stateMutability": "view",
      "type": "function"
    },
    {
      "inputs": [],
      "name": "owner",
      "outputs": [
        {
          "internalType": "address",
          "name": "",
          "type": "address"
        }
      ],
      "stateMutability": "view",
      "type": "function"
    },
    {
      "inputs": [
        {
          "internalType": "uint256",
          "name": "tokenId",
          "type": "uint256"
        }
      ],
      "name": "ownerOf",
      "outputs": [
        {
          "internalType": "address",
          "name": "",
          "type": "address"
        }
      ],
      "stateMutability": "view",
      "type": "function"
    },
    {
      "inputs": [
        {
          "internalType": "address",
          "name": "",
          "type": "address"
        }
      ],
      "name": "preSaleMintCounts",
      "outputs": [
        {
          "internalType": "uint256",
          "name": "",
          "type": "uint256"
        }
      ],
      "stateMutability": "view",
      "type": "function"
    },
    {
      "inputs": [],
      "name": "presaleListMerkleRoot",
      "outputs": [
        {
          "internalType": "bytes32",
          "name": "",
          "type": "bytes32"
        }
      ],
      "stateMutability": "view",
      "type": "function"
    },
    {
      "inputs": [],
      "name": "renounceOwnership",
      "outputs": [],
      "stateMutability": "nonpayable",
      "type": "function"
    },
    {
      "inputs": [
        {
          "internalType": "uint256",
          "name": "numToReserve",
          "type": "uint256"
        }
      ],
      "name": "reserveForTeam",
      "outputs": [],
      "stateMutability": "nonpayable",
      "type": "function"
    },
    {
      "inputs": [],
      "name": "reserveListMerkleRoot",
      "outputs": [
        {
          "internalType": "bytes32",
          "name": "",
          "type": "bytes32"
        }
      ],
      "stateMutability": "view",
      "type": "function"
    },
    {
      "inputs": [
        {
          "internalType": "address",
          "name": "",
          "type": "address"
        }
      ],
      "name": "reservedMintCounts",
      "outputs": [
        {
          "internalType": "bool",
          "name": "",
          "type": "bool"
        }
      ],
      "stateMutability": "view",
      "type": "function"
    },
    {
      "inputs": [
        {
          "internalType": "uint256",
          "name": "tokenId",
          "type": "uint256"
        },
        {
          "internalType": "uint256",
          "name": "salePrice",
          "type": "uint256"
        }
      ],
      "name": "royaltyInfo",
      "outputs": [
        {
          "internalType": "address",
          "name": "receiver",
          "type": "address"
        },
        {
          "internalType": "uint256",
          "name": "royaltyAmount",
          "type": "uint256"
        }
      ],
      "stateMutability": "view",
      "type": "function"
    },
    {
      "inputs": [],
      "name": "royaltyReceiverAddress",
      "outputs": [
        {
          "internalType": "address",
          "name": "",
          "type": "address"
        }
      ],
      "stateMutability": "view",
      "type": "function"
    },
    {
      "inputs": [
        {
          "internalType": "address",
          "name": "from",
          "type": "address"
        },
        {
          "internalType": "address",
          "name": "to",
          "type": "address"
        },
        {
          "internalType": "uint256",
          "name": "tokenId",
          "type": "uint256"
        }
      ],
      "name": "safeTransferFrom",
      "outputs": [],
      "stateMutability": "nonpayable",
      "type": "function"
    },
    {
      "inputs": [
        {
          "internalType": "address",
          "name": "from",
          "type": "address"
        },
        {
          "internalType": "address",
          "name": "to",
          "type": "address"
        },
        {
          "internalType": "uint256",
          "name": "tokenId",
          "type": "uint256"
        },
        {
          "internalType": "bytes",
          "name": "_data",
          "type": "bytes"
        }
      ],
      "name": "safeTransferFrom",
      "outputs": [],
      "stateMutability": "nonpayable",
      "type": "function"
    },
    {
      "inputs": [
        {
          "internalType": "address",
          "name": "operator",
          "type": "address"
        },
        {
          "internalType": "bool",
          "name": "approved",
          "type": "bool"
        }
      ],
      "name": "setApprovalForAll",
      "outputs": [],
      "stateMutability": "nonpayable",
      "type": "function"
    },
    {
      "inputs": [
        {
          "internalType": "string",
          "name": "_baseURI",
          "type": "string"
        }
      ],
      "name": "setBaseURI",
      "outputs": [],
      "stateMutability": "nonpayable",
      "type": "function"
    },
    {
      "inputs": [
        {
          "internalType": "bool",
          "name": "_isPreSaleActive",
          "type": "bool"
        }
      ],
      "name": "setIsPreSaleActive",
      "outputs": [],
      "stateMutability": "nonpayable",
      "type": "function"
    },
    {
      "inputs": [
        {
          "internalType": "bool",
          "name": "_isPublicSaleActive",
          "type": "bool"
        }
      ],
      "name": "setIsPublicSaleActive",
      "outputs": [],
      "stateMutability": "nonpayable",
      "type": "function"
    },
    {
      "inputs": [
        {
          "internalType": "bytes32",
          "name": "merkleRoot",
          "type": "bytes32"
        }
      ],
      "name": "setPreSaleListMerkleRoot",
      "outputs": [],
      "stateMutability": "nonpayable",
      "type": "function"
    },
    {
      "inputs": [
        {
          "internalType": "bytes32",
          "name": "merkleRoot",
          "type": "bytes32"
        }
      ],
      "name": "setReserveListMerkleRoot",
      "outputs": [],
      "stateMutability": "nonpayable",
      "type": "function"
    },
    {
      "inputs": [
        {
          "internalType": "address",
          "name": "_royaltyReceiverAddress",
          "type": "address"
        }
      ],
      "name": "setRoyaltyReceiverAddress",
      "outputs": [],
      "stateMutability": "nonpayable",
      "type": "function"
    },
    {
      "inputs": [
        {
          "internalType": "bytes4",
          "name": "interfaceId",
          "type": "bytes4"
        }
      ],
      "name": "supportsInterface",
      "outputs": [
        {
          "internalType": "bool",
          "name": "",
          "type": "bool"
        }
      ],
      "stateMutability": "view",
      "type": "function"
    },
    {
      "inputs": [],
      "name": "symbol",
      "outputs": [
        {
          "internalType": "string",
          "name": "",
          "type": "string"
        }
      ],
      "stateMutability": "view",
      "type": "function"
    },
    {
      "inputs": [
        {
          "internalType": "uint256",
          "name": "tokenId",
          "type": "uint256"
        }
      ],
      "name": "tokenURI",
      "outputs": [
        {
          "internalType": "string",
          "name": "",
          "type": "string"
        }
      ],
      "stateMutability": "view",
      "type": "function"
    },
    {
      "inputs": [
        {
          "internalType": "address",
          "name": "from",
          "type": "address"
        },
        {
          "internalType": "address",
          "name": "to",
          "type": "address"
        },
        {
          "internalType": "uint256",
          "name": "tokenId",
          "type": "uint256"
        }
      ],
      "name": "transferFrom",
      "outputs": [],
      "stateMutability": "nonpayable",
      "type": "function"
    },
    {
      "inputs": [
        {
          "internalType": "address",
          "name": "newOwner",
          "type": "address"
        }
      ],
      "name": "transferOwnership",
      "outputs": [],
      "stateMutability": "nonpayable",
      "type": "function"
    },
    {
      "inputs": [],
      "name": "withdraw",
      "outputs": [],
      "stateMutability": "nonpayable",
      "type": "function"
    },
    {
      "inputs": [
        {
          "internalType": "contract IERC20",
          "name": "token",
          "type": "address"
        }
      ],
      "name": "withdrawTokens",
      "outputs": [],
      "stateMutability": "nonpayable",
      "type": "function"
    }
  ],
  "bytecode": "0x60806040523480156200001157600080fd5b50604051620056e3380380620056e38339818101604052810190620000379190620002dc565b6040518060400160405280601581526020017f4e6f6e2046756e6769626c6520436f696e6261657300000000000000000000008152506040518060400160405280600781526020017f434f494e424145000000000000000000000000000000000000000000000000008152508160009080519060200190620000bb92919062000215565b508060019080519060200190620000d492919062000215565b505050620000f7620000eb6200014760201b60201c565b6200014f60201b60201c565b600160078190555080600f60036101000a81548173ffffffffffffffffffffffffffffffffffffffff021916908373ffffffffffffffffffffffffffffffffffffffff16021790555050620003bb565b600033905090565b6000600660009054906101000a900473ffffffffffffffffffffffffffffffffffffffff16905081600660006101000a81548173ffffffffffffffffffffffffffffffffffffffff021916908373ffffffffffffffffffffffffffffffffffffffff1602179055508173ffffffffffffffffffffffffffffffffffffffff168173ffffffffffffffffffffffffffffffffffffffff167f8be0079c531659141344cd1fd0a4f28419497f9722a3daafe3b4186f6b6457e060405160405180910390a35050565b82805462000223906200033c565b90600052602060002090601f01602090048101928262000247576000855562000293565b82601f106200026257805160ff191683800117855562000293565b8280016001018555821562000293579182015b828111156200029257825182559160200191906001019062000275565b5b509050620002a29190620002a6565b5090565b5b80821115620002c1576000816000905550600101620002a7565b5090565b600081519050620002d681620003a1565b92915050565b600060208284031215620002ef57600080fd5b6000620002ff84828501620002c5565b91505092915050565b600062000315826200031c565b9050919050565b600073ffffffffffffffffffffffffffffffffffffffff82169050919050565b600060028204905060018216806200035557607f821691505b602082108114156200036c576200036b62000372565b5b50919050565b7f4e487b7100000000000000000000000000000000000000000000000000000000600052602260045260246000fd5b620003ac8162000308565b8114620003b857600080fd5b50565b61531880620003cb6000396000f3fe6080604052600436106102935760003560e01c806370a082311161015a5780639dd85f17116100c1578063ccaf1a821161007a578063ccaf1a82146109d5578063d1bdb1d1146109fe578063dc7eda7d14610a29578063e985e9c514610a54578063f2fde38b14610a91578063f3e6e69614610aba57610293565b80639dd85f17146108d6578063a22cb46514610901578063a8b3a5271461092a578063af42d82d14610946578063b88d4fde1461096f578063c87b56dd1461099857610293565b80638da5cb5b116101135780638da5cb5b146107c65780638f62d2ee146107f157806395d89b411461081a5780639b96d200146108455780639d044ed3146108825780639d85b44e146108ad57610293565b806370a08231146106b6578063714c5398146106f3578063715018a61461071e57806383c4c00d146107355780638a8fe819146107605780638b4f84631461079d57610293565b80633ccfd60b116101fe578063508881c1116101b7578063508881c1146105b357806355f804b3146105de5780635926533b146106075780635a5e5d58146106325780636352211e1461064e57806363ff5e171461068b57610293565b80633ccfd60b146104cd57806342842e0e146104e4578063440754d81461050d578063445f57561461053657806349c339811461055f57806349df728c1461058a57610293565b80631e84c413116102505780631e84c413146103bc57806323b872dd146103e757806328cad13d146104105780632a55205a1461043957806333039d3d146104775780633b6238f5146104a257610293565b806301ffc9a71461029857806306fdde03146102d557806307e89ec014610300578063081812fc1461032b578063095ea7b314610368578063193402bb14610391575b600080fd5b3480156102a457600080fd5b506102bf60048036038101906102ba9190613b86565b610ae5565b6040516102cc9190614379565b60405180910390f35b3480156102e157600080fd5b506102ea610bc7565b6040516102f791906143af565b60405180910390f35b34801561030c57600080fd5b50610315610c59565b6040516103229190614731565b60405180910390f35b34801561033757600080fd5b50610352600480360381019061034d9190613c42565b610c64565b60405161035f91906142e9565b60405180910390f35b34801561037457600080fd5b5061038f600480360381019061038a9190613a45565b610ce9565b005b34801561039d57600080fd5b506103a6610e01565b6040516103b39190614731565b60405180910390f35b3480156103c857600080fd5b506103d1610e0c565b6040516103de9190614379565b60405180910390f35b3480156103f357600080fd5b5061040e6004803603810190610409919061393f565b610e1f565b005b34801561041c57600080fd5b5061043760048036038101906104329190613b0b565b610e7f565b005b34801561044557600080fd5b50610460600480360381019061045b9190613c94565b610f18565b60405161046e929190614350565b60405180910390f35b34801561048357600080fd5b5061048c610fa6565b6040516104999190614731565b60405180910390f35b3480156104ae57600080fd5b506104b7610fac565b6040516104c49190614394565b60405180910390f35b3480156104d957600080fd5b506104e2610fb2565b005b3480156104f057600080fd5b5061050b6004803603810190610506919061393f565b61107d565b005b34801561051957600080fd5b50610534600480360381019061052f9190613a81565b61109d565b005b34801561054257600080fd5b5061055d60048036038101906105589190613b0b565b6112c1565b005b34801561056b57600080fd5b5061057461135a565b6040516105819190614731565b60405180910390f35b34801561059657600080fd5b506105b160048036038101906105ac9190613bd8565b611360565b005b3480156105bf57600080fd5b506105c86114fb565b6040516105d59190614731565b60405180910390f35b3480156105ea57600080fd5b5061060560048036038101906106009190613c01565b611500565b005b34801561061357600080fd5b5061061c611596565b6040516106299190614379565b60405180910390f35b61064c60048036038101906106479190613c42565b6115a9565b005b34801561065a57600080fd5b5061067560048036038101906106709190613c42565b6117ea565b60405161068291906142e9565b60405180910390f35b34801561069757600080fd5b506106a061189c565b6040516106ad9190614731565b60405180910390f35b3480156106c257600080fd5b506106dd60048036038101906106d891906138da565b6118a1565b6040516106ea9190614731565b60405180910390f35b3480156106ff57600080fd5b50610708611959565b60405161071591906143af565b60405180910390f35b34801561072a57600080fd5b506107336119eb565b005b34801561074157600080fd5b5061074a611a73565b6040516107579190614731565b60405180910390f35b34801561076c57600080fd5b50610787600480360381019061078291906138da565b611a84565b6040516107949190614731565b60405180910390f35b3480156107a957600080fd5b506107c460048036038101906107bf91906138da565b611a9c565b005b3480156107d257600080fd5b506107db611b5c565b6040516107e891906142e9565b60405180910390f35b3480156107fd57600080fd5b5061081860048036038101906108139190613b5d565b611b86565b005b34801561082657600080fd5b5061082f611c0c565b60405161083c91906143af565b60405180910390f35b34801561085157600080fd5b5061086c600480360381019061086791906138da565b611c9e565b6040516108799190614379565b60405180910390f35b34801561088e57600080fd5b50610897611cbe565b6040516108a49190614379565b60405180910390f35b3480156108b957600080fd5b506108d460048036038101906108cf9190613ac6565b611cd1565b005b3480156108e257600080fd5b506108eb611f4b565b6040516108f89190614731565b60405180910390f35b34801561090d57600080fd5b5061092860048036038101906109239190613a09565b611f50565b005b610944600480360381019061093f9190613cd0565b611f66565b005b34801561095257600080fd5b5061096d60048036038101906109689190613b5d565b6122b3565b005b34801561097b57600080fd5b506109966004803603810190610991919061398e565b612339565b005b3480156109a457600080fd5b506109bf60048036038101906109ba9190613c42565b61239b565b6040516109cc91906143af565b60405180910390f35b3480156109e157600080fd5b506109fc60048036038101906109f79190613c42565b612417565b005b348015610a0a57600080fd5b50610a136125e1565b604051610a209190614731565b60405180910390f35b348015610a3557600080fd5b50610a3e6125e6565b604051610a4b91906142e9565b60405180910390f35b348015610a6057600080fd5b50610a7b6004803603810190610a769190613903565b61260c565b604051610a889190614379565b60405180910390f35b348015610a9d57600080fd5b50610ab86004803603810190610ab391906138da565b6126a0565b005b348015610ac657600080fd5b50610acf612798565b604051610adc9190614394565b60405180910390f35b60007f80ac58cd000000000000000000000000000000000000000000000000000000007bffffffffffffffffffffffffffffffffffffffffffffffffffffffff1916827bffffffffffffffffffffffffffffffffffffffffffffffffffffffff19161480610bb057507f5b5e139f000000000000000000000000000000000000000000000000000000007bffffffffffffffffffffffffffffffffffffffffffffffffffffffff1916827bffffffffffffffffffffffffffffffffffffffffffffffffffffffff1916145b80610bc05750610bbf8261279e565b5b9050919050565b606060008054610bd690614a1f565b80601f0160208091040260200160405190810160405280929190818152602001828054610c0290614a1f565b8015610c4f5780601f10610c2457610100808354040283529160200191610c4f565b820191906000526020600020905b815481529060010190602001808311610c3257829003601f168201915b5050505050905090565b66d529ae9e86000081565b6000610c6f82612808565b610cae576040517f08c379a0000000000000000000000000000000000000000000000000000000008152600401610ca5906145d1565b60405180910390fd5b6004600083815260200190815260200160002060009054906101000a900473ffffffffffffffffffffffffffffffffffffffff169050919050565b6000610cf4826117ea565b90508073ffffffffffffffffffffffffffffffffffffffff168373ffffffffffffffffffffffffffffffffffffffff161415610d65576040517f08c379a0000000000000000000000000000000000000000000000000000000008152600401610d5c90614651565b60405180910390fd5b8073ffffffffffffffffffffffffffffffffffffffff16610d84612874565b73ffffffffffffffffffffffffffffffffffffffff161480610db35750610db281610dad612874565b61260c565b5b610df2576040517f08c379a0000000000000000000000000000000000000000000000000000000008152600401610de990614531565b60405180910390fd5b610dfc838361287c565b505050565b66470de4df82000081565b600f60029054906101000a900460ff1681565b610e30610e2a612874565b82612935565b610e6f576040517f08c379a0000000000000000000000000000000000000000000000000000000008152600401610e6690614671565b60405180910390fd5b610e7a838383612a13565b505050565b610e87612874565b73ffffffffffffffffffffffffffffffffffffffff16610ea5611b5c565b73ffffffffffffffffffffffffffffffffffffffff1614610efb576040517f08c379a0000000000000000000000000000000000000000000000000000000008152600401610ef2906145f1565b60405180910390fd5b80600f60026101000a81548160ff02191690831515021790555050565b600080610f2484612808565b610f63576040517f08c379a0000000000000000000000000000000000000000000000000000000008152600401610f5a90614551565b60405180910390fd5b600f60039054906101000a900473ffffffffffffffffffffffffffffffffffffffff16610f9b610f94856008612c7a565b6064612c90565b915091509250929050565b611f4081565b600d5481565b610fba612874565b73ffffffffffffffffffffffffffffffffffffffff16610fd8611b5c565b73ffffffffffffffffffffffffffffffffffffffff161461102e576040517f08c379a0000000000000000000000000000000000000000000000000000000008152600401611025906145f1565b60405180910390fd5b60004790503373ffffffffffffffffffffffffffffffffffffffff166108fc829081150290604051600060405180830381858888f19350505050158015611079573d6000803e3d6000fd5b5050565b61109883838360405180602001604052806000815250612339565b505050565b600260075414156110e3576040517f08c379a00000000000000000000000000000000000000000000000000000000081526004016110da906146d1565b60405180910390fd5b60026007819055506110f3612874565b73ffffffffffffffffffffffffffffffffffffffff16611111611b5c565b73ffffffffffffffffffffffffffffffffffffffff1614611167576040517f08c379a000000000000000000000000000000000000000000000000000000000815260040161115e906145f1565b60405180910390fd5b8181905060c881600a5461117b919061482b565b11156111bc576040517f08c379a00000000000000000000000000000000000000000000000000000000081526004016111b3906146b1565b60405180910390fd5b611f40816111ca6008612ca6565b6111d4919061482b565b1115611215576040517f08c379a000000000000000000000000000000000000000000000000000000000815260040161120c906144f1565b60405180910390fd5b600083839050905080600a600082825461122f919061482b565b9250508190555060005b818110156112b25761129f85858381811061127d577f4e487b7100000000000000000000000000000000000000000000000000000000600052603260045260246000fd5b905060200201602081019061129291906138da565b61129a612cb4565b612ccf565b80806112aa90614a82565b915050611239565b50505060016007819055505050565b6112c9612874565b73ffffffffffffffffffffffffffffffffffffffff166112e7611b5c565b73ffffffffffffffffffffffffffffffffffffffff161461133d576040517f08c379a0000000000000000000000000000000000000000000000000000000008152600401611334906145f1565b60405180910390fd5b80600f60016101000a81548160ff02191690831515021790555050565b600a5481565b611368612874565b73ffffffffffffffffffffffffffffffffffffffff16611386611b5c565b73ffffffffffffffffffffffffffffffffffffffff16146113dc576040517f08c379a00000000000000000000000000000000000000000000000000000000081526004016113d3906145f1565b60405180910390fd5b60008173ffffffffffffffffffffffffffffffffffffffff166370a08231306040518263ffffffff1660e01b815260040161141791906142e9565b60206040518083038186803b15801561142f57600080fd5b505afa158015611443573d6000803e3d6000fd5b505050506040513d601f19601f820116820180604052508101906114679190613c6b565b90508173ffffffffffffffffffffffffffffffffffffffff1663a9059cbb33836040518363ffffffff1660e01b81526004016114a4929190614350565b602060405180830381600087803b1580156114be57600080fd5b505af11580156114d2573d6000803e3d6000fd5b505050506040513d601f19601f820116820180604052508101906114f69190613b34565b505050565b600581565b611508612874565b73ffffffffffffffffffffffffffffffffffffffff16611526611b5c565b73ffffffffffffffffffffffffffffffffffffffff161461157c576040517f08c379a0000000000000000000000000000000000000000000000000000000008152600401611573906145f1565b60405180910390fd5b8060099080519060200190611592929190613601565b5050565b600f60009054906101000a900460ff1681565b600260075414156115ef576040517f08c379a00000000000000000000000000000000000000000000000000000000081526004016115e6906146d1565b60405180910390fd5b6002600781905550600f60029054906101000a900460ff16611646576040517f08c379a000000000000000000000000000000000000000000000000000000000815260040161163d906146f1565b60405180910390fd5b66d529ae9e8600008134818361165c91906148b2565b1461169c576040517f08c379a000000000000000000000000000000000000000000000000000000000815260040161169390614691565b60405180910390fd5b82600a5460c8611f406116af919061490c565b6116b9919061482b565b816116c46008612ca6565b6116ce919061482b565b111561170f576040517f08c379a0000000000000000000000000000000000000000000000000000000008152600401611706906144f1565b60405180910390fd5b8360058161171c336118a1565b611726919061482b565b1115611767576040517f08c379a000000000000000000000000000000000000000000000000000000000815260040161175e90614711565b60405180910390fd5b60058511156117ab576040517f08c379a00000000000000000000000000000000000000000000000000000000081526004016117a290614611565b60405180910390fd5b60005b858110156117da576117c7336117c2612cb4565b612ccf565b80806117d290614a82565b9150506117ae565b5050505050600160078190555050565b6000806002600084815260200190815260200160002060009054906101000a900473ffffffffffffffffffffffffffffffffffffffff169050600073ffffffffffffffffffffffffffffffffffffffff168173ffffffffffffffffffffffffffffffffffffffff161415611893576040517f08c379a000000000000000000000000000000000000000000000000000000000815260040161188a90614591565b60405180910390fd5b80915050919050565b60c881565b60008073ffffffffffffffffffffffffffffffffffffffff168273ffffffffffffffffffffffffffffffffffffffff161415611912576040517f08c379a000000000000000000000000000000000000000000000000000000000815260040161190990614571565b60405180910390fd5b600360008373ffffffffffffffffffffffffffffffffffffffff1673ffffffffffffffffffffffffffffffffffffffff168152602001908152602001600020549050919050565b60606009805461196890614a1f565b80601f016020809104026020016040519081016040528092919081815260200182805461199490614a1f565b80156119e15780601f106119b6576101008083540402835291602001916119e1565b820191906000526020600020905b8154815290600101906020018083116119c457829003601f168201915b5050505050905090565b6119f3612874565b73ffffffffffffffffffffffffffffffffffffffff16611a11611b5c565b73ffffffffffffffffffffffffffffffffffffffff1614611a67576040517f08c379a0000000000000000000000000000000000000000000000000000000008152600401611a5e906145f1565b60405180910390fd5b611a716000612ced565b565b6000611a7f6008612ca6565b905090565b600c6020528060005260406000206000915090505481565b611aa4612874565b73ffffffffffffffffffffffffffffffffffffffff16611ac2611b5c565b73ffffffffffffffffffffffffffffffffffffffff1614611b18576040517f08c379a0000000000000000000000000000000000000000000000000000000008152600401611b0f906145f1565b60405180910390fd5b80600f60036101000a81548173ffffffffffffffffffffffffffffffffffffffff021916908373ffffffffffffffffffffffffffffffffffffffff16021790555050565b6000600660009054906101000a900473ffffffffffffffffffffffffffffffffffffffff16905090565b611b8e612874565b73ffffffffffffffffffffffffffffffffffffffff16611bac611b5c565b73ffffffffffffffffffffffffffffffffffffffff1614611c02576040517f08c379a0000000000000000000000000000000000000000000000000000000008152600401611bf9906145f1565b60405180910390fd5b80600d8190555050565b606060018054611c1b90614a1f565b80601f0160208091040260200160405190810160405280929190818152602001828054611c4790614a1f565b8015611c945780601f10611c6957610100808354040283529160200191611c94565b820191906000526020600020905b815481529060010190602001808311611c7757829003601f168201915b5050505050905090565b600b6020528060005260406000206000915054906101000a900460ff1681565b600f60019054906101000a900460ff1681565b8181600d54611d48838380806020026020016040519081016040528093929190818152602001838360200280828437600081840152601f19601f820116905080830192505050505050508233604051602001611d2d9190614294565b60405160208183030381529060405280519060200120612db3565b611d87576040517f08c379a0000000000000000000000000000000000000000000000000000000008152600401611d7e90614511565b60405180910390fd5b600160c881600a54611d99919061482b565b1115611dda576040517f08c379a0000000000000000000000000000000000000000000000000000000008152600401611dd1906146b1565b60405180910390fd5b611f4081611de86008612ca6565b611df2919061482b565b1115611e33576040517f08c379a0000000000000000000000000000000000000000000000000000000008152600401611e2a906144f1565b60405180910390fd5b600b60003373ffffffffffffffffffffffffffffffffffffffff1673ffffffffffffffffffffffffffffffffffffffff16815260200190815260200160002060009054906101000a900460ff1615611ec0576040517f08c379a0000000000000000000000000000000000000000000000000000000008152600401611eb7906143f1565b60405180910390fd5b6001600b60003373ffffffffffffffffffffffffffffffffffffffff1673ffffffffffffffffffffffffffffffffffffffff16815260200190815260200160002060006101000a81548160ff0219169083151502179055506001600a6000828254611f2b919061482b565b92505081905550611f4333611f3e612cb4565b612ccf565b505050505050565b600181565b611f62611f5b612874565b8383612dca565b5050565b600f60019054906101000a900460ff16611fb5576040517f08c379a0000000000000000000000000000000000000000000000000000000008152600401611fac90614631565b60405180910390fd5b60026007541415611ffb576040517f08c379a0000000000000000000000000000000000000000000000000000000008152600401611ff2906146d1565b60405180910390fd5b60026007819055506001600a5460c8611f40612017919061490c565b612021919061482b565b8161202c6008612ca6565b612036919061482b565b1115612077576040517f08c379a000000000000000000000000000000000000000000000000000000000815260040161206e906144f1565b60405180910390fd5b66470de4df820000600134818361208e91906148b2565b146120ce576040517f08c379a00000000000000000000000000000000000000000000000000000000081526004016120c590614691565b60405180910390fd5b8484600e54612145838380806020026020016040519081016040528093929190818152602001838360200280828437600081840152601f19601f82011690508083019250505050505050823360405160200161212a9190614294565b60405160208183030381529060405280519060200120612db3565b612184576040517f08c379a000000000000000000000000000000000000000000000000000000000815260040161217b90614511565b60405180910390fd5b6000600c60003373ffffffffffffffffffffffffffffffffffffffff1673ffffffffffffffffffffffffffffffffffffffff16815260200190815260200160002054905060018a60ff16826121d9919061482b565b111561221a576040517f08c379a0000000000000000000000000000000000000000000000000000000008152600401612211906143d1565b60405180910390fd5b8960ff1681612229919061482b565b600c60003373ffffffffffffffffffffffffffffffffffffffff1673ffffffffffffffffffffffffffffffffffffffff1681526020019081526020016000208190555060005b8a60ff1681101561229e5761228b33612286612cb4565b612ccf565b808061229690614a82565b91505061226f565b50505050505050506001600781905550505050565b6122bb612874565b73ffffffffffffffffffffffffffffffffffffffff166122d9611b5c565b73ffffffffffffffffffffffffffffffffffffffff161461232f576040517f08c379a0000000000000000000000000000000000000000000000000000000008152600401612326906145f1565b60405180910390fd5b80600e8190555050565b61234a612344612874565b83612935565b612389576040517f08c379a000000000000000000000000000000000000000000000000000000000815260040161238090614671565b60405180910390fd5b61239584848484612f37565b50505050565b60606123a682612808565b6123e5576040517f08c379a00000000000000000000000000000000000000000000000000000000081526004016123dc90614551565b60405180910390fd5b60096123f083612f93565b6040516020016124019291906142af565b6040516020818303038152906040529050919050565b6002600754141561245d576040517f08c379a0000000000000000000000000000000000000000000000000000000008152600401612454906146d1565b60405180910390fd5b600260078190555061246d612874565b73ffffffffffffffffffffffffffffffffffffffff1661248b611b5c565b73ffffffffffffffffffffffffffffffffffffffff16146124e1576040517f08c379a00000000000000000000000000000000000000000000000000000000081526004016124d8906145f1565b60405180910390fd5b8060c881600a546124f2919061482b565b1115612533576040517f08c379a000000000000000000000000000000000000000000000000000000000815260040161252a906146b1565b60405180910390fd5b611f40816125416008612ca6565b61254b919061482b565b111561258c576040517f08c379a0000000000000000000000000000000000000000000000000000000008152600401612583906144f1565b60405180910390fd5b81600a600082825461259e919061482b565b9250508190555060005b828110156125d4576125c1336125bc612cb4565b612ccf565b80806125cc90614a82565b9150506125a8565b5050600160078190555050565b600581565b600f60039054906101000a900473ffffffffffffffffffffffffffffffffffffffff1681565b6000600560008473ffffffffffffffffffffffffffffffffffffffff1673ffffffffffffffffffffffffffffffffffffffff16815260200190815260200160002060008373ffffffffffffffffffffffffffffffffffffffff1673ffffffffffffffffffffffffffffffffffffffff16815260200190815260200160002060009054906101000a900460ff16905092915050565b6126a8612874565b73ffffffffffffffffffffffffffffffffffffffff166126c6611b5c565b73ffffffffffffffffffffffffffffffffffffffff161461271c576040517f08c379a0000000000000000000000000000000000000000000000000000000008152600401612713906145f1565b60405180910390fd5b600073ffffffffffffffffffffffffffffffffffffffff168173ffffffffffffffffffffffffffffffffffffffff16141561278c576040517f08c379a000000000000000000000000000000000000000000000000000000000815260040161278390614431565b60405180910390fd5b61279581612ced565b50565b600e5481565b60007f01ffc9a7000000000000000000000000000000000000000000000000000000007bffffffffffffffffffffffffffffffffffffffffffffffffffffffff1916827bffffffffffffffffffffffffffffffffffffffffffffffffffffffff1916149050919050565b60008073ffffffffffffffffffffffffffffffffffffffff166002600084815260200190815260200160002060009054906101000a900473ffffffffffffffffffffffffffffffffffffffff1673ffffffffffffffffffffffffffffffffffffffff1614159050919050565b600033905090565b816004600083815260200190815260200160002060006101000a81548173ffffffffffffffffffffffffffffffffffffffff021916908373ffffffffffffffffffffffffffffffffffffffff160217905550808273ffffffffffffffffffffffffffffffffffffffff166128ef836117ea565b73ffffffffffffffffffffffffffffffffffffffff167f8c5be1e5ebec7d5bd14f71427d1e84f3dd0314c0f7b2291e5b200ac8c7c3b92560405160405180910390a45050565b600061294082612808565b61297f576040517f08c379a0000000000000000000000000000000000000000000000000000000008152600401612976906144d1565b60405180910390fd5b600061298a836117ea565b90508073ffffffffffffffffffffffffffffffffffffffff168473ffffffffffffffffffffffffffffffffffffffff1614806129cc57506129cb818561260c565b5b80612a0a57508373ffffffffffffffffffffffffffffffffffffffff166129f284610c64565b73ffffffffffffffffffffffffffffffffffffffff16145b91505092915050565b8273ffffffffffffffffffffffffffffffffffffffff16612a33826117ea565b73ffffffffffffffffffffffffffffffffffffffff1614612a89576040517f08c379a0000000000000000000000000000000000000000000000000000000008152600401612a8090614451565b60405180910390fd5b600073ffffffffffffffffffffffffffffffffffffffff168273ffffffffffffffffffffffffffffffffffffffff161415612af9576040517f08c379a0000000000000000000000000000000000000000000000000000000008152600401612af090614491565b60405180910390fd5b612b04838383613140565b612b0f60008261287c565b6001600360008573ffffffffffffffffffffffffffffffffffffffff1673ffffffffffffffffffffffffffffffffffffffff1681526020019081526020016000206000828254612b5f919061490c565b925050819055506001600360008473ffffffffffffffffffffffffffffffffffffffff1673ffffffffffffffffffffffffffffffffffffffff1681526020019081526020016000206000828254612bb6919061482b565b92505081905550816002600083815260200190815260200160002060006101000a81548173ffffffffffffffffffffffffffffffffffffffff021916908373ffffffffffffffffffffffffffffffffffffffff160217905550808273ffffffffffffffffffffffffffffffffffffffff168473ffffffffffffffffffffffffffffffffffffffff167fddf252ad1be2c89b69c2b068fc378daa952ba7f163c4a11628f55a4df523b3ef60405160405180910390a4612c75838383613145565b505050565b60008183612c8891906148b2565b905092915050565b60008183612c9e9190614881565b905092915050565b600081600001549050919050565b6000612cc0600861314a565b612cca6008612ca6565b905090565b612ce9828260405180602001604052806000815250613160565b5050565b6000600660009054906101000a900473ffffffffffffffffffffffffffffffffffffffff16905081600660006101000a81548173ffffffffffffffffffffffffffffffffffffffff021916908373ffffffffffffffffffffffffffffffffffffffff1602179055508173ffffffffffffffffffffffffffffffffffffffff168173ffffffffffffffffffffffffffffffffffffffff167f8be0079c531659141344cd1fd0a4f28419497f9722a3daafe3b4186f6b6457e060405160405180910390a35050565b600082612dc085846131bb565b1490509392505050565b8173ffffffffffffffffffffffffffffffffffffffff168373ffffffffffffffffffffffffffffffffffffffff161415612e39576040517f08c379a0000000000000000000000000000000000000000000000000000000008152600401612e30906144b1565b60405180910390fd5b80600560008573ffffffffffffffffffffffffffffffffffffffff1673ffffffffffffffffffffffffffffffffffffffff16815260200190815260200160002060008473ffffffffffffffffffffffffffffffffffffffff1673ffffffffffffffffffffffffffffffffffffffff16815260200190815260200160002060006101000a81548160ff0219169083151502179055508173ffffffffffffffffffffffffffffffffffffffff168373ffffffffffffffffffffffffffffffffffffffff167f17307eab39ab6107e8899845ad3d59bd9653f200f220920489ca2b5937696c3183604051612f2a9190614379565b60405180910390a3505050565b612f42848484612a13565b612f4e84848484613256565b612f8d576040517f08c379a0000000000000000000000000000000000000000000000000000000008152600401612f8490614411565b60405180910390fd5b50505050565b60606000821415612fdb576040518060400160405280600181526020017f3000000000000000000000000000000000000000000000000000000000000000815250905061313b565b600082905060005b6000821461300d578080612ff690614a82565b915050600a826130069190614881565b9150612fe3565b60008167ffffffffffffffff81111561304f577f4e487b7100000000000000000000000000000000000000000000000000000000600052604160045260246000fd5b6040519080825280601f01601f1916602001820160405280156130815781602001600182028036833780820191505090505b5090505b600085146131345760018261309a919061490c565b9150600a856130a99190614aef565b60306130b5919061482b565b60f81b8183815181106130f1577f4e487b7100000000000000000000000000000000000000000000000000000000600052603260045260246000fd5b60200101907effffffffffffffffffffffffffffffffffffffffffffffffffffffffffffff1916908160001a905350600a8561312d9190614881565b9450613085565b8093505050505b919050565b505050565b505050565b6001816000016000828254019250508190555050565b61316a83836133ed565b6131776000848484613256565b6131b6576040517f08c379a00000000000000000000000000000000000000000000000000000000081526004016131ad90614411565b60405180910390fd5b505050565b60008082905060005b845181101561324b576000858281518110613208577f4e487b7100000000000000000000000000000000000000000000000000000000600052603260045260246000fd5b6020026020010151905080831161322a5761322383826135c7565b9250613237565b61323481846135c7565b92505b50808061324390614a82565b9150506131c4565b508091505092915050565b60006132778473ffffffffffffffffffffffffffffffffffffffff166135de565b156133e0578373ffffffffffffffffffffffffffffffffffffffff1663150b7a026132a0612874565b8786866040518563ffffffff1660e01b81526004016132c29493929190614304565b602060405180830381600087803b1580156132dc57600080fd5b505af192505050801561330d57506040513d601f19601f8201168201806040525081019061330a9190613baf565b60015b613390573d806000811461333d576040519150601f19603f3d011682016040523d82523d6000602084013e613342565b606091505b50600081511415613388576040517f08c379a000000000000000000000000000000000000000000000000000000000815260040161337f90614411565b60405180910390fd5b805181602001fd5b63150b7a0260e01b7bffffffffffffffffffffffffffffffffffffffffffffffffffffffff1916817bffffffffffffffffffffffffffffffffffffffffffffffffffffffff1916149150506133e5565b600190505b949350505050565b600073ffffffffffffffffffffffffffffffffffffffff168273ffffffffffffffffffffffffffffffffffffffff16141561345d576040517f08c379a0000000000000000000000000000000000000000000000000000000008152600401613454906145b1565b60405180910390fd5b61346681612808565b156134a6576040517f08c379a000000000000000000000000000000000000000000000000000000000815260040161349d90614471565b60405180910390fd5b6134b260008383613140565b6001600360008473ffffffffffffffffffffffffffffffffffffffff1673ffffffffffffffffffffffffffffffffffffffff1681526020019081526020016000206000828254613502919061482b565b92505081905550816002600083815260200190815260200160002060006101000a81548173ffffffffffffffffffffffffffffffffffffffff021916908373ffffffffffffffffffffffffffffffffffffffff160217905550808273ffffffffffffffffffffffffffffffffffffffff16600073ffffffffffffffffffffffffffffffffffffffff167fddf252ad1be2c89b69c2b068fc378daa952ba7f163c4a11628f55a4df523b3ef60405160405180910390a46135c360008383613145565b5050565b600082600052816020526040600020905092915050565b6000808273ffffffffffffffffffffffffffffffffffffffff163b119050919050565b82805461360d90614a1f565b90600052602060002090601f01602090048101928261362f5760008555613676565b82601f1061364857805160ff1916838001178555613676565b82800160010185558215613676579182015b8281111561367557825182559160200191906001019061365a565b5b5090506136839190613687565b5090565b5b808211156136a0576000816000905550600101613688565b5090565b60006136b76136b284614771565b61474c565b9050828152602081018484840111156136cf57600080fd5b6136da8482856149dd565b509392505050565b60006136f56136f0846147a2565b61474c565b90508281526020810184848401111561370d57600080fd5b6137188482856149dd565b509392505050565b60008135905061372f81615241565b92915050565b60008083601f84011261374757600080fd5b8235905067ffffffffffffffff81111561376057600080fd5b60208301915083602082028301111561377857600080fd5b9250929050565b60008083601f84011261379157600080fd5b8235905067ffffffffffffffff8111156137aa57600080fd5b6020830191508360208202830111156137c257600080fd5b9250929050565b6000813590506137d881615258565b92915050565b6000815190506137ed81615258565b92915050565b6000813590506138028161526f565b92915050565b60008135905061381781615286565b92915050565b60008151905061382c81615286565b92915050565b600082601f83011261384357600080fd5b81356138538482602086016136a4565b91505092915050565b60008135905061386b8161529d565b92915050565b600082601f83011261388257600080fd5b81356138928482602086016136e2565b91505092915050565b6000813590506138aa816152b4565b92915050565b6000815190506138bf816152b4565b92915050565b6000813590506138d4816152cb565b92915050565b6000602082840312156138ec57600080fd5b60006138fa84828501613720565b91505092915050565b6000806040838503121561391657600080fd5b600061392485828601613720565b925050602061393585828601613720565b9150509250929050565b60008060006060848603121561395457600080fd5b600061396286828701613720565b935050602061397386828701613720565b92505060406139848682870161389b565b9150509250925092565b600080600080608085870312156139a457600080fd5b60006139b287828801613720565b94505060206139c387828801613720565b93505060406139d48782880161389b565b925050606085013567ffffffffffffffff8111156139f157600080fd5b6139fd87828801613832565b91505092959194509250565b60008060408385031215613a1c57600080fd5b6000613a2a85828601613720565b9250506020613a3b858286016137c9565b9150509250929050565b60008060408385031215613a5857600080fd5b6000613a6685828601613720565b9250506020613a778582860161389b565b9150509250929050565b60008060208385031215613a9457600080fd5b600083013567ffffffffffffffff811115613aae57600080fd5b613aba85828601613735565b92509250509250929050565b60008060208385031215613ad957600080fd5b600083013567ffffffffffffffff811115613af357600080fd5b613aff8582860161377f565b92509250509250929050565b600060208284031215613b1d57600080fd5b6000613b2b848285016137c9565b91505092915050565b600060208284031215613b4657600080fd5b6000613b54848285016137de565b91505092915050565b600060208284031215613b6f57600080fd5b6000613b7d848285016137f3565b91505092915050565b600060208284031215613b9857600080fd5b6000613ba684828501613808565b91505092915050565b600060208284031215613bc157600080fd5b6000613bcf8482850161381d565b91505092915050565b600060208284031215613bea57600080fd5b6000613bf88482850161385c565b91505092915050565b600060208284031215613c1357600080fd5b600082013567ffffffffffffffff811115613c2d57600080fd5b613c3984828501613871565b91505092915050565b600060208284031215613c5457600080fd5b6000613c628482850161389b565b91505092915050565b600060208284031215613c7d57600080fd5b6000613c8b848285016138b0565b91505092915050565b60008060408385031215613ca757600080fd5b6000613cb58582860161389b565b9250506020613cc68582860161389b565b9150509250929050565b600080600060408486031215613ce557600080fd5b6000613cf3868287016138c5565b935050602084013567ffffffffffffffff811115613d1057600080fd5b613d1c8682870161377f565b92509250509250925092565b613d3181614940565b82525050565b613d48613d4382614940565b614acb565b82525050565b613d5781614952565b82525050565b613d668161495e565b82525050565b6000613d77826147e8565b613d8181856147fe565b9350613d918185602086016149ec565b613d9a81614bdc565b840191505092915050565b6000613db0826147f3565b613dba818561480f565b9350613dca8185602086016149ec565b613dd381614bdc565b840191505092915050565b6000613de9826147f3565b613df38185614820565b9350613e038185602086016149ec565b80840191505092915050565b60008154613e1c81614a1f565b613e268186614820565b94506001821660008114613e415760018114613e5257613e85565b60ff19831686528186019350613e85565b613e5b856147d3565b60005b83811015613e7d57815481890152600182019150602081019050613e5e565b838801955050505b50505092915050565b6000613e9b60208361480f565b9150613ea682614bfa565b602082019050919050565b6000613ebe601e8361480f565b9150613ec982614c23565b602082019050919050565b6000613ee160328361480f565b9150613eec82614c4c565b604082019050919050565b6000613f0460268361480f565b9150613f0f82614c9b565b604082019050919050565b6000613f2760258361480f565b9150613f3282614cea565b604082019050919050565b6000613f4a601c8361480f565b9150613f5582614d39565b602082019050919050565b6000613f6d60248361480f565b9150613f7882614d62565b604082019050919050565b6000613f9060198361480f565b9150613f9b82614db1565b602082019050919050565b6000613fb3602c8361480f565b9150613fbe82614dda565b604082019050919050565b6000613fd6601d8361480f565b9150613fe182614e29565b602082019050919050565b6000613ff9601e8361480f565b915061400482614e52565b602082019050919050565b600061401c60388361480f565b915061402782614e7b565b604082019050919050565b600061403f60118361480f565b915061404a82614eca565b602082019050919050565b6000614062602a8361480f565b915061406d82614ef3565b604082019050919050565b600061408560298361480f565b915061409082614f42565b604082019050919050565b60006140a860208361480f565b91506140b382614f91565b602082019050919050565b60006140cb602c8361480f565b91506140d682614fba565b604082019050919050565b60006140ee600583614820565b91506140f982615009565b600582019050919050565b600061411160208361480f565b915061411c82615032565b602082019050919050565b600061413460148361480f565b915061413f8261505b565b602082019050919050565b600061415760138361480f565b915061416282615084565b602082019050919050565b600061417a60218361480f565b9150614185826150ad565b604082019050919050565b600061419d60318361480f565b91506141a8826150fc565b604082019050919050565b60006141c060188361480f565b91506141cb8261514b565b602082019050919050565b60006141e3601a8361480f565b91506141ee82615174565b602082019050919050565b6000614206601f8361480f565b91506142118261519d565b602082019050919050565b600061422960178361480f565b9150614234826151c6565b602082019050919050565b600061424c60178361480f565b9150614257826151ef565b602082019050919050565b600061426f600183614820565b915061427a82615218565b600182019050919050565b61428e816149c6565b82525050565b60006142a08284613d37565b60148201915081905092915050565b60006142bb8285613e0f565b91506142c682614262565b91506142d28284613dde565b91506142dd826140e1565b91508190509392505050565b60006020820190506142fe6000830184613d28565b92915050565b60006080820190506143196000830187613d28565b6143266020830186613d28565b6143336040830185614285565b81810360608301526143458184613d6c565b905095945050505050565b60006040820190506143656000830185613d28565b6143726020830184614285565b9392505050565b600060208201905061438e6000830184613d4e565b92915050565b60006020820190506143a96000830184613d5d565b92915050565b600060208201905081810360008301526143c98184613da5565b905092915050565b600060208201905081810360008301526143ea81613e8e565b9050919050565b6000602082019050818103600083015261440a81613eb1565b9050919050565b6000602082019050818103600083015261442a81613ed4565b9050919050565b6000602082019050818103600083015261444a81613ef7565b9050919050565b6000602082019050818103600083015261446a81613f1a565b9050919050565b6000602082019050818103600083015261448a81613f3d565b9050919050565b600060208201905081810360008301526144aa81613f60565b9050919050565b600060208201905081810360008301526144ca81613f83565b9050919050565b600060208201905081810360008301526144ea81613fa6565b9050919050565b6000602082019050818103600083015261450a81613fc9565b9050919050565b6000602082019050818103600083015261452a81613fec565b9050919050565b6000602082019050818103600083015261454a8161400f565b9050919050565b6000602082019050818103600083015261456a81614032565b9050919050565b6000602082019050818103600083015261458a81614055565b9050919050565b600060208201905081810360008301526145aa81614078565b9050919050565b600060208201905081810360008301526145ca8161409b565b9050919050565b600060208201905081810360008301526145ea816140be565b9050919050565b6000602082019050818103600083015261460a81614104565b9050919050565b6000602082019050818103600083015261462a81614127565b9050919050565b6000602082019050818103600083015261464a8161414a565b9050919050565b6000602082019050818103600083015261466a8161416d565b9050919050565b6000602082019050818103600083015261468a81614190565b9050919050565b600060208201905081810360008301526146aa816141b3565b9050919050565b600060208201905081810360008301526146ca816141d6565b9050919050565b600060208201905081810360008301526146ea816141f9565b9050919050565b6000602082019050818103600083015261470a8161421c565b9050919050565b6000602082019050818103600083015261472a8161423f565b9050919050565b60006020820190506147466000830184614285565b92915050565b6000614756614767565b90506147628282614a51565b919050565b6000604051905090565b600067ffffffffffffffff82111561478c5761478b614bad565b5b61479582614bdc565b9050602081019050919050565b600067ffffffffffffffff8211156147bd576147bc614bad565b5b6147c682614bdc565b9050602081019050919050565b60008190508160005260206000209050919050565b600081519050919050565b600081519050919050565b600082825260208201905092915050565b600082825260208201905092915050565b600081905092915050565b6000614836826149c6565b9150614841836149c6565b9250827fffffffffffffffffffffffffffffffffffffffffffffffffffffffffffffffff0382111561487657614875614b20565b5b828201905092915050565b600061488c826149c6565b9150614897836149c6565b9250826148a7576148a6614b4f565b5b828204905092915050565b60006148bd826149c6565b91506148c8836149c6565b9250817fffffffffffffffffffffffffffffffffffffffffffffffffffffffffffffffff048311821515161561490157614900614b20565b5b828202905092915050565b6000614917826149c6565b9150614922836149c6565b92508282101561493557614934614b20565b5b828203905092915050565b600061494b826149a6565b9050919050565b60008115159050919050565b6000819050919050565b60007fffffffff0000000000000000000000000000000000000000000000000000000082169050919050565b600061499f82614940565b9050919050565b600073ffffffffffffffffffffffffffffffffffffffff82169050919050565b6000819050919050565b600060ff82169050919050565b82818337600083830152505050565b60005b83811015614a0a5780820151818401526020810190506149ef565b83811115614a19576000848401525b50505050565b60006002820490506001821680614a3757607f821691505b60208210811415614a4b57614a4a614b7e565b5b50919050565b614a5a82614bdc565b810181811067ffffffffffffffff82111715614a7957614a78614bad565b5b80604052505050565b6000614a8d826149c6565b91507fffffffffffffffffffffffffffffffffffffffffffffffffffffffffffffffff821415614ac057614abf614b20565b5b600182019050919050565b6000614ad682614add565b9050919050565b6000614ae882614bed565b9050919050565b6000614afa826149c6565b9150614b05836149c6565b925082614b1557614b14614b4f565b5b828206905092915050565b7f4e487b7100000000000000000000000000000000000000000000000000000000600052601160045260246000fd5b7f4e487b7100000000000000000000000000000000000000000000000000000000600052601260045260246000fd5b7f4e487b7100000000000000000000000000000000000000000000000000000000600052602260045260246000fd5b7f4e487b7100000000000000000000000000000000000000000000000000000000600052604160045260246000fd5b6000601f19601f8301169050919050565b60008160601b9050919050565b7f436c61696d65642f696e76616c696420746f6b656e7320726571756573746564600082015250565b7f526573657276656420746f6b656e20616c726561647920636c61696d65640000600082015250565b7f4552433732313a207472616e7366657220746f206e6f6e20455243373231526560008201527f63656976657220696d706c656d656e7465720000000000000000000000000000602082015250565b7f4f776e61626c653a206e6577206f776e657220697320746865207a65726f206160008201527f6464726573730000000000000000000000000000000000000000000000000000602082015250565b7f4552433732313a207472616e736665722066726f6d20696e636f72726563742060008201527f6f776e6572000000000000000000000000000000000000000000000000000000602082015250565b7f4552433732313a20746f6b656e20616c7265616479206d696e74656400000000600082015250565b7f4552433732313a207472616e7366657220746f20746865207a65726f2061646460008201527f7265737300000000000000000000000000000000000000000000000000000000602082015250565b7f4552433732313a20617070726f766520746f2063616c6c657200000000000000600082015250565b7f4552433732313a206f70657261746f7220717565727920666f72206e6f6e657860008201527f697374656e7420746f6b656e0000000000000000000000000000000000000000602082015250565b7f496e73756666696369656e7420746f6b656e732072656d61696e696e67000000600082015250565b7f4164647265737320646f6573206e6f7420657869737420696e206c6973740000600082015250565b7f4552433732313a20617070726f76652063616c6c6572206973206e6f74206f7760008201527f6e6572206e6f7220617070726f76656420666f7220616c6c0000000000000000602082015250565b7f4e6f6e6578697374656e7420746f6b656e000000000000000000000000000000600082015250565b7f4552433732313a2062616c616e636520717565727920666f7220746865207a6560008201527f726f206164647265737300000000000000000000000000000000000000000000602082015250565b7f4552433732313a206f776e657220717565727920666f72206e6f6e657869737460008201527f656e7420746f6b656e0000000000000000000000000000000000000000000000602082015250565b7f4552433732313a206d696e7420746f20746865207a65726f2061646472657373600082015250565b7f4552433732313a20617070726f76656420717565727920666f72206e6f6e657860008201527f697374656e7420746f6b656e0000000000000000000000000000000000000000602082015250565b7f2e6a736f6e000000000000000000000000000000000000000000000000000000600082015250565b7f4f776e61626c653a2063616c6c6572206973206e6f7420746865206f776e6572600082015250565b7f6d6178207075626c6963206d696e742069732035000000000000000000000000600082015250565b7f50726573616c65206973206e6f74206f70656e00000000000000000000000000600082015250565b7f4552433732313a20617070726f76616c20746f2063757272656e74206f776e6560008201527f7200000000000000000000000000000000000000000000000000000000000000602082015250565b7f4552433732313a207472616e736665722063616c6c6572206973206e6f74206f60008201527f776e6572206e6f7220617070726f766564000000000000000000000000000000602082015250565b7f496e636f7272656374204554482076616c75652073656e740000000000000000600082015250565b7f496e73756666696369656e7420746f6b656e2072657365727665000000000000600082015250565b7f5265656e7472616e637947756172643a207265656e7472616e742063616c6c00600082015250565b7f5075626c69632073616c65206973206e6f74206f70656e000000000000000000600082015250565b7f4d617820746f6b656e7320746f206d696e742069732039000000000000000000600082015250565b7f2f00000000000000000000000000000000000000000000000000000000000000600082015250565b61524a81614940565b811461525557600080fd5b50565b61526181614952565b811461526c57600080fd5b50565b6152788161495e565b811461528357600080fd5b50565b61528f81614968565b811461529a57600080fd5b50565b6152a681614994565b81146152b157600080fd5b50565b6152bd816149c6565b81146152c857600080fd5b50565b6152d4816149d0565b81146152df57600080fd5b5056fea2646970667358221220f34e7595caec2977f1ecba381be82ab02a7d01d3ebaf0d6320c083c343129af664736f6c63430008040033",
  "linkReferences": {},
  "deployedLinkReferences": {}
}